{
  "_format": "hh-sol-artifact-1",
  "contractName": "PancakePair",
  "sourceName": "contracts/amm/PancakePair.sol",
  "abi": [
    {
      "inputs": [],
      "name": "getReserves",
      "outputs": [
        {
          "internalType": "uint112",
          "name": "_reserve0",
          "type": "uint112"
        },
        {
          "internalType": "uint112",
          "name": "_reserve1",
          "type": "uint112"
        },
        {
          "internalType": "uint32",
          "name": "_blockTimestampLast",
          "type": "uint32"
        }
      ],
      "stateMutability": "view",
      "type": "function"
    },
    {
      "inputs": [
        {
          "internalType": "uint256",
          "name": "balance0",
          "type": "uint256"
        },
        {
          "internalType": "uint256",
          "name": "balance1",
          "type": "uint256"
        }
      ],
      "name": "setReserves",
      "outputs": [],
      "stateMutability": "nonpayable",
      "type": "function"
    }
  ],
  "bytecode": "0x608060405234801561001057600080fd5b50610291806100206000396000f3fe608060405234801561001057600080fd5b50600436106100365760003560e01c80630902f1ac1461003b5780638392b8c01461005b575b600080fd5b610043610077565b604051610052939291906101a9565b60405180910390f35b6100756004803603810190610070919061021b565b6100d3565b005b60008060008060009054906101000a90046dffffffffffffffffffffffffffff1692506000600e9054906101000a90046dffffffffffffffffffffffffffff1691506000601c9054906101000a900463ffffffff169050909192565b816000806101000a8154816dffffffffffffffffffffffffffff02191690836dffffffffffffffffffffffffffff160217905550806000600e6101000a8154816dffffffffffffffffffffffffffff02191690836dffffffffffffffffffffffffffff160217905550426000601c6101000a81548163ffffffff021916908363ffffffff1602179055505050565b60006dffffffffffffffffffffffffffff82169050919050565b61018481610161565b82525050565b600063ffffffff82169050919050565b6101a38161018a565b82525050565b60006060820190506101be600083018661017b565b6101cb602083018561017b565b6101d8604083018461019a565b949350505050565b600080fd5b6000819050919050565b6101f8816101e5565b811461020357600080fd5b50565b600081359050610215816101ef565b92915050565b60008060408385031215610232576102316101e0565b5b600061024085828601610206565b925050602061025185828601610206565b915050925092905056fea2646970667358221220ad44e00c072ab253c195884960871e5e0bb42c38eec627964e66ea3531328c9564736f6c634300080a0033",
  "linkReferences": {},
  "deployedLinkReferences": {}
}