{
  "_format": "hh-sol-artifact-1",
  "contractName": "BondConfigFacet",
  "sourceName": "contracts/facets/Bond/BondConfigFacet.sol",
  "abi": [
    {
      "inputs": [
        {
          "internalType": "address",
          "name": "_recipient",
          "type": "address"
        },
        {
          "internalType": "uint256",
          "name": "_rewardRate",
          "type": "uint256"
        }
      ],
      "name": "addRecipient",
      "outputs": [],
      "stateMutability": "nonpayable",
      "type": "function"
    },
    {
      "inputs": [
        {
          "internalType": "address",
          "name": "_ndol",
          "type": "address"
        },
        {
          "internalType": "address",
          "name": "_Necc",
          "type": "address"
        },
        {
          "internalType": "address",
          "name": "_treasury",
          "type": "address"
        },
        {
          "internalType": "address",
          "name": "_DAO",
          "type": "address"
        }
      ],
      "name": "initializeBondDepository",
      "outputs": [],
      "stateMutability": "nonpayable",
      "type": "function"
    },
    {
      "inputs": [
        {
          "internalType": "uint256",
          "name": "_controlVariable",
          "type": "uint256"
        },
        {
          "internalType": "uint256",
          "name": "_minimumPrice",
          "type": "uint256"
        },
        {
          "internalType": "uint256",
          "name": "_maxPayout",
          "type": "uint256"
        },
        {
          "internalType": "uint256",
          "name": "_fee",
          "type": "uint256"
        },
        {
          "internalType": "uint256",
          "name": "_maxDebt",
          "type": "uint256"
        },
        {
          "internalType": "uint256",
          "name": "_initialDebt",
          "type": "uint256"
        },
        {
          "internalType": "uint256",
          "name": "_vestingTerm",
          "type": "uint256"
        },
        {
          "internalType": "bool",
          "name": "_isLiquidityBond",
          "type": "bool"
        },
        {
          "internalType": "address",
          "name": "_priceFeed",
          "type": "address"
        },
        {
          "internalType": "address",
          "name": "_principle",
          "type": "address"
        }
      ],
      "name": "initializeBondTerms",
      "outputs": [],
      "stateMutability": "nonpayable",
      "type": "function"
    },
    {
      "inputs": [
        {
          "internalType": "uint256",
          "name": "_epochLength",
          "type": "uint256"
        },
        {
          "internalType": "uint256",
          "name": "_nextEpochTimestamp",
          "type": "uint256"
        },
        {
          "internalType": "address",
          "name": "_principle",
          "type": "address"
        }
      ],
      "name": "initializeDistributor",
      "outputs": [],
      "stateMutability": "nonpayable",
      "type": "function"
    },
    {
      "inputs": [
        {
          "internalType": "uint256",
          "name": "_firstEpochNumber",
          "type": "uint256"
        },
        {
          "internalType": "uint32",
          "name": "_firstEpochTime",
          "type": "uint32"
        },
        {
          "internalType": "address",
          "name": "_nNecc",
          "type": "address"
        }
      ],
      "name": "initializeStaking",
      "outputs": [],
      "stateMutability": "nonpayable",
      "type": "function"
    },
    {
      "inputs": [
        {
          "internalType": "address",
          "name": "_token",
          "type": "address"
        }
      ],
      "name": "recoverLostToken",
      "outputs": [
        {
          "internalType": "bool",
          "name": "",
          "type": "bool"
        }
      ],
      "stateMutability": "nonpayable",
      "type": "function"
    },
    {
      "inputs": [
        {
          "internalType": "uint256",
          "name": "_index",
          "type": "uint256"
        },
        {
          "internalType": "address",
          "name": "_recipient",
          "type": "address"
        }
      ],
      "name": "removeRecipient",
      "outputs": [],
      "stateMutability": "nonpayable",
      "type": "function"
    },
    {
      "inputs": [
        {
          "internalType": "bool",
          "name": "_addition",
          "type": "bool"
        },
        {
          "internalType": "uint256",
          "name": "_delta",
          "type": "uint256"
        },
        {
          "internalType": "uint256",
          "name": "_timeToTargetInSeconds",
          "type": "uint256"
        },
        {
          "internalType": "address",
          "name": "_principle",
          "type": "address"
        }
      ],
      "name": "setAdjustment",
      "outputs": [],
      "stateMutability": "nonpayable",
      "type": "function"
    },
    {
      "inputs": [
        {
          "internalType": "uint256",
          "name": "_index",
          "type": "uint256"
        },
        {
          "internalType": "bool",
          "name": "_add",
          "type": "bool"
        },
        {
          "internalType": "uint256",
          "name": "_rate",
          "type": "uint256"
        },
        {
          "internalType": "uint256",
          "name": "_target",
          "type": "uint256"
        }
      ],
      "name": "setAdjustment",
      "outputs": [],
      "stateMutability": "nonpayable",
      "type": "function"
    },
    {
      "inputs": [
        {
          "internalType": "enum PARAMETER",
          "name": "_parameter",
          "type": "uint8"
        },
        {
          "internalType": "uint256",
          "name": "_input",
          "type": "uint256"
        },
        {
          "internalType": "address",
          "name": "_principle",
          "type": "address"
        }
      ],
      "name": "setBondTerms",
      "outputs": [],
      "stateMutability": "nonpayable",
      "type": "function"
    },
    {
      "inputs": [
        {
          "internalType": "enum CONTRACTS",
          "name": "_contract",
          "type": "uint8"
        },
        {
          "internalType": "address",
          "name": "_address",
          "type": "address"
        }
      ],
      "name": "setContract",
      "outputs": [],
      "stateMutability": "nonpayable",
      "type": "function"
    },
    {
      "inputs": [
        {
          "internalType": "address",
          "name": "_farmDistributor",
          "type": "address"
        }
      ],
      "name": "setFarmDistributor",
      "outputs": [],
      "stateMutability": "nonpayable",
      "type": "function"
    },
    {
      "inputs": [
        {
          "internalType": "uint256",
          "name": "_warmupPeriod",
          "type": "uint256"
        }
      ],
      "name": "setWarmup",
      "outputs": [],
      "stateMutability": "nonpayable",
      "type": "function"
    },
    {
      "inputs": [
        {
          "internalType": "address",
          "name": "_maliciousDepositor",
          "type": "address"
        }
      ],
      "name": "toggleDepositLock",
      "outputs": [],
      "stateMutability": "nonpayable",
      "type": "function"
    }
  ],
  "bytecode": "0x608060405234801561001057600080fd5b506125e7806100206000396000f3fe608060405234801561001057600080fd5b50600436106100ea5760003560e01c8063b4abccba1161008c578063d247cfe911610066578063d247cfe91461021b578063f54fef4014610237578063f798224314610253578063fe3fbbad1461026f576100ea565b8063b4abccba146101b3578063bb3d6a0b146101e3578063c9f464ff146101ff576100ea565b80635db854b0116100c85780635db854b014610143578063865e6fd31461015f5780638e9068e61461017b578063b00785cc14610197576100ea565b806307cafdfc146100ef578063128bae671461010b5780634a30c46314610127575b600080fd5b6101096004803603810190610104919061180f565b61028b565b005b610125600480360381019061012091906118aa565b6102da565b005b610141600480360381019061013c9190611911565b6104a4565b005b61015d60048036038101906101589190611978565b6106a9565b005b61017960048036038101906101749190611a04565b610721565b005b6101956004803603810190610190919061180f565b610832565b005b6101b160048036038101906101ac9190611a44565b6108ed565b005b6101cd60048036038101906101c8919061180f565b610aef565b6040516101da9190611b32565b60405180910390f35b6101fd60048036038101906101f89190611b89565b610c38565b005b61021960048036038101906102149190611bdc565b610d18565b005b61023560048036038101906102309190611c09565b610d2d565b005b610251600480360381019061024c9190611c81565b610d70565b005b61026d60048036038101906102689190611cd4565b610ff5565b005b61028960048036038101906102849190611d14565b6110e7565b005b610293611207565b80600060050160006101000a81548173ffffffffffffffffffffffffffffffffffffffff021916908373ffffffffffffffffffffffffffffffffffffffff16021790555050565b60006102e4611211565b90503073ffffffffffffffffffffffffffffffffffffffff163373ffffffffffffffffffffffffffffffffffffffff16148061036f57508060040160009054906101000a900473ffffffffffffffffffffffffffffffffffffffff1673ffffffffffffffffffffffffffffffffffffffff163373ffffffffffffffffffffffffffffffffffffffff16145b6103ae576040517f08c379a00000000000000000000000000000000000000000000000000000000081526004016103a590611dd7565b60405180910390fd5b60006103c483600061123e90919063ffffffff16565b90506000600901600080815260200190815260200160002060050154841015610422576040517f08c379a000000000000000000000000000000000000000000000000000000000815260040161041990611e43565b60405180910390fd5b60405180608001604052808715158152602001868152602001858152602001428152506000600a01600083815260200190815260200160002060008201518160000160006101000a81548160ff021916908315150217905550602082015181600101556040820151816002015560608201518160030155905050505050505050565b6104ac611207565b600073ffffffffffffffffffffffffffffffffffffffff168373ffffffffffffffffffffffffffffffffffffffff1614156104e657600080fd5b826000800160006101000a81548173ffffffffffffffffffffffffffffffffffffffff021916908373ffffffffffffffffffffffffffffffffffffffff160217905550600073ffffffffffffffffffffffffffffffffffffffff168273ffffffffffffffffffffffffffffffffffffffff16141561056357600080fd5b81600060030160006101000a81548173ffffffffffffffffffffffffffffffffffffffff021916908373ffffffffffffffffffffffffffffffffffffffff160217905550600073ffffffffffffffffffffffffffffffffffffffff168173ffffffffffffffffffffffffffffffffffffffff1614156105e157600080fd5b80600060040160006101000a81548173ffffffffffffffffffffffffffffffffffffffff021916908373ffffffffffffffffffffffffffffffffffffffff160217905550600073ffffffffffffffffffffffffffffffffffffffff168473ffffffffffffffffffffffffffffffffffffffff16141561065f57600080fd5b83600060020160006101000a81548173ffffffffffffffffffffffffffffffffffffffff021916908373ffffffffffffffffffffffffffffffffffffffff16021790555050505050565b6106b1611207565b60405180606001604052808415158152602001838152602001828152506000601101600086815260200190815260200160002060008201518160000160006101000a81548160ff021916908315150217905550602082015181600101556040820151816002015590505050505050565b610729611207565b60028081111561073c5761073b611e63565b5b82600281111561074f5761074e611e63565b5b141561082e57600073ffffffffffffffffffffffffffffffffffffffff16600060180160009054906101000a900473ffffffffffffffffffffffffffffffffffffffff1673ffffffffffffffffffffffffffffffffffffffff16146107e9576040517f08c379a00000000000000000000000000000000000000000000000000000000081526004016107e090611f04565b60405180910390fd5b80600060180160006101000a81548173ffffffffffffffffffffffffffffffffffffffff021916908373ffffffffffffffffffffffffffffffffffffffff1602179055505b5050565b61083a611207565b6000601b0160008273ffffffffffffffffffffffffffffffffffffffff1673ffffffffffffffffffffffffffffffffffffffff16815260200190815260200160002060030160009054906101000a900460ff16156000601b0160008373ffffffffffffffffffffffffffffffffffffffff1673ffffffffffffffffffffffffffffffffffffffff16815260200190815260200160002060030160006101000a81548160ff02191690831515021790555050565b6108f5611207565b6109036000600701826112c0565b50600061091a82600061123e90919063ffffffff16565b90506000806009016000838152602001908152602001600020600001541015610978576040517f08c379a000000000000000000000000000000000000000000000000000000000815260040161096f90611f70565b60405180910390fd5b6040518060e001604052808c81526020018b81526020018a815260200189815260200188815260200186815260200185151581525060006009016000838152602001908152602001600020600082015181600001556020820151816001015560408201518160020155606082015181600301556080820151816004015560a0820151816005015560c08201518160060160006101000a81548160ff021916908315150217905550905050856000600c01600083815260200190815260200160002081905550426000600d01600083815260200190815260200160002081905550600073ffffffffffffffffffffffffffffffffffffffff168373ffffffffffffffffffffffffffffffffffffffff1614610ae257826000600f01600083815260200190815260200160002060006101000a81548173ffffffffffffffffffffffffffffffffffffffff021916908373ffffffffffffffffffffffffffffffffffffffff1602179055505b5050505050505050505050565b60008060000160009054906101000a900473ffffffffffffffffffffffffffffffffffffffff1673ffffffffffffffffffffffffffffffffffffffff168273ffffffffffffffffffffffffffffffffffffffff161415610b4e57600080fd5b610b5c6000600701836112f0565b15610b6657600080fd5b610c2f600060040160009054906101000a900473ffffffffffffffffffffffffffffffffffffffff168373ffffffffffffffffffffffffffffffffffffffff166370a08231306040518263ffffffff1660e01b8152600401610bc89190611f9f565b602060405180830381865afa158015610be5573d6000803e3d6000fd5b505050506040513d601f19601f82011682018060405250810190610c099190611fcf565b8473ffffffffffffffffffffffffffffffffffffffff166113209092919063ffffffff16565b60019050919050565b600073ffffffffffffffffffffffffffffffffffffffff168173ffffffffffffffffffffffffffffffffffffffff161415610c7257600080fd5b80600060010160006101000a81548173ffffffffffffffffffffffffffffffffffffffff021916908373ffffffffffffffffffffffffffffffffffffffff16021790555060405180608001604052808481526020016000815260200160006016015481526020018363ffffffff16815250600060120160008201518160000155602082015181600101556040820151816002015560608201518160030155905050505050565b610d20611207565b806000601a018190555050565b6000610d4382600061123e90919063ffffffff16565b905083600060160181905550826000600e0160008381526020019081526020016000208190555050505050565b610d78611207565b6000610d8e82600061123e90919063ffffffff16565b905060006004811115610da457610da3611e63565b5b846004811115610db757610db6611e63565b5b1415610e26576201fa40831015610e03576040517f08c379a0000000000000000000000000000000000000000000000000000000008152600401610dfa9061206e565b60405180910390fd5b826000600901600083815260200190815260200160002060050181905550610fef565b60016004811115610e3a57610e39611e63565b5b846004811115610e4d57610e4c611e63565b5b1415610ebb576103e8831115610e98576040517f08c379a0000000000000000000000000000000000000000000000000000000008152600401610e8f906120da565b60405180910390fd5b826000600901600083815260200190815260200160002060020181905550610fee565b60026004811115610ecf57610ece611e63565b5b846004811115610ee257610ee1611e63565b5b1415610f5057612710831115610f2d576040517f08c379a0000000000000000000000000000000000000000000000000000000008152600401610f2490612146565b60405180910390fd5b826000600901600083815260200190815260200160002060030181905550610fed565b60036004811115610f6457610f63611e63565b5b846004811115610f7757610f76611e63565b5b1415610fa057826000600901600083815260200190815260200160002060040181905550610fec565b600480811115610fb357610fb2611e63565b5b846004811115610fc657610fc5611e63565b5b1415610feb578260006009016000838152602001908152602001600020600101819055505b5b5b5b5b50505050565b610ffd611207565b600073ffffffffffffffffffffffffffffffffffffffff168273ffffffffffffffffffffffffffffffffffffffff16141561103757600080fd5b600060100160405180604001604052808381526020018473ffffffffffffffffffffffffffffffffffffffff1681525090806001815401808255809150506001900390600052602060002090600202016000909190919091506000820151816000015560208201518160010160006101000a81548173ffffffffffffffffffffffffffffffffffffffff021916908373ffffffffffffffffffffffffffffffffffffffff16021790555050505050565b6110ef611207565b6000601001828154811061110657611105612166565b5b906000526020600020906002020160010160009054906101000a900473ffffffffffffffffffffffffffffffffffffffff1673ffffffffffffffffffffffffffffffffffffffff168173ffffffffffffffffffffffffffffffffffffffff161461116f57600080fd5b600080601001838154811061118757611186612166565b5b906000526020600020906002020160010160006101000a81548173ffffffffffffffffffffffffffffffffffffffff021916908373ffffffffffffffffffffffffffffffffffffffff16021790555060008060100183815481106111ee576111ed612166565b5b9060005260206000209060020201600001819055505050565b61120f6113a6565b565b6000807fc8fcad8db84d3cc18b4c41d551ea0ee66dd599cde068d998e57d5e09332c131c90508091505090565b60008061124d84600701611441565b905060005b818110156112b7578373ffffffffffffffffffffffffffffffffffffffff1661127e8660070183611456565b73ffffffffffffffffffffffffffffffffffffffff1614156112a45780925050506112ba565b80806112af906121c4565b915050611252565b50505b92915050565b60006112e8836000018373ffffffffffffffffffffffffffffffffffffffff1660001b611470565b905092915050565b6000611318836000018373ffffffffffffffffffffffffffffffffffffffff1660001b6114e0565b905092915050565b6113a18363a9059cbb60e01b848460405160240161133f92919061221c565b604051602081830303815290604052907bffffffffffffffffffffffffffffffffffffffffffffffffffffffff19166020820180517bffffffffffffffffffffffffffffffffffffffffffffffffffffffff8381831617835250505050611503565b505050565b6113ae611211565b60040160009054906101000a900473ffffffffffffffffffffffffffffffffffffffff1673ffffffffffffffffffffffffffffffffffffffff163373ffffffffffffffffffffffffffffffffffffffff161461143f576040517f08c379a0000000000000000000000000000000000000000000000000000000008152600401611436906122b7565b60405180910390fd5b565b600061144f826000016115ca565b9050919050565b600061146583600001836115db565b60001c905092915050565b600061147c83836114e0565b6114d55782600001829080600181540180825580915050600190039060005260206000200160009091909190915055826000018054905083600101600084815260200190815260200160002081905550600190506114da565b600090505b92915050565b600080836001016000848152602001908152602001600020541415905092915050565b6000611565826040518060400160405280602081526020017f5361666545524332303a206c6f772d6c6576656c2063616c6c206661696c65648152508573ffffffffffffffffffffffffffffffffffffffff166116069092919063ffffffff16565b90506000815111156115c5578080602001905181019061158591906122ec565b6115c4576040517f08c379a00000000000000000000000000000000000000000000000000000000081526004016115bb9061238b565b60405180910390fd5b5b505050565b600081600001805490509050919050565b60008260000182815481106115f3576115f2612166565b5b9060005260206000200154905092915050565b6060611615848460008561161e565b90509392505050565b606082471015611663576040517f08c379a000000000000000000000000000000000000000000000000000000000815260040161165a9061241d565b60405180910390fd5b61166c85611732565b6116ab576040517f08c379a00000000000000000000000000000000000000000000000000000000081526004016116a290612489565b60405180910390fd5b6000808673ffffffffffffffffffffffffffffffffffffffff1685876040516116d49190612523565b60006040518083038185875af1925050503d8060008114611711576040519150601f19603f3d011682016040523d82523d6000602084013e611716565b606091505b5091509150611726828286611745565b92505050949350505050565b600080823b905060008111915050919050565b60608315611755578290506117a5565b6000835111156117685782518084602001fd5b816040517f08c379a000000000000000000000000000000000000000000000000000000000815260040161179c919061258f565b60405180910390fd5b9392505050565b600080fd5b600073ffffffffffffffffffffffffffffffffffffffff82169050919050565b60006117dc826117b1565b9050919050565b6117ec816117d1565b81146117f757600080fd5b50565b600081359050611809816117e3565b92915050565b600060208284031215611825576118246117ac565b5b6000611833848285016117fa565b91505092915050565b60008115159050919050565b6118518161183c565b811461185c57600080fd5b50565b60008135905061186e81611848565b92915050565b6000819050919050565b61188781611874565b811461189257600080fd5b50565b6000813590506118a48161187e565b92915050565b600080600080608085870312156118c4576118c36117ac565b5b60006118d28782880161185f565b94505060206118e387828801611895565b93505060406118f487828801611895565b9250506060611905878288016117fa565b91505092959194509250565b6000806000806080858703121561192b5761192a6117ac565b5b6000611939878288016117fa565b945050602061194a878288016117fa565b935050604061195b878288016117fa565b925050606061196c878288016117fa565b91505092959194509250565b60008060008060808587031215611992576119916117ac565b5b60006119a087828801611895565b94505060206119b18782880161185f565b93505060406119c287828801611895565b92505060606119d387828801611895565b91505092959194509250565b600381106119ec57600080fd5b50565b6000813590506119fe816119df565b92915050565b60008060408385031215611a1b57611a1a6117ac565b5b6000611a29858286016119ef565b9250506020611a3a858286016117fa565b9150509250929050565b6000806000806000806000806000806101408b8d031215611a6857611a676117ac565b5b6000611a768d828e01611895565b9a50506020611a878d828e01611895565b9950506040611a988d828e01611895565b9850506060611aa98d828e01611895565b9750506080611aba8d828e01611895565b96505060a0611acb8d828e01611895565b95505060c0611adc8d828e01611895565b94505060e0611aed8d828e0161185f565b935050610100611aff8d828e016117fa565b925050610120611b118d828e016117fa565b9150509295989b9194979a5092959850565b611b2c8161183c565b82525050565b6000602082019050611b476000830184611b23565b92915050565b600063ffffffff82169050919050565b611b6681611b4d565b8114611b7157600080fd5b50565b600081359050611b8381611b5d565b92915050565b600080600060608486031215611ba257611ba16117ac565b5b6000611bb086828701611895565b9350506020611bc186828701611b74565b9250506040611bd2868287016117fa565b9150509250925092565b600060208284031215611bf257611bf16117ac565b5b6000611c0084828501611895565b91505092915050565b600080600060608486031215611c2257611c216117ac565b5b6000611c3086828701611895565b9350506020611c4186828701611895565b9250506040611c52868287016117fa565b9150509250925092565b60058110611c6957600080fd5b50565b600081359050611c7b81611c5c565b92915050565b600080600060608486031215611c9a57611c996117ac565b5b6000611ca886828701611c6c565b9350506020611cb986828701611895565b9250506040611cca868287016117fa565b9150509250925092565b60008060408385031215611ceb57611cea6117ac565b5b6000611cf9858286016117fa565b9250506020611d0a85828601611895565b9150509250929050565b60008060408385031215611d2b57611d2a6117ac565b5b6000611d3985828601611895565b9250506020611d4a858286016117fa565b9150509250929050565b600082825260208201905092915050565b7f426f6e644465706f7369746f72793a20496e76616c696420636f6e747261637460008201527f206f776e65720000000000000000000000000000000000000000000000000000602082015250565b6000611dc1602683611d54565b9150611dcc82611d65565b604082019050919050565b60006020820190508181036000830152611df081611db4565b9050919050565b7f41646a7573746d656e743a204368616e676520746f6f20666173740000000000600082015250565b6000611e2d601b83611d54565b9150611e3882611df7565b602082019050919050565b60006020820190508181036000830152611e5c81611e20565b9050919050565b7f4e487b7100000000000000000000000000000000000000000000000000000000600052602160045260246000fd5b7f4c6f636b65722063616e6e6f7420626520736574206d6f7265207468616e206f60008201527f6e63650000000000000000000000000000000000000000000000000000000000602082015250565b6000611eee602383611d54565b9150611ef982611e92565b604082019050919050565b60006020820190508181036000830152611f1d81611ee1565b9050919050565b7f426f6e6473206d75737420626520696e697469616c697a65642066726f6d2030600082015250565b6000611f5a602083611d54565b9150611f6582611f24565b602082019050919050565b60006020820190508181036000830152611f8981611f4d565b9050919050565b611f99816117d1565b82525050565b6000602082019050611fb46000830184611f90565b92915050565b600081519050611fc98161187e565b92915050565b600060208284031215611fe557611fe46117ac565b5b6000611ff384828501611fba565b91505092915050565b7f56657374696e67206d757374206265206c6f6e676572207468616e203336206860008201527f6f75727300000000000000000000000000000000000000000000000000000000602082015250565b6000612058602483611d54565b915061206382611ffc565b604082019050919050565b600060208201905081810360008301526120878161204b565b9050919050565b7f5061796f75742063616e6e6f742062652061626f766520312070657263656e74600082015250565b60006120c4602083611d54565b91506120cf8261208e565b602082019050919050565b600060208201905081810360008301526120f3816120b7565b9050919050565b7f44414f206665652063616e6e6f7420657863656564207061796f757400000000600082015250565b6000612130601c83611d54565b915061213b826120fa565b602082019050919050565b6000602082019050818103600083015261215f81612123565b9050919050565b7f4e487b7100000000000000000000000000000000000000000000000000000000600052603260045260246000fd5b7f4e487b7100000000000000000000000000000000000000000000000000000000600052601160045260246000fd5b60006121cf82611874565b91507fffffffffffffffffffffffffffffffffffffffffffffffffffffffffffffffff82141561220257612201612195565b5b600182019050919050565b61221681611874565b82525050565b60006040820190506122316000830185611f90565b61223e602083018461220d565b9392505050565b7f4c69624469616d6f6e643a20696e76616c696420636f6e7472616374206f776e60008201527f6572000000000000000000000000000000000000000000000000000000000000602082015250565b60006122a1602283611d54565b91506122ac82612245565b604082019050919050565b600060208201905081810360008301526122d081612294565b9050919050565b6000815190506122e681611848565b92915050565b600060208284031215612302576123016117ac565b5b6000612310848285016122d7565b91505092915050565b7f5361666545524332303a204552433230206f7065726174696f6e20646964206e60008201527f6f74207375636365656400000000000000000000000000000000000000000000602082015250565b6000612375602a83611d54565b915061238082612319565b604082019050919050565b600060208201905081810360008301526123a481612368565b9050919050565b7f416464726573733a20696e73756666696369656e742062616c616e636520666f60008201527f722063616c6c0000000000000000000000000000000000000000000000000000602082015250565b6000612407602683611d54565b9150612412826123ab565b604082019050919050565b60006020820190508181036000830152612436816123fa565b9050919050565b7f416464726573733a2063616c6c20746f206e6f6e2d636f6e7472616374000000600082015250565b6000612473601d83611d54565b915061247e8261243d565b602082019050919050565b600060208201905081810360008301526124a281612466565b9050919050565b600081519050919050565b600081905092915050565b60005b838110156124dd5780820151818401526020810190506124c2565b838111156124ec576000848401525b50505050565b60006124fd826124a9565b61250781856124b4565b93506125178185602086016124bf565b80840191505092915050565b600061252f82846124f2565b915081905092915050565b600081519050919050565b6000601f19601f8301169050919050565b60006125618261253a565b61256b8185611d54565b935061257b8185602086016124bf565b61258481612545565b840191505092915050565b600060208201905081810360008301526125a98184612556565b90509291505056fea2646970667358221220e907e3b37bab7fbdd16fabb0b8ba1996e25d58a24c21db94b6f572ea135ee61864736f6c634300080a0033",
  "linkReferences": {},
  "deployedLinkReferences": {}
}