{
  "_format": "hh-sol-artifact-1",
  "contractName": "Timelock",
  "sourceName": "contracts/peripherals/Timelock.sol",
  "abi": [
    {
      "inputs": [
        {
          "internalType": "uint256",
          "name": "_buffer",
          "type": "uint256"
        }
      ],
      "stateMutability": "nonpayable",
      "type": "constructor"
    },
    {
      "anonymous": false,
      "inputs": [
        {
          "indexed": false,
          "internalType": "bytes32",
          "name": "action",
          "type": "bytes32"
        }
      ],
      "name": "ClearAction",
      "type": "event"
    },
    {
      "anonymous": false,
      "inputs": [
        {
          "indexed": false,
          "internalType": "address",
          "name": "router",
          "type": "address"
        },
        {
          "indexed": false,
          "internalType": "address",
          "name": "plugin",
          "type": "address"
        },
        {
          "indexed": false,
          "internalType": "bytes32",
          "name": "action",
          "type": "bytes32"
        }
      ],
      "name": "SignalAddPlugin",
      "type": "event"
    },
    {
      "anonymous": false,
      "inputs": [
        {
          "indexed": false,
          "internalType": "address",
          "name": "token",
          "type": "address"
        },
        {
          "indexed": false,
          "internalType": "address",
          "name": "spender",
          "type": "address"
        },
        {
          "indexed": false,
          "internalType": "uint256",
          "name": "amount",
          "type": "uint256"
        },
        {
          "indexed": false,
          "internalType": "bytes32",
          "name": "action",
          "type": "bytes32"
        }
      ],
      "name": "SignalApprove",
      "type": "event"
    },
    {
      "anonymous": false,
      "inputs": [
        {
          "indexed": false,
          "internalType": "bytes32",
          "name": "action",
          "type": "bytes32"
        }
      ],
      "name": "SignalPendingAction",
      "type": "event"
    },
    {
      "anonymous": false,
      "inputs": [
        {
          "indexed": false,
          "internalType": "address",
          "name": "target",
          "type": "address"
        },
        {
          "indexed": false,
          "internalType": "address",
          "name": "gov",
          "type": "address"
        },
        {
          "indexed": false,
          "internalType": "bytes32",
          "name": "action",
          "type": "bytes32"
        }
      ],
      "name": "SignalSetGov",
      "type": "event"
    },
    {
      "anonymous": false,
      "inputs": [
        {
          "indexed": false,
          "internalType": "address",
          "name": "vault",
          "type": "address"
        },
        {
          "indexed": false,
          "internalType": "address",
          "name": "priceFeed",
          "type": "address"
        },
        {
          "indexed": false,
          "internalType": "bytes32",
          "name": "action",
          "type": "bytes32"
        }
      ],
      "name": "SignalSetPriceFeed",
      "type": "event"
    },
    {
      "inputs": [],
      "name": "PRICE_PRECISION",
      "outputs": [
        {
          "internalType": "uint256",
          "name": "",
          "type": "uint256"
        }
      ],
      "stateMutability": "view",
      "type": "function"
    },
    {
      "inputs": [
        {
          "internalType": "address",
          "name": "_router",
          "type": "address"
        },
        {
          "internalType": "address",
          "name": "_plugin",
          "type": "address"
        }
      ],
      "name": "addPlugin",
      "outputs": [],
      "stateMutability": "nonpayable",
      "type": "function"
    },
    {
      "inputs": [],
      "name": "admin",
      "outputs": [
        {
          "internalType": "address",
          "name": "",
          "type": "address"
        }
      ],
      "stateMutability": "view",
      "type": "function"
    },
    {
      "inputs": [
        {
          "internalType": "address",
          "name": "_token",
          "type": "address"
        },
        {
          "internalType": "address",
          "name": "_spender",
          "type": "address"
        },
        {
          "internalType": "uint256",
          "name": "_amount",
          "type": "uint256"
        }
      ],
      "name": "approve",
      "outputs": [],
      "stateMutability": "nonpayable",
      "type": "function"
    },
    {
      "inputs": [],
      "name": "buffer",
      "outputs": [
        {
          "internalType": "uint256",
          "name": "",
          "type": "uint256"
        }
      ],
      "stateMutability": "view",
      "type": "function"
    },
    {
      "inputs": [
        {
          "internalType": "bytes32",
          "name": "_action",
          "type": "bytes32"
        }
      ],
      "name": "cancelAction",
      "outputs": [],
      "stateMutability": "nonpayable",
      "type": "function"
    },
    {
      "inputs": [
        {
          "internalType": "bytes32",
          "name": "",
          "type": "bytes32"
        }
      ],
      "name": "pendingActions",
      "outputs": [
        {
          "internalType": "uint256",
          "name": "",
          "type": "uint256"
        }
      ],
      "stateMutability": "view",
      "type": "function"
    },
    {
      "inputs": [
        {
          "internalType": "address",
          "name": "_token",
          "type": "address"
        },
        {
          "internalType": "address",
          "name": "_account",
          "type": "address"
        }
      ],
      "name": "removeAdmin",
      "outputs": [],
      "stateMutability": "nonpayable",
      "type": "function"
    },
    {
      "inputs": [
        {
          "internalType": "address",
          "name": "_vault",
          "type": "address"
        },
        {
          "internalType": "uint256",
          "name": "_swapFeeBasisPoints",
          "type": "uint256"
        },
        {
          "internalType": "uint256",
          "name": "_marginFeeBasisPoints",
          "type": "uint256"
        },
        {
          "internalType": "uint256",
          "name": "_liquidationFeeUsd",
          "type": "uint256"
        }
      ],
      "name": "setFees",
      "outputs": [],
      "stateMutability": "nonpayable",
      "type": "function"
    },
    {
      "inputs": [
        {
          "internalType": "address",
          "name": "_target",
          "type": "address"
        },
        {
          "internalType": "address",
          "name": "_gov",
          "type": "address"
        }
      ],
      "name": "setGov",
      "outputs": [],
      "stateMutability": "nonpayable",
      "type": "function"
    },
    {
      "inputs": [
        {
          "internalType": "address",
          "name": "_priceFeed",
          "type": "address"
        },
        {
          "internalType": "bool",
          "name": "_isEnabled",
          "type": "bool"
        }
      ],
      "name": "setIsAmmEnabled",
      "outputs": [],
      "stateMutability": "nonpayable",
      "type": "function"
    },
    {
      "inputs": [
        {
          "internalType": "address",
          "name": "_vault",
          "type": "address"
        },
        {
          "internalType": "bool",
          "name": "_isMintingEnabled",
          "type": "bool"
        }
      ],
      "name": "setIsMintingEnabled",
      "outputs": [],
      "stateMutability": "nonpayable",
      "type": "function"
    },
    {
      "inputs": [
        {
          "internalType": "address",
          "name": "_priceFeed",
          "type": "address"
        },
        {
          "internalType": "bool",
          "name": "_isEnabled",
          "type": "bool"
        }
      ],
      "name": "setIsSecondaryPriceEnabled",
      "outputs": [],
      "stateMutability": "nonpayable",
      "type": "function"
    },
    {
      "inputs": [
        {
          "internalType": "address",
          "name": "_vault",
          "type": "address"
        },
        {
          "internalType": "uint256",
          "name": "_maxNDOLBatchSize",
          "type": "uint256"
        },
        {
          "internalType": "uint256",
          "name": "_maxNDOLBuffer",
          "type": "uint256"
        }
      ],
      "name": "setMaxNDOL",
      "outputs": [],
      "stateMutability": "nonpayable",
      "type": "function"
    },
    {
      "inputs": [
        {
          "internalType": "address",
          "name": "_priceFeed",
          "type": "address"
        },
        {
          "internalType": "uint256",
          "name": "_maxStrictPriceDeviation",
          "type": "uint256"
        }
      ],
      "name": "setMaxStrictPriceDeviation",
      "outputs": [],
      "stateMutability": "nonpayable",
      "type": "function"
    },
    {
      "inputs": [
        {
          "internalType": "address",
          "name": "_vault",
          "type": "address"
        },
        {
          "internalType": "address",
          "name": "_priceFeed",
          "type": "address"
        }
      ],
      "name": "setPriceFeed",
      "outputs": [],
      "stateMutability": "nonpayable",
      "type": "function"
    },
    {
      "inputs": [
        {
          "internalType": "address",
          "name": "_priceFeed",
          "type": "address"
        },
        {
          "internalType": "uint256",
          "name": "_priceSampleSpace",
          "type": "uint256"
        }
      ],
      "name": "setPriceSampleSpace",
      "outputs": [],
      "stateMutability": "nonpayable",
      "type": "function"
    },
    {
      "inputs": [
        {
          "internalType": "address",
          "name": "_token",
          "type": "address"
        },
        {
          "internalType": "address",
          "name": "_priceFeed",
          "type": "address"
        },
        {
          "internalType": "uint256",
          "name": "_spreadBasisPoints",
          "type": "uint256"
        }
      ],
      "name": "setSpreadBasisPoints",
      "outputs": [],
      "stateMutability": "nonpayable",
      "type": "function"
    },
    {
      "inputs": [
        {
          "internalType": "address",
          "name": "_router",
          "type": "address"
        },
        {
          "internalType": "address",
          "name": "_plugin",
          "type": "address"
        }
      ],
      "name": "signalAddPlugin",
      "outputs": [],
      "stateMutability": "nonpayable",
      "type": "function"
    },
    {
      "inputs": [
        {
          "internalType": "address",
          "name": "_token",
          "type": "address"
        },
        {
          "internalType": "address",
          "name": "_spender",
          "type": "address"
        },
        {
          "internalType": "uint256",
          "name": "_amount",
          "type": "uint256"
        }
      ],
      "name": "signalApprove",
      "outputs": [],
      "stateMutability": "nonpayable",
      "type": "function"
    },
    {
      "inputs": [
        {
          "internalType": "address",
          "name": "_target",
          "type": "address"
        },
        {
          "internalType": "address",
          "name": "_gov",
          "type": "address"
        }
      ],
      "name": "signalSetGov",
      "outputs": [],
      "stateMutability": "nonpayable",
      "type": "function"
    },
    {
      "inputs": [
        {
          "internalType": "address",
          "name": "_vault",
          "type": "address"
        },
        {
          "internalType": "address",
          "name": "_priceFeed",
          "type": "address"
        }
      ],
      "name": "signalSetPriceFeed",
      "outputs": [],
      "stateMutability": "nonpayable",
      "type": "function"
    },
    {
      "inputs": [
        {
          "internalType": "address",
          "name": "_vault",
          "type": "address"
        },
        {
          "internalType": "address",
          "name": "_token",
          "type": "address"
        },
        {
          "internalType": "address",
          "name": "_receiver",
          "type": "address"
        }
      ],
      "name": "withdrawFees",
      "outputs": [],
      "stateMutability": "nonpayable",
      "type": "function"
    }
  ],
  "bytecode": "0x60806040523480156200001157600080fd5b5060405162002985380380620029858339818101604052810190620000379190620000c6565b8060008190555033600160006101000a81548173ffffffffffffffffffffffffffffffffffffffff021916908373ffffffffffffffffffffffffffffffffffffffff16021790555050620000f8565b600080fd5b6000819050919050565b620000a0816200008b565b8114620000ac57600080fd5b50565b600081519050620000c08162000095565b92915050565b600060208284031215620000df57620000de62000086565b5b6000620000ef84828501620000af565b91505092915050565b61287d80620001086000396000f3fe608060405234801561001057600080fd5b506004361061014d5760003560e01c8063781cc3d3116100c3578063e1f21c671161007c578063e1f21c6714610330578063e30569e51461034c578063e68b46b81461037c578063e7b0a3a114610398578063edaafe20146103b4578063f851a440146103d25761014d565b8063781cc3d31461028657806380894d62146102a257806395082d25146102be578063996a7a1e146102dc578063a0a316a2146102f8578063dce6e18d146103145761014d565b806351a6de0d1161011557806351a6de0d146101de57806353b6bfdd146101fa5780635843752f1461021657806369623ae2146102325780637669d4891461024e57806376e112861461026a5761014d565b806309d67d26146101525780630e9587f31461016e578063268959e51461018a5780632877f4c3146101a65780632965c8c7146101c2575b600080fd5b61016c60048036038101906101679190611bb9565b6103f0565b005b61018860048036038101906101839190611c0c565b6104f2565b005b6101a4600480360381019061019f9190611c5f565b610606565b005b6101c060048036038101906101bb9190611c9f565b610705565b005b6101dc60048036038101906101d79190611d17565b610848565b005b6101f860048036038101906101f39190611c5f565b610947565b005b610214600480360381019061020f9190611c5f565b610a86565b005b610230600480360381019061022b9190611d17565b610b8c565b005b61024c60048036038101906102479190611c5f565b610c8b565b005b61026860048036038101906102639190611d57565b610dca565b005b610284600480360381019061027f9190611c5f565b610fb0565b005b6102a0600480360381019061029b9190611df4565b6110ef565b005b6102bc60048036038101906102b79190611c5f565b61118b565b005b6102c6611291565b6040516102d39190611e30565b60405180910390f35b6102f660048036038101906102f19190611c5f565b6112a2565b005b610312600480360381019061030d9190611c9f565b6113a8565b005b61032e60048036038101906103299190611e4b565b6114a7565b005b61034a60048036038101906103459190611e4b565b6115b2565b005b61036660048036038101906103619190611df4565b611708565b6040516103739190611e30565b60405180910390f35b61039660048036038101906103919190611d17565b611720565b005b6103b260048036038101906103ad9190611e4b565b61181f565b005b6103bc611921565b6040516103c99190611e30565b60405180910390f35b6103da611927565b6040516103e79190611ead565b60405180910390f35b600160009054906101000a900473ffffffffffffffffffffffffffffffffffffffff1673ffffffffffffffffffffffffffffffffffffffff163373ffffffffffffffffffffffffffffffffffffffff1614610480576040517f08c379a000000000000000000000000000000000000000000000000000000000815260040161047790611f25565b60405180910390fd5b8273ffffffffffffffffffffffffffffffffffffffff1663bae87e8d83836040518363ffffffff1660e01b81526004016104bb929190611f45565b600060405180830381600087803b1580156104d557600080fd5b505af11580156104e9573d6000803e3d6000fd5b50505050505050565b600160009054906101000a900473ffffffffffffffffffffffffffffffffffffffff1673ffffffffffffffffffffffffffffffffffffffff163373ffffffffffffffffffffffffffffffffffffffff1614610582576040517f08c379a000000000000000000000000000000000000000000000000000000000815260040161057990611f25565b60405180910390fd5b8273ffffffffffffffffffffffffffffffffffffffff1663f255527883836040518363ffffffff1660e01b81526004016105bd929190611f6e565b6020604051808303816000875af11580156105dc573d6000803e3d6000fd5b505050506040513d601f19601f820116820180604052508101906106009190611fac565b50505050565b600160009054906101000a900473ffffffffffffffffffffffffffffffffffffffff1673ffffffffffffffffffffffffffffffffffffffff163373ffffffffffffffffffffffffffffffffffffffff1614610696576040517f08c379a000000000000000000000000000000000000000000000000000000000815260040161068d90611f25565b60405180910390fd5b8173ffffffffffffffffffffffffffffffffffffffff16631785f53c826040518263ffffffff1660e01b81526004016106cf9190611ead565b600060405180830381600087803b1580156106e957600080fd5b505af11580156106fd573d6000803e3d6000fd5b505050505050565b600160009054906101000a900473ffffffffffffffffffffffffffffffffffffffff1673ffffffffffffffffffffffffffffffffffffffff163373ffffffffffffffffffffffffffffffffffffffff1614610795576040517f08c379a000000000000000000000000000000000000000000000000000000000815260040161078c90611f25565b60405180910390fd5b60038111156107d9576040517f08c379a00000000000000000000000000000000000000000000000000000000081526004016107d090612025565b60405180910390fd5b8173ffffffffffffffffffffffffffffffffffffffff16632fa03b8f826040518263ffffffff1660e01b81526004016108129190611e30565b600060405180830381600087803b15801561082c57600080fd5b505af1158015610840573d6000803e3d6000fd5b505050505050565b600160009054906101000a900473ffffffffffffffffffffffffffffffffffffffff1673ffffffffffffffffffffffffffffffffffffffff163373ffffffffffffffffffffffffffffffffffffffff16146108d8576040517f08c379a00000000000000000000000000000000000000000000000000000000081526004016108cf90611f25565b60405180910390fd5b8173ffffffffffffffffffffffffffffffffffffffff1663eb1c92a9826040518263ffffffff1660e01b81526004016109119190612054565b600060405180830381600087803b15801561092b57600080fd5b505af115801561093f573d6000803e3d6000fd5b505050505050565b600160009054906101000a900473ffffffffffffffffffffffffffffffffffffffff1673ffffffffffffffffffffffffffffffffffffffff163373ffffffffffffffffffffffffffffffffffffffff16146109d7576040517f08c379a00000000000000000000000000000000000000000000000000000000081526004016109ce90611f25565b60405180910390fd5b600082826040516020016109ec92919061210e565b604051602081830303815290604052805190602001209050610a0d8161194d565b8273ffffffffffffffffffffffffffffffffffffffff1663cfad57a2836040518263ffffffff1660e01b8152600401610a469190611ead565b600060405180830381600087803b158015610a6057600080fd5b505af1158015610a74573d6000803e3d6000fd5b50505050610a81816119fc565b505050565b600160009054906101000a900473ffffffffffffffffffffffffffffffffffffffff1673ffffffffffffffffffffffffffffffffffffffff163373ffffffffffffffffffffffffffffffffffffffff1614610b16576040517f08c379a0000000000000000000000000000000000000000000000000000000008152600401610b0d90611f25565b60405180910390fd5b60008282604051602001610b2b929190612191565b604051602081830303815290604052805190602001209050610b4c81611aa4565b7fc0ad20f21e0e6b9c02a7ecfb229e39b214cb1914a4d6f202e7f9ec7ffb9445f6838383604051610b7f939291906121d7565b60405180910390a1505050565b600160009054906101000a900473ffffffffffffffffffffffffffffffffffffffff1673ffffffffffffffffffffffffffffffffffffffff163373ffffffffffffffffffffffffffffffffffffffff1614610c1c576040517f08c379a0000000000000000000000000000000000000000000000000000000008152600401610c1390611f25565b60405180910390fd5b8173ffffffffffffffffffffffffffffffffffffffff16639917dc74826040518263ffffffff1660e01b8152600401610c559190612054565b600060405180830381600087803b158015610c6f57600080fd5b505af1158015610c83573d6000803e3d6000fd5b505050505050565b600160009054906101000a900473ffffffffffffffffffffffffffffffffffffffff1673ffffffffffffffffffffffffffffffffffffffff163373ffffffffffffffffffffffffffffffffffffffff1614610d1b576040517f08c379a0000000000000000000000000000000000000000000000000000000008152600401610d1290611f25565b60405180910390fd5b60008282604051602001610d30929190612191565b604051602081830303815290604052805190602001209050610d518161194d565b8273ffffffffffffffffffffffffffffffffffffffff1663d8867fc8836040518263ffffffff1660e01b8152600401610d8a9190611ead565b600060405180830381600087803b158015610da457600080fd5b505af1158015610db8573d6000803e3d6000fd5b50505050610dc5816119fc565b505050565b600160009054906101000a900473ffffffffffffffffffffffffffffffffffffffff1673ffffffffffffffffffffffffffffffffffffffff163373ffffffffffffffffffffffffffffffffffffffff1614610e5a576040517f08c379a0000000000000000000000000000000000000000000000000000000008152600401610e5190611f25565b60405180910390fd5b60648310610e9d576040517f08c379a0000000000000000000000000000000000000000000000000000000008152600401610e9490612280565b60405180910390fd5b60648210610ee0576040517f08c379a0000000000000000000000000000000000000000000000000000000008152600401610ed790612312565b60405180910390fd5b6c0c9f2c9cd04674edea40000000600a610efa9190612361565b8110610f3b576040517f08c379a0000000000000000000000000000000000000000000000000000000008152600401610f329061242d565b60405180910390fd5b8373ffffffffffffffffffffffffffffffffffffffff1663cec10c118484846040518463ffffffff1660e01b8152600401610f789392919061244d565b600060405180830381600087803b158015610f9257600080fd5b505af1158015610fa6573d6000803e3d6000fd5b5050505050505050565b600160009054906101000a900473ffffffffffffffffffffffffffffffffffffffff1673ffffffffffffffffffffffffffffffffffffffff163373ffffffffffffffffffffffffffffffffffffffff1614611040576040517f08c379a000000000000000000000000000000000000000000000000000000000815260040161103790611f25565b60405180910390fd5b600082826040516020016110559291906124d0565b6040516020818303038152906040528051906020012090506110768161194d565b8273ffffffffffffffffffffffffffffffffffffffff1663724e78da836040518263ffffffff1660e01b81526004016110af9190611ead565b600060405180830381600087803b1580156110c957600080fd5b505af11580156110dd573d6000803e3d6000fd5b505050506110ea816119fc565b505050565b600160009054906101000a900473ffffffffffffffffffffffffffffffffffffffff1673ffffffffffffffffffffffffffffffffffffffff163373ffffffffffffffffffffffffffffffffffffffff161461117f576040517f08c379a000000000000000000000000000000000000000000000000000000000815260040161117690611f25565b60405180910390fd5b611188816119fc565b50565b600160009054906101000a900473ffffffffffffffffffffffffffffffffffffffff1673ffffffffffffffffffffffffffffffffffffffff163373ffffffffffffffffffffffffffffffffffffffff161461121b576040517f08c379a000000000000000000000000000000000000000000000000000000000815260040161121290611f25565b60405180910390fd5b600082826040516020016112309291906124d0565b60405160208183030381529060405280519060200120905061125181611aa4565b7fb878dd4b5762f4118ad54995be907dd2bcd915d942e4ac75580fba9b4ee4727f838383604051611284939291906121d7565b60405180910390a1505050565b6c0c9f2c9cd04674edea4000000081565b600160009054906101000a900473ffffffffffffffffffffffffffffffffffffffff1673ffffffffffffffffffffffffffffffffffffffff163373ffffffffffffffffffffffffffffffffffffffff1614611332576040517f08c379a000000000000000000000000000000000000000000000000000000000815260040161132990611f25565b60405180910390fd5b6000828260405160200161134792919061210e565b60405160208183030381529060405280519060200120905061136881611aa4565b7f2701a94fd55a560e291f3c54d36580040670d6fde558a77a75d619e38139f71383838360405161139b939291906121d7565b60405180910390a1505050565b600160009054906101000a900473ffffffffffffffffffffffffffffffffffffffff1673ffffffffffffffffffffffffffffffffffffffff163373ffffffffffffffffffffffffffffffffffffffff1614611438576040517f08c379a000000000000000000000000000000000000000000000000000000000815260040161142f90611f25565b60405180910390fd5b8173ffffffffffffffffffffffffffffffffffffffff16632fbfe3d3826040518263ffffffff1660e01b81526004016114719190611e30565b600060405180830381600087803b15801561148b57600080fd5b505af115801561149f573d6000803e3d6000fd5b505050505050565b600160009054906101000a900473ffffffffffffffffffffffffffffffffffffffff1673ffffffffffffffffffffffffffffffffffffffff163373ffffffffffffffffffffffffffffffffffffffff1614611537576040517f08c379a000000000000000000000000000000000000000000000000000000000815260040161152e90611f25565b60405180910390fd5b600083838360405160200161154e93929190612574565b60405160208183030381529060405280519060200120905061156f81611aa4565b7f6af9d86ba7407a934e941ed8ae5f779369a88fe8ba2cd1c204185d6f8a8287fd848484846040516115a494939291906125bc565b60405180910390a150505050565b600160009054906101000a900473ffffffffffffffffffffffffffffffffffffffff1673ffffffffffffffffffffffffffffffffffffffff163373ffffffffffffffffffffffffffffffffffffffff1614611642576040517f08c379a000000000000000000000000000000000000000000000000000000000815260040161163990611f25565b60405180910390fd5b600083838360405160200161165993929190612574565b60405160208183030381529060405280519060200120905061167a8161194d565b8373ffffffffffffffffffffffffffffffffffffffff1663095ea7b384846040518363ffffffff1660e01b81526004016116b5929190612601565b6020604051808303816000875af11580156116d4573d6000803e3d6000fd5b505050506040513d601f19601f820116820180604052508101906116f8919061263f565b50611702816119fc565b50505050565b60026020528060005260406000206000915090505481565b600160009054906101000a900473ffffffffffffffffffffffffffffffffffffffff1673ffffffffffffffffffffffffffffffffffffffff163373ffffffffffffffffffffffffffffffffffffffff16146117b0576040517f08c379a00000000000000000000000000000000000000000000000000000000081526004016117a790611f25565b60405180910390fd5b8173ffffffffffffffffffffffffffffffffffffffff1663905e0673826040518263ffffffff1660e01b81526004016117e99190612054565b600060405180830381600087803b15801561180357600080fd5b505af1158015611817573d6000803e3d6000fd5b505050505050565b600160009054906101000a900473ffffffffffffffffffffffffffffffffffffffff1673ffffffffffffffffffffffffffffffffffffffff163373ffffffffffffffffffffffffffffffffffffffff16146118af576040517f08c379a00000000000000000000000000000000000000000000000000000000081526004016118a690611f25565b60405180910390fd5b8173ffffffffffffffffffffffffffffffffffffffff16639b88938084836040518363ffffffff1660e01b81526004016118ea929190612601565b600060405180830381600087803b15801561190457600080fd5b505af1158015611918573d6000803e3d6000fd5b50505050505050565b60005481565b600160009054906101000a900473ffffffffffffffffffffffffffffffffffffffff1681565b6000600260008381526020019081526020016000205414156119a4576040517f08c379a000000000000000000000000000000000000000000000000000000000815260040161199b906126b8565b60405180910390fd5b426002600083815260200190815260200160002054106119f9576040517f08c379a00000000000000000000000000000000000000000000000000000000081526004016119f09061274a565b60405180910390fd5b50565b600060026000838152602001908152602001600020541415611a53576040517f08c379a0000000000000000000000000000000000000000000000000000000008152600401611a4a906127b6565b60405180910390fd5b60026000828152602001908152602001600020600090557f194ed6dd5e37e2acc44a19455c3f208c4831ee695fe362d9c4ef2d316bc53aec81604051611a9991906127d6565b60405180910390a150565b611ab960005442611b0a90919063ffffffff16565b60026000838152602001908152602001600020819055507f5fb9c0ecf7b4a28c4c480212e868f9da7f373a2ed4d23498b0be6aadf35242fb81604051611aff91906127d6565b60405180910390a150565b60008183611b1891906127f1565b905092915050565b600080fd5b600073ffffffffffffffffffffffffffffffffffffffff82169050919050565b6000611b5082611b25565b9050919050565b611b6081611b45565b8114611b6b57600080fd5b50565b600081359050611b7d81611b57565b92915050565b6000819050919050565b611b9681611b83565b8114611ba157600080fd5b50565b600081359050611bb381611b8d565b92915050565b600080600060608486031215611bd257611bd1611b20565b5b6000611be086828701611b6e565b9350506020611bf186828701611ba4565b9250506040611c0286828701611ba4565b9150509250925092565b600080600060608486031215611c2557611c24611b20565b5b6000611c3386828701611b6e565b9350506020611c4486828701611b6e565b9250506040611c5586828701611b6e565b9150509250925092565b60008060408385031215611c7657611c75611b20565b5b6000611c8485828601611b6e565b9250506020611c9585828601611b6e565b9150509250929050565b60008060408385031215611cb657611cb5611b20565b5b6000611cc485828601611b6e565b9250506020611cd585828601611ba4565b9150509250929050565b60008115159050919050565b611cf481611cdf565b8114611cff57600080fd5b50565b600081359050611d1181611ceb565b92915050565b60008060408385031215611d2e57611d2d611b20565b5b6000611d3c85828601611b6e565b9250506020611d4d85828601611d02565b9150509250929050565b60008060008060808587031215611d7157611d70611b20565b5b6000611d7f87828801611b6e565b9450506020611d9087828801611ba4565b9350506040611da187828801611ba4565b9250506060611db287828801611ba4565b91505092959194509250565b6000819050919050565b611dd181611dbe565b8114611ddc57600080fd5b50565b600081359050611dee81611dc8565b92915050565b600060208284031215611e0a57611e09611b20565b5b6000611e1884828501611ddf565b91505092915050565b611e2a81611b83565b82525050565b6000602082019050611e456000830184611e21565b92915050565b600080600060608486031215611e6457611e63611b20565b5b6000611e7286828701611b6e565b9350506020611e8386828701611b6e565b9250506040611e9486828701611ba4565b9150509250925092565b611ea781611b45565b82525050565b6000602082019050611ec26000830184611e9e565b92915050565b600082825260208201905092915050565b7f54696d656c6f636b3a20666f7262696464656e00000000000000000000000000600082015250565b6000611f0f601383611ec8565b9150611f1a82611ed9565b602082019050919050565b60006020820190508181036000830152611f3e81611f02565b9050919050565b6000604082019050611f5a6000830185611e21565b611f676020830184611e21565b9392505050565b6000604082019050611f836000830185611e9e565b611f906020830184611e9e565b9392505050565b600081519050611fa681611b8d565b92915050565b600060208284031215611fc257611fc1611b20565b5b6000611fd084828501611f97565b91505092915050565b7f496e76616c6964205f707269636553616d706c65537061636500000000000000600082015250565b600061200f601983611ec8565b915061201a82611fd9565b602082019050919050565b6000602082019050818103600083015261203e81612002565b9050919050565b61204e81611cdf565b82525050565b60006020820190506120696000830184612045565b92915050565b600081905092915050565b7f736574476f760000000000000000000000000000000000000000000000000000600082015250565b60006120b060068361206f565b91506120bb8261207a565b600682019050919050565b60008160601b9050919050565b60006120de826120c6565b9050919050565b60006120f0826120d3565b9050919050565b61210861210382611b45565b6120e5565b82525050565b6000612119826120a3565b915061212582856120f7565b60148201915061213582846120f7565b6014820191508190509392505050565b7f616464506c7567696e0000000000000000000000000000000000000000000000600082015250565b600061217b60098361206f565b915061218682612145565b600982019050919050565b600061219c8261216e565b91506121a882856120f7565b6014820191506121b882846120f7565b6014820191508190509392505050565b6121d181611dbe565b82525050565b60006060820190506121ec6000830186611e9e565b6121f96020830185611e9e565b61220660408301846121c8565b949350505050565b7f54696d656c6f636b3a20696e76616c6964205f7377617046656542617369735060008201527f6f696e7473000000000000000000000000000000000000000000000000000000602082015250565b600061226a602583611ec8565b91506122758261220e565b604082019050919050565b600060208201905081810360008301526122998161225d565b9050919050565b7f54696d656c6f636b3a20696e76616c6964205f6d617267696e4665654261736960008201527f73506f696e747300000000000000000000000000000000000000000000000000602082015250565b60006122fc602783611ec8565b9150612307826122a0565b604082019050919050565b6000602082019050818103600083015261232b816122ef565b9050919050565b7f4e487b7100000000000000000000000000000000000000000000000000000000600052601160045260246000fd5b600061236c82611b83565b915061237783611b83565b9250817fffffffffffffffffffffffffffffffffffffffffffffffffffffffffffffffff04831182151516156123b0576123af612332565b5b828202905092915050565b7f54696d656c6f636b3a20696e76616c6964205f6c69717569646174696f6e466560008201527f6555736400000000000000000000000000000000000000000000000000000000602082015250565b6000612417602483611ec8565b9150612422826123bb565b604082019050919050565b600060208201905081810360008301526124468161240a565b9050919050565b60006060820190506124626000830186611e21565b61246f6020830185611e21565b61247c6040830184611e21565b949350505050565b7f7365745072696365466565640000000000000000000000000000000000000000600082015250565b60006124ba600c8361206f565b91506124c582612484565b600c82019050919050565b60006124db826124ad565b91506124e782856120f7565b6014820191506124f782846120f7565b6014820191508190509392505050565b7f617070726f766500000000000000000000000000000000000000000000000000600082015250565b600061253d60078361206f565b915061254882612507565b600782019050919050565b6000819050919050565b61256e61256982611b83565b612553565b82525050565b600061257f82612530565b915061258b82866120f7565b60148201915061259b82856120f7565b6014820191506125ab828461255d565b602082019150819050949350505050565b60006080820190506125d16000830187611e9e565b6125de6020830186611e9e565b6125eb6040830185611e21565b6125f860608301846121c8565b95945050505050565b60006040820190506126166000830185611e9e565b6126236020830184611e21565b9392505050565b60008151905061263981611ceb565b92915050565b60006020828403121561265557612654611b20565b5b60006126638482850161262a565b91505092915050565b7f54696d656c6f636b3a20616374696f6e206e6f74207369676e616c6c65640000600082015250565b60006126a2601e83611ec8565b91506126ad8261266c565b602082019050919050565b600060208201905081810360008301526126d181612695565b9050919050565b7f54696d656c6f636b3a20616374696f6e2074696d65206e6f742079657420706160008201527f7373656400000000000000000000000000000000000000000000000000000000602082015250565b6000612734602483611ec8565b915061273f826126d8565b604082019050919050565b6000602082019050818103600083015261276381612727565b9050919050565b7f54696d656c6f636b3a20696e76616c6964205f616374696f6e00000000000000600082015250565b60006127a0601983611ec8565b91506127ab8261276a565b602082019050919050565b600060208201905081810360008301526127cf81612793565b9050919050565b60006020820190506127eb60008301846121c8565b92915050565b60006127fc82611b83565b915061280783611b83565b9250827fffffffffffffffffffffffffffffffffffffffffffffffffffffffffffffffff0382111561283c5761283b612332565b5b82820190509291505056fea26469706673582212201c7c2ad6ff2cd9327bf0fd99ae8ba72edf4a8fefb442189e578b4ec2d80d924664736f6c634300080a0033",
  "linkReferences": {},
  "deployedLinkReferences": {}
}