{
  "_format": "hh-sol-artifact-1",
  "contractName": "StakingFacet",
  "sourceName": "contracts/facets/Bond/StakingFacet.sol",
  "abi": [
    {
      "inputs": [
        {
          "internalType": "address",
          "name": "_recipient",
          "type": "address"
        }
      ],
      "name": "claim",
      "outputs": [],
      "stateMutability": "nonpayable",
      "type": "function"
    },
    {
      "inputs": [],
      "name": "contractBalance",
      "outputs": [
        {
          "internalType": "uint256",
          "name": "",
          "type": "uint256"
        }
      ],
      "stateMutability": "view",
      "type": "function"
    },
    {
      "inputs": [],
      "name": "epoch",
      "outputs": [
        {
          "components": [
            {
              "internalType": "uint256",
              "name": "number",
              "type": "uint256"
            },
            {
              "internalType": "uint256",
              "name": "distribute",
              "type": "uint256"
            },
            {
              "internalType": "uint256",
              "name": "length",
              "type": "uint256"
            },
            {
              "internalType": "uint256",
              "name": "endTime",
              "type": "uint256"
            }
          ],
          "internalType": "struct LibBondStorage.Epoch",
          "name": "",
          "type": "tuple"
        }
      ],
      "stateMutability": "view",
      "type": "function"
    },
    {
      "inputs": [],
      "name": "forfeit",
      "outputs": [],
      "stateMutability": "nonpayable",
      "type": "function"
    },
    {
      "inputs": [
        {
          "internalType": "uint256",
          "name": "_amount",
          "type": "uint256"
        }
      ],
      "name": "giveLockBonus",
      "outputs": [],
      "stateMutability": "nonpayable",
      "type": "function"
    },
    {
      "inputs": [],
      "name": "index",
      "outputs": [
        {
          "internalType": "uint256",
          "name": "",
          "type": "uint256"
        }
      ],
      "stateMutability": "view",
      "type": "function"
    },
    {
      "inputs": [],
      "name": "rebase",
      "outputs": [],
      "stateMutability": "nonpayable",
      "type": "function"
    },
    {
      "inputs": [
        {
          "internalType": "uint256",
          "name": "_amount",
          "type": "uint256"
        }
      ],
      "name": "returnLockBonus",
      "outputs": [],
      "stateMutability": "nonpayable",
      "type": "function"
    },
    {
      "inputs": [
        {
          "internalType": "uint256",
          "name": "_amount",
          "type": "uint256"
        },
        {
          "internalType": "address",
          "name": "_recipient",
          "type": "address"
        }
      ],
      "name": "stake",
      "outputs": [
        {
          "internalType": "bool",
          "name": "",
          "type": "bool"
        }
      ],
      "stateMutability": "nonpayable",
      "type": "function"
    },
    {
      "inputs": [],
      "name": "supplyInWarmup",
      "outputs": [
        {
          "internalType": "uint256",
          "name": "",
          "type": "uint256"
        }
      ],
      "stateMutability": "view",
      "type": "function"
    },
    {
      "inputs": [],
      "name": "totalStaked",
      "outputs": [
        {
          "internalType": "uint256",
          "name": "",
          "type": "uint256"
        }
      ],
      "stateMutability": "view",
      "type": "function"
    },
    {
      "inputs": [
        {
          "internalType": "uint256",
          "name": "_amount",
          "type": "uint256"
        },
        {
          "internalType": "bool",
          "name": "_trigger",
          "type": "bool"
        }
      ],
      "name": "unstake",
      "outputs": [],
      "stateMutability": "nonpayable",
      "type": "function"
    },
    {
      "inputs": [
        {
          "internalType": "address",
          "name": "_recipient",
          "type": "address"
        }
      ],
      "name": "warmupInfo",
      "outputs": [
        {
          "components": [
            {
              "internalType": "uint256",
              "name": "deposit",
              "type": "uint256"
            },
            {
              "internalType": "uint256",
              "name": "gons",
              "type": "uint256"
            },
            {
              "internalType": "uint256",
              "name": "expiry",
              "type": "uint256"
            },
            {
              "internalType": "bool",
              "name": "lock",
              "type": "bool"
            }
          ],
          "internalType": "struct LibBondStorage.Claim",
          "name": "",
          "type": "tuple"
        }
      ],
      "stateMutability": "view",
      "type": "function"
    }
  ],
  "bytecode": "0x608060405234801561001057600080fd5b50611f2b806100206000396000f3fe608060405234801561001057600080fd5b50600436106100cf5760003560e01c8063817b1cd21161008c5780639ebea88c116100665780639ebea88c14610202578063af14052c1461021e578063f3d86e4a14610228578063f62ae76a14610232576100cf565b8063817b1cd2146101a85780638b7afe2e146101c6578063900cf0cf146101e4576100cf565b806303c23670146100d45780631e83409a146100f0578063201386411461010c5780632986c0e51461012a5780636746f4c2146101485780637acb775714610178575b600080fd5b6100ee60048036038101906100e99190611653565b61024e565b005b61010a600480360381019061010591906116de565b610344565b005b6101146105b3565b604051610121919061171a565b60405180910390f35b61013261065d565b60405161013f919061171a565b60405180910390f35b610162600480360381019061015d91906116de565b6106f7565b60405161016f91906117b4565b60405180910390f35b610192600480360381019061018d91906117cf565b61078c565b60405161019f919061181e565b60405180910390f35b6101b0610b2d565b6040516101bd919061171a565b60405180910390f35b6101ce610bc7565b6040516101db919061171a565b60405180910390f35b6101ec610c83565b6040516101f9919061188e565b60405180910390f35b61021c600480360381019061021791906118d5565b610cc8565b005b610226610d7c565b005b610230610f56565b005b61024c60048036038101906102479190611653565b6110cb565b005b600060180160009054906101000a900473ffffffffffffffffffffffffffffffffffffffff1673ffffffffffffffffffffffffffffffffffffffff163373ffffffffffffffffffffffffffffffffffffffff16146102ab57600080fd5b6102c3816000601901546111c390919063ffffffff16565b600060190181905550610341600060180160009054906101000a900473ffffffffffffffffffffffffffffffffffffffff1682600060010160009054906101000a900473ffffffffffffffffffffffffffffffffffffffff1673ffffffffffffffffffffffffffffffffffffffff166111d99092919063ffffffff16565b50565b600080601b0160008373ffffffffffffffffffffffffffffffffffffffff1673ffffffffffffffffffffffffffffffffffffffff1681526020019081526020016000206040518060800160405290816000820154815260200160018201548152602001600282015481526020016003820160009054906101000a900460ff16151515158152505090508060600151610445573373ffffffffffffffffffffffffffffffffffffffff168273ffffffffffffffffffffffffffffffffffffffff1614610444576040517f08c379a000000000000000000000000000000000000000000000000000000000815260040161043b90611998565b60405180910390fd5b5b80604001516000601201600001541015801561046657506000816040015114155b156105af576000601b0160008373ffffffffffffffffffffffffffffffffffffffff1673ffffffffffffffffffffffffffffffffffffffff168152602001908152602001600020600080820160009055600182016000905560028201600090556003820160006101000a81549060ff021916905550506104f881602001516000601e015461125f90919063ffffffff16565b6000601e01819055506105ad82600060010160009054906101000a900473ffffffffffffffffffffffffffffffffffffffff1673ffffffffffffffffffffffffffffffffffffffff16637965d56d84602001516040518263ffffffff1660e01b8152600401610567919061171a565b602060405180830381865afa158015610584573d6000803e3d6000fd5b505050506040513d601f19601f820116820180604052508101906105a891906119cd565b611275565b505b5050565b60008060010160009054906101000a900473ffffffffffffffffffffffffffffffffffffffff1673ffffffffffffffffffffffffffffffffffffffff16637965d56d6000601e01546040518263ffffffff1660e01b8152600401610617919061171a565b602060405180830381865afa158015610634573d6000803e3d6000fd5b505050506040513d601f19601f8201168201806040525081019061065891906119cd565b905090565b60008060010160009054906101000a900473ffffffffffffffffffffffffffffffffffffffff1673ffffffffffffffffffffffffffffffffffffffff16632986c0e56040518163ffffffff1660e01b8152600401602060405180830381865afa1580156106ce573d6000803e3d6000fd5b505050506040513d601f19601f820116820180604052508101906106f291906119cd565b905090565b6106ff6115c6565b6000601b0160008373ffffffffffffffffffffffffffffffffffffffff1673ffffffffffffffffffffffffffffffffffffffff1681526020019081526020016000206040518060800160405290816000820154815260200160018201548152602001600282015481526020016003820160009054906101000a900460ff1615151515815250509050919050565b6000610796610d7c565b6107e73330856000800160009054906101000a900473ffffffffffffffffffffffffffffffffffffffff1673ffffffffffffffffffffffffffffffffffffffff166112d0909392919063ffffffff16565b600080601a01541415610804576107fe8284611275565b50610b23565b600080601b0160008473ffffffffffffffffffffffffffffffffffffffff1673ffffffffffffffffffffffffffffffffffffffff1681526020019081526020016000206040518060800160405290816000820154815260200160018201548152602001600282015481526020016003820160009054906101000a900460ff16151515158152505090508060600151156108d2576040517f08c379a00000000000000000000000000000000000000000000000000000000081526004016108c990611a46565b60405180910390fd5b60405180608001604052806108f48684600001516111c390919063ffffffff16565b81526020016109ae600060010160009054906101000a900473ffffffffffffffffffffffffffffffffffffffff1673ffffffffffffffffffffffffffffffffffffffff16631bd39674886040518263ffffffff1660e01b815260040161095a919061171a565b602060405180830381865afa158015610977573d6000803e3d6000fd5b505050506040513d601f19601f8201168201806040525081019061099b91906119cd565b84602001516111c390919063ffffffff16565b81526020016109d36000601a01546000601201600001546111c390919063ffffffff16565b8152602001600015158152506000601b0160008573ffffffffffffffffffffffffffffffffffffffff1673ffffffffffffffffffffffffffffffffffffffff16815260200190815260200160002060008201518160000155602082015181600101556040820151816002015560608201518160030160006101000a81548160ff021916908315150217905550905050610b18600060010160009054906101000a900473ffffffffffffffffffffffffffffffffffffffff1673ffffffffffffffffffffffffffffffffffffffff16631bd39674866040518263ffffffff1660e01b8152600401610ac3919061171a565b602060405180830381865afa158015610ae0573d6000803e3d6000fd5b505050506040513d601f19601f82011682018060405250810190610b0491906119cd565b6000601e01546111c390919063ffffffff16565b6000601e0181905550505b6001905092915050565b60008060010160009054906101000a900473ffffffffffffffffffffffffffffffffffffffff1673ffffffffffffffffffffffffffffffffffffffff16639358928b6040518163ffffffff1660e01b8152600401602060405180830381865afa158015610b9e573d6000803e3d6000fd5b505050506040513d601f19601f82011682018060405250810190610bc291906119cd565b905090565b6000610c7e6000601901546000800160009054906101000a900473ffffffffffffffffffffffffffffffffffffffff1673ffffffffffffffffffffffffffffffffffffffff166370a08231306040518263ffffffff1660e01b8152600401610c2f9190611a75565b602060405180830381865afa158015610c4c573d6000803e3d6000fd5b505050506040513d601f19601f82011682018060405250810190610c7091906119cd565b6111c390919063ffffffff16565b905090565b610c8b6115f0565b6000601201604051806080016040529081600082015481526020016001820154815260200160028201548152602001600382015481525050905090565b8015610cd757610cd6610d7c565b5b610d29333084600060010160009054906101000a900473ffffffffffffffffffffffffffffffffffffffff1673ffffffffffffffffffffffffffffffffffffffff166112d0909392919063ffffffff16565b610d7833836000800160009054906101000a900473ffffffffffffffffffffffffffffffffffffffff1673ffffffffffffffffffffffffffffffffffffffff166111d99092919063ffffffff16565b5050565b4260006012016003015411610f5457600060010160009054906101000a900473ffffffffffffffffffffffffffffffffffffffff1673ffffffffffffffffffffffffffffffffffffffff1663058ecdb46000601201600101546000601201600001546040518363ffffffff1660e01b8152600401610dfb929190611a90565b6020604051808303816000875af1158015610e1a573d6000803e3d6000fd5b505050506040513d601f19601f82011682018060405250810190610e3e91906119cd565b50610e626000601201600201546000601201600301546111c390919063ffffffff16565b60006012016003018190555060006012016000016000815480929190610e8790611ae8565b91905055503073ffffffffffffffffffffffffffffffffffffffff1663e4fc6b6d6040518163ffffffff1660e01b81526004016020604051808303816000875af1158015610ed9573d6000803e3d6000fd5b505050506040513d601f19601f82011682018060405250810190610efd91906119cd565b50610f06610b2d565b610f0e610bc7565b11610f255760008060120160010181905550610f53565b610f46610f30610b2d565b610f38610bc7565b61125f90919063ffffffff16565b6000601201600101819055505b5b565b600080601b0160003373ffffffffffffffffffffffffffffffffffffffff1673ffffffffffffffffffffffffffffffffffffffff1681526020019081526020016000206040518060800160405290816000820154815260200160018201548152602001600282015481526020016003820160009054906101000a900460ff16151515158152505090506000601b0160003373ffffffffffffffffffffffffffffffffffffffff1673ffffffffffffffffffffffffffffffffffffffff168152602001908152602001600020600080820160009055600182016000905560028201600090556003820160006101000a81549060ff0219169055505061106c81602001516000601e015461125f90919063ffffffff16565b6000601e01819055506110c83382600001516000800160009054906101000a900473ffffffffffffffffffffffffffffffffffffffff1673ffffffffffffffffffffffffffffffffffffffff166111d99092919063ffffffff16565b50565b600060180160009054906101000a900473ffffffffffffffffffffffffffffffffffffffff1673ffffffffffffffffffffffffffffffffffffffff163373ffffffffffffffffffffffffffffffffffffffff161461112857600080fd5b6111408160006019015461125f90919063ffffffff16565b6000601901819055506111c0600060180160009054906101000a900473ffffffffffffffffffffffffffffffffffffffff163083600060010160009054906101000a900473ffffffffffffffffffffffffffffffffffffffff1673ffffffffffffffffffffffffffffffffffffffff166112d0909392919063ffffffff16565b50565b600081836111d19190611b31565b905092915050565b61125a8363a9059cbb60e01b84846040516024016111f8929190611b87565b604051602081830303815290604052907bffffffffffffffffffffffffffffffffffffffffffffffffffffffff19166020820180517bffffffffffffffffffffffffffffffffffffffffffffffffffffffff8381831617835250505050611359565b505050565b6000818361126d9190611bb0565b905092915050565b60006112c78383600060010160009054906101000a900473ffffffffffffffffffffffffffffffffffffffff1673ffffffffffffffffffffffffffffffffffffffff166111d99092919063ffffffff16565b81905092915050565b611353846323b872dd60e01b8585856040516024016112f193929190611be4565b604051602081830303815290604052907bffffffffffffffffffffffffffffffffffffffffffffffffffffffff19166020820180517bffffffffffffffffffffffffffffffffffffffffffffffffffffffff8381831617835250505050611359565b50505050565b60006113bb826040518060400160405280602081526020017f5361666545524332303a206c6f772d6c6576656c2063616c6c206661696c65648152508573ffffffffffffffffffffffffffffffffffffffff166114209092919063ffffffff16565b905060008151111561141b57808060200190518101906113db9190611c30565b61141a576040517f08c379a000000000000000000000000000000000000000000000000000000000815260040161141190611ccf565b60405180910390fd5b5b505050565b606061142f8484600085611438565b90509392505050565b60608247101561147d576040517f08c379a000000000000000000000000000000000000000000000000000000000815260040161147490611d61565b60405180910390fd5b6114868561154c565b6114c5576040517f08c379a00000000000000000000000000000000000000000000000000000000081526004016114bc90611dcd565b60405180910390fd5b6000808673ffffffffffffffffffffffffffffffffffffffff1685876040516114ee9190611e67565b60006040518083038185875af1925050503d806000811461152b576040519150601f19603f3d011682016040523d82523d6000602084013e611530565b606091505b509150915061154082828661155f565b92505050949350505050565b600080823b905060008111915050919050565b6060831561156f578290506115bf565b6000835111156115825782518084602001fd5b816040517f08c379a00000000000000000000000000000000000000000000000000000000081526004016115b69190611ed3565b60405180910390fd5b9392505050565b60405180608001604052806000815260200160008152602001600081526020016000151581525090565b6040518060800160405280600081526020016000815260200160008152602001600081525090565b600080fd5b6000819050919050565b6116308161161d565b811461163b57600080fd5b50565b60008135905061164d81611627565b92915050565b60006020828403121561166957611668611618565b5b60006116778482850161163e565b91505092915050565b600073ffffffffffffffffffffffffffffffffffffffff82169050919050565b60006116ab82611680565b9050919050565b6116bb816116a0565b81146116c657600080fd5b50565b6000813590506116d8816116b2565b92915050565b6000602082840312156116f4576116f3611618565b5b6000611702848285016116c9565b91505092915050565b6117148161161d565b82525050565b600060208201905061172f600083018461170b565b92915050565b61173e8161161d565b82525050565b60008115159050919050565b61175981611744565b82525050565b6080820160008201516117756000850182611735565b5060208201516117886020850182611735565b50604082015161179b6040850182611735565b5060608201516117ae6060850182611750565b50505050565b60006080820190506117c9600083018461175f565b92915050565b600080604083850312156117e6576117e5611618565b5b60006117f48582860161163e565b9250506020611805858286016116c9565b9150509250929050565b61181881611744565b82525050565b6000602082019050611833600083018461180f565b92915050565b60808201600082015161184f6000850182611735565b5060208201516118626020850182611735565b5060408201516118756040850182611735565b5060608201516118886060850182611735565b50505050565b60006080820190506118a36000830184611839565b92915050565b6118b281611744565b81146118bd57600080fd5b50565b6000813590506118cf816118a9565b92915050565b600080604083850312156118ec576118eb611618565b5b60006118fa8582860161163e565b925050602061190b858286016118c0565b9150509250929050565b600082825260208201905092915050565b7f45787465726e616c20636c61696d7320666f72206163636f756e74206172652060008201527f6c6f636b65640000000000000000000000000000000000000000000000000000602082015250565b6000611982602683611915565b915061198d82611926565b604082019050919050565b600060208201905081810360008301526119b181611975565b9050919050565b6000815190506119c781611627565b92915050565b6000602082840312156119e3576119e2611618565b5b60006119f1848285016119b8565b91505092915050565b7f4465706f7369747320666f72206163636f756e7420617265206c6f636b656400600082015250565b6000611a30601f83611915565b9150611a3b826119fa565b602082019050919050565b60006020820190508181036000830152611a5f81611a23565b9050919050565b611a6f816116a0565b82525050565b6000602082019050611a8a6000830184611a66565b92915050565b6000604082019050611aa5600083018561170b565b611ab2602083018461170b565b9392505050565b7f4e487b7100000000000000000000000000000000000000000000000000000000600052601160045260246000fd5b6000611af38261161d565b91507fffffffffffffffffffffffffffffffffffffffffffffffffffffffffffffffff821415611b2657611b25611ab9565b5b600182019050919050565b6000611b3c8261161d565b9150611b478361161d565b9250827fffffffffffffffffffffffffffffffffffffffffffffffffffffffffffffffff03821115611b7c57611b7b611ab9565b5b828201905092915050565b6000604082019050611b9c6000830185611a66565b611ba9602083018461170b565b9392505050565b6000611bbb8261161d565b9150611bc68361161d565b925082821015611bd957611bd8611ab9565b5b828203905092915050565b6000606082019050611bf96000830186611a66565b611c066020830185611a66565b611c13604083018461170b565b949350505050565b600081519050611c2a816118a9565b92915050565b600060208284031215611c4657611c45611618565b5b6000611c5484828501611c1b565b91505092915050565b7f5361666545524332303a204552433230206f7065726174696f6e20646964206e60008201527f6f74207375636365656400000000000000000000000000000000000000000000602082015250565b6000611cb9602a83611915565b9150611cc482611c5d565b604082019050919050565b60006020820190508181036000830152611ce881611cac565b9050919050565b7f416464726573733a20696e73756666696369656e742062616c616e636520666f60008201527f722063616c6c0000000000000000000000000000000000000000000000000000602082015250565b6000611d4b602683611915565b9150611d5682611cef565b604082019050919050565b60006020820190508181036000830152611d7a81611d3e565b9050919050565b7f416464726573733a2063616c6c20746f206e6f6e2d636f6e7472616374000000600082015250565b6000611db7601d83611915565b9150611dc282611d81565b602082019050919050565b60006020820190508181036000830152611de681611daa565b9050919050565b600081519050919050565b600081905092915050565b60005b83811015611e21578082015181840152602081019050611e06565b83811115611e30576000848401525b50505050565b6000611e4182611ded565b611e4b8185611df8565b9350611e5b818560208601611e03565b80840191505092915050565b6000611e738284611e36565b915081905092915050565b600081519050919050565b6000601f19601f8301169050919050565b6000611ea582611e7e565b611eaf8185611915565b9350611ebf818560208601611e03565b611ec881611e89565b840191505092915050565b60006020820190508181036000830152611eed8184611e9a565b90509291505056fea2646970667358221220691e45705abb74a322ef10756fde17efc642ccbdf0a3461b8812cefacd3196bb64736f6c634300080a0033",
  "linkReferences": {},
  "deployedLinkReferences": {}
}