{
  "_format": "hh-sol-artifact-1",
  "contractName": "DistributorFacet",
  "sourceName": "contracts/facets/Bond/DistributorFacet.sol",
  "abi": [
    {
      "inputs": [],
      "name": "distribute",
      "outputs": [
        {
          "internalType": "bool",
          "name": "",
          "type": "bool"
        }
      ],
      "stateMutability": "nonpayable",
      "type": "function"
    },
    {
      "inputs": [
        {
          "internalType": "uint256",
          "name": "_rate",
          "type": "uint256"
        }
      ],
      "name": "nextRewardAt",
      "outputs": [
        {
          "internalType": "uint256",
          "name": "",
          "type": "uint256"
        }
      ],
      "stateMutability": "view",
      "type": "function"
    },
    {
      "inputs": [
        {
          "internalType": "address",
          "name": "_recipient",
          "type": "address"
        }
      ],
      "name": "nextRewardFor",
      "outputs": [
        {
          "internalType": "uint256",
          "name": "",
          "type": "uint256"
        }
      ],
      "stateMutability": "view",
      "type": "function"
    }
  ],
  "bytecode": "0x608060405234801561001057600080fd5b50610ab0806100206000396000f3fe608060405234801561001057600080fd5b50600436106100415760003560e01c806336d33f4414610046578063c9fa8b2a14610076578063e4fc6b6d146100a6575b600080fd5b610060600480360381019061005b9190610725565b6100c4565b60405161006d919061076b565b60405180910390f35b610090600480360381019061008b91906107b2565b6101a7565b60405161009d919061076b565b60405180910390f35b6100ae61026a565b6040516100bb91906107fa565b60405180910390f35b60008060005b60006010018054905081101561019d578373ffffffffffffffffffffffffffffffffffffffff166000601001828154811061010857610107610815565b5b906000526020600020906002020160010160009054906101000a900473ffffffffffffffffffffffffffffffffffffffff1673ffffffffffffffffffffffffffffffffffffffff16141561018a57610187600060100182815481106101705761016f610815565b5b9060005260206000209060020201600001546101a7565b91505b808061019590610873565b9150506100ca565b5080915050919050565b6000610263620f4240610255846000800160009054906101000a900473ffffffffffffffffffffffffffffffffffffffff1673ffffffffffffffffffffffffffffffffffffffff166318160ddd6040518163ffffffff1660e01b8152600401602060405180830381865afa158015610223573d6000803e3d6000fd5b505050506040513d601f19601f8201168201806040525081019061024791906108d1565b61048390919063ffffffff16565b61049990919063ffffffff16565b9050919050565b60008061027a60006007016104af565b905060006001905060005b8281101561047a57426000600e0160008381526020019081526020016000205411610462576102d86000601601546000600e016000848152602001908152602001600020546104c490919063ffffffff16565b6000600e0160008381526020019081526020016000208190555060005b60006010018054905081101561045c57600080601001828154811061031d5761031c610815565b5b906000526020600020906002020160000154111561044957600060030160009054906101000a900473ffffffffffffffffffffffffffffffffffffffff1673ffffffffffffffffffffffffffffffffffffffff16636a20de926000601001838154811061038d5761038c610815565b5b906000526020600020906002020160010160009054906101000a900473ffffffffffffffffffffffffffffffffffffffff166103f0600060100185815481106103d9576103d8610815565b5b9060005260206000209060020201600001546101a7565b6040518363ffffffff1660e01b815260040161040d92919061090d565b600060405180830381600087803b15801561042757600080fd5b505af115801561043b573d6000803e3d6000fd5b50505050610448816104da565b5b808061045490610873565b9150506102f5565b50610467565b600091505b808061047290610873565b915050610285565b50809250505090565b600081836104919190610936565b905092915050565b600081836104a791906109bf565b905092915050565b60006104bd8260000161069b565b9050919050565b600081836104d291906109f0565b905092915050565b600080601101600083815260200190815260200160002090506000816001015414610697578060000160009054906101000a900460ff16156105d85761055581600101546000601001848154811061053557610534610815565b5b9060005260206000209060020201600001546104c490919063ffffffff16565b6000601001838154811061056c5761056b610815565b5b90600052602060002090600202016000018190555080600201546000601001838154811061059d5761059c610815565b5b906000526020600020906002020160000154106105d3576000806011016000848152602001908152602001600020600101819055505b610696565b6106178160010154600060100184815481106105f7576105f6610815565b5b9060005260206000209060020201600001546106ac90919063ffffffff16565b6000601001838154811061062e5761062d610815565b5b90600052602060002090600202016000018190555080600201546000601001838154811061065f5761065e610815565b5b90600052602060002090600202016000015411610695576000806011016000848152602001908152602001600020600101819055505b5b5b5050565b600081600001805490509050919050565b600081836106ba9190610a46565b905092915050565b600080fd5b600073ffffffffffffffffffffffffffffffffffffffff82169050919050565b60006106f2826106c7565b9050919050565b610702816106e7565b811461070d57600080fd5b50565b60008135905061071f816106f9565b92915050565b60006020828403121561073b5761073a6106c2565b5b600061074984828501610710565b91505092915050565b6000819050919050565b61076581610752565b82525050565b6000602082019050610780600083018461075c565b92915050565b61078f81610752565b811461079a57600080fd5b50565b6000813590506107ac81610786565b92915050565b6000602082840312156107c8576107c76106c2565b5b60006107d68482850161079d565b91505092915050565b60008115159050919050565b6107f4816107df565b82525050565b600060208201905061080f60008301846107eb565b92915050565b7f4e487b7100000000000000000000000000000000000000000000000000000000600052603260045260246000fd5b7f4e487b7100000000000000000000000000000000000000000000000000000000600052601160045260246000fd5b600061087e82610752565b91507fffffffffffffffffffffffffffffffffffffffffffffffffffffffffffffffff8214156108b1576108b0610844565b5b600182019050919050565b6000815190506108cb81610786565b92915050565b6000602082840312156108e7576108e66106c2565b5b60006108f5848285016108bc565b91505092915050565b610907816106e7565b82525050565b600060408201905061092260008301856108fe565b61092f602083018461075c565b9392505050565b600061094182610752565b915061094c83610752565b9250817fffffffffffffffffffffffffffffffffffffffffffffffffffffffffffffffff048311821515161561098557610984610844565b5b828202905092915050565b7f4e487b7100000000000000000000000000000000000000000000000000000000600052601260045260246000fd5b60006109ca82610752565b91506109d583610752565b9250826109e5576109e4610990565b5b828204905092915050565b60006109fb82610752565b9150610a0683610752565b9250827fffffffffffffffffffffffffffffffffffffffffffffffffffffffffffffffff03821115610a3b57610a3a610844565b5b828201905092915050565b6000610a5182610752565b9150610a5c83610752565b925082821015610a6f57610a6e610844565b5b82820390509291505056fea2646970667358221220a5c45a361fd05440cf6bc29f51b196250b692ddd758cbbfcfddaf81a915c6f0364736f6c634300080a0033",
  "linkReferences": {},
  "deployedLinkReferences": {}
}