{
  "_format": "hh-sol-artifact-1",
  "contractName": "BalanceUpdater",
  "sourceName": "contracts/peripherals/BalanceUpdater.sol",
  "abi": [
    {
      "inputs": [
        {
          "internalType": "address",
          "name": "_vault",
          "type": "address"
        },
        {
          "internalType": "address",
          "name": "_token",
          "type": "address"
        },
        {
          "internalType": "address",
          "name": "_ndol",
          "type": "address"
        },
        {
          "internalType": "uint256",
          "name": "_ndolAmount",
          "type": "uint256"
        }
      ],
      "name": "updateBalance",
      "outputs": [],
      "stateMutability": "nonpayable",
      "type": "function"
    }
  ],
  "bytecode": "0x608060405234801561001057600080fd5b506106e1806100206000396000f3fe608060405234801561001057600080fd5b506004361061002b5760003560e01c806343aaa69014610030575b600080fd5b61004a6004803603810190610045919061044b565b61004c565b005b6000849050600084905060008273ffffffffffffffffffffffffffffffffffffffff166352f55eed876040518263ffffffff1660e01b815260040161009191906104c1565b602060405180830381865afa1580156100ae573d6000803e3d6000fd5b505050506040513d601f19601f820116820180604052508101906100d291906104f1565b905060008373ffffffffffffffffffffffffffffffffffffffff16631ce9cb8f886040518263ffffffff1660e01b815260040161010f91906104c1565b602060405180830381865afa15801561012c573d6000803e3d6000fd5b505050506040513d601f19601f8201168201806040525081019061015091906104f1565b905060008373ffffffffffffffffffffffffffffffffffffffff166370a082318a6040518263ffffffff1660e01b815260040161018d91906104c1565b602060405180830381865afa1580156101aa573d6000803e3d6000fd5b505050506040513d601f19601f820116820180604052508101906101ce91906104f1565b905060006101f7826101e9858761038690919063ffffffff16565b61039c90919063ffffffff16565b90508473ffffffffffffffffffffffffffffffffffffffff166323b872dd338c846040518463ffffffff1660e01b81526004016102369392919061052d565b6020604051808303816000875af1158015610255573d6000803e3d6000fd5b505050506040513d601f19601f82011682018060405250810190610279919061059c565b508773ffffffffffffffffffffffffffffffffffffffff166323b872dd338c8a6040518463ffffffff1660e01b81526004016102b79392919061052d565b6020604051808303816000875af11580156102d6573d6000803e3d6000fd5b505050506040513d601f19601f820116820180604052508101906102fa919061059c565b508573ffffffffffffffffffffffffffffffffffffffff16637c1fb3178a336040518363ffffffff1660e01b81526004016103369291906105c9565b6020604051808303816000875af1158015610355573d6000803e3d6000fd5b505050506040513d601f19601f8201168201806040525081019061037991906104f1565b5050505050505050505050565b600081836103949190610621565b905092915050565b600081836103aa9190610677565b905092915050565b600080fd5b600073ffffffffffffffffffffffffffffffffffffffff82169050919050565b60006103e2826103b7565b9050919050565b6103f2816103d7565b81146103fd57600080fd5b50565b60008135905061040f816103e9565b92915050565b6000819050919050565b61042881610415565b811461043357600080fd5b50565b6000813590506104458161041f565b92915050565b60008060008060808587031215610465576104646103b2565b5b600061047387828801610400565b945050602061048487828801610400565b935050604061049587828801610400565b92505060606104a687828801610436565b91505092959194509250565b6104bb816103d7565b82525050565b60006020820190506104d660008301846104b2565b92915050565b6000815190506104eb8161041f565b92915050565b600060208284031215610507576105066103b2565b5b6000610515848285016104dc565b91505092915050565b61052781610415565b82525050565b600060608201905061054260008301866104b2565b61054f60208301856104b2565b61055c604083018461051e565b949350505050565b60008115159050919050565b61057981610564565b811461058457600080fd5b50565b60008151905061059681610570565b92915050565b6000602082840312156105b2576105b16103b2565b5b60006105c084828501610587565b91505092915050565b60006040820190506105de60008301856104b2565b6105eb60208301846104b2565b9392505050565b7f4e487b7100000000000000000000000000000000000000000000000000000000600052601160045260246000fd5b600061062c82610415565b915061063783610415565b9250827fffffffffffffffffffffffffffffffffffffffffffffffffffffffffffffffff0382111561066c5761066b6105f2565b5b828201905092915050565b600061068282610415565b915061068d83610415565b9250828210156106a05761069f6105f2565b5b82820390509291505056fea264697066735822122064d4c673586e142d1c0bb12649cb70730162eebbfde73ed67c589f278686677c64736f6c634300080a0033",
  "linkReferences": {},
  "deployedLinkReferences": {}
}