{
  "_format": "hh-sol-artifact-1",
  "contractName": "TreasuryFacet",
  "sourceName": "contracts/facets/Treasury/TreasuryFacet.sol",
  "abi": [
    {
      "anonymous": false,
      "inputs": [
        {
          "indexed": true,
          "internalType": "enum TreasuryFacet.MANAGING",
          "name": "managing",
          "type": "uint8"
        },
        {
          "indexed": false,
          "internalType": "address",
          "name": "activated",
          "type": "address"
        },
        {
          "indexed": false,
          "internalType": "bool",
          "name": "result",
          "type": "bool"
        }
      ],
      "name": "ChangeActivated",
      "type": "event"
    },
    {
      "anonymous": false,
      "inputs": [
        {
          "indexed": true,
          "internalType": "enum TreasuryFacet.MANAGING",
          "name": "managing",
          "type": "uint8"
        },
        {
          "indexed": false,
          "internalType": "address",
          "name": "queued",
          "type": "address"
        }
      ],
      "name": "ChangeQueued",
      "type": "event"
    },
    {
      "anonymous": false,
      "inputs": [
        {
          "indexed": true,
          "internalType": "address",
          "name": "debtor",
          "type": "address"
        },
        {
          "indexed": true,
          "internalType": "address",
          "name": "token",
          "type": "address"
        },
        {
          "indexed": false,
          "internalType": "uint256",
          "name": "amount",
          "type": "uint256"
        },
        {
          "indexed": false,
          "internalType": "uint256",
          "name": "value",
          "type": "uint256"
        }
      ],
      "name": "CreateDebt",
      "type": "event"
    },
    {
      "anonymous": false,
      "inputs": [
        {
          "indexed": true,
          "internalType": "address",
          "name": "token",
          "type": "address"
        },
        {
          "indexed": false,
          "internalType": "uint256",
          "name": "amount",
          "type": "uint256"
        },
        {
          "indexed": false,
          "internalType": "uint256",
          "name": "value",
          "type": "uint256"
        }
      ],
      "name": "Deposit",
      "type": "event"
    },
    {
      "anonymous": false,
      "inputs": [
        {
          "indexed": true,
          "internalType": "address",
          "name": "debtor",
          "type": "address"
        },
        {
          "indexed": true,
          "internalType": "address",
          "name": "token",
          "type": "address"
        },
        {
          "indexed": false,
          "internalType": "uint256",
          "name": "amount",
          "type": "uint256"
        },
        {
          "indexed": false,
          "internalType": "uint256",
          "name": "value",
          "type": "uint256"
        }
      ],
      "name": "RepayDebt",
      "type": "event"
    },
    {
      "anonymous": false,
      "inputs": [
        {
          "indexed": true,
          "internalType": "uint256",
          "name": "totalReserves",
          "type": "uint256"
        }
      ],
      "name": "ReservesAudited",
      "type": "event"
    },
    {
      "anonymous": false,
      "inputs": [
        {
          "indexed": true,
          "internalType": "address",
          "name": "token",
          "type": "address"
        },
        {
          "indexed": false,
          "internalType": "uint256",
          "name": "amount",
          "type": "uint256"
        }
      ],
      "name": "ReservesManaged",
      "type": "event"
    },
    {
      "anonymous": false,
      "inputs": [
        {
          "indexed": true,
          "internalType": "uint256",
          "name": "totalReserves",
          "type": "uint256"
        }
      ],
      "name": "ReservesUpdated",
      "type": "event"
    },
    {
      "anonymous": false,
      "inputs": [
        {
          "indexed": true,
          "internalType": "address",
          "name": "caller",
          "type": "address"
        },
        {
          "indexed": true,
          "internalType": "address",
          "name": "recipient",
          "type": "address"
        },
        {
          "indexed": false,
          "internalType": "uint256",
          "name": "amount",
          "type": "uint256"
        }
      ],
      "name": "RewardsMinted",
      "type": "event"
    },
    {
      "anonymous": false,
      "inputs": [
        {
          "indexed": true,
          "internalType": "address",
          "name": "token",
          "type": "address"
        },
        {
          "indexed": false,
          "internalType": "uint256",
          "name": "amount",
          "type": "uint256"
        },
        {
          "indexed": false,
          "internalType": "uint256",
          "name": "value",
          "type": "uint256"
        }
      ],
      "name": "Withdrawal",
      "type": "event"
    },
    {
      "inputs": [],
      "name": "auditReserves",
      "outputs": [],
      "stateMutability": "nonpayable",
      "type": "function"
    },
    {
      "inputs": [
        {
          "internalType": "uint256",
          "name": "_amount",
          "type": "uint256"
        },
        {
          "internalType": "address",
          "name": "_token",
          "type": "address"
        },
        {
          "internalType": "uint256",
          "name": "_profit",
          "type": "uint256"
        }
      ],
      "name": "deposit",
      "outputs": [
        {
          "internalType": "uint256",
          "name": "send_",
          "type": "uint256"
        }
      ],
      "stateMutability": "nonpayable",
      "type": "function"
    },
    {
      "inputs": [],
      "name": "excessReserves",
      "outputs": [
        {
          "internalType": "uint256",
          "name": "",
          "type": "uint256"
        }
      ],
      "stateMutability": "view",
      "type": "function"
    },
    {
      "inputs": [
        {
          "internalType": "uint256",
          "name": "_amount",
          "type": "uint256"
        },
        {
          "internalType": "address",
          "name": "_token",
          "type": "address"
        }
      ],
      "name": "incurDebt",
      "outputs": [],
      "stateMutability": "nonpayable",
      "type": "function"
    },
    {
      "inputs": [
        {
          "internalType": "address",
          "name": "_Necc",
          "type": "address"
        },
        {
          "internalType": "address",
          "name": "_NDOL",
          "type": "address"
        },
        {
          "internalType": "uint256",
          "name": "_blocksNeededForQueue",
          "type": "uint256"
        }
      ],
      "name": "initializeTreasury",
      "outputs": [],
      "stateMutability": "nonpayable",
      "type": "function"
    },
    {
      "inputs": [
        {
          "internalType": "address",
          "name": "_token",
          "type": "address"
        },
        {
          "internalType": "uint256",
          "name": "_amount",
          "type": "uint256"
        }
      ],
      "name": "manage",
      "outputs": [],
      "stateMutability": "nonpayable",
      "type": "function"
    },
    {
      "inputs": [
        {
          "internalType": "address",
          "name": "_recipient",
          "type": "address"
        },
        {
          "internalType": "uint256",
          "name": "_amount",
          "type": "uint256"
        }
      ],
      "name": "mintRewards",
      "outputs": [],
      "stateMutability": "nonpayable",
      "type": "function"
    },
    {
      "inputs": [
        {
          "internalType": "enum TreasuryFacet.MANAGING",
          "name": "_managing",
          "type": "uint8"
        },
        {
          "internalType": "address",
          "name": "_address",
          "type": "address"
        }
      ],
      "name": "queue",
      "outputs": [
        {
          "internalType": "bool",
          "name": "",
          "type": "bool"
        }
      ],
      "stateMutability": "nonpayable",
      "type": "function"
    },
    {
      "inputs": [
        {
          "internalType": "uint256",
          "name": "_amount",
          "type": "uint256"
        }
      ],
      "name": "repayDebtWithNecc",
      "outputs": [],
      "stateMutability": "nonpayable",
      "type": "function"
    },
    {
      "inputs": [
        {
          "internalType": "uint256",
          "name": "_amount",
          "type": "uint256"
        },
        {
          "internalType": "address",
          "name": "_token",
          "type": "address"
        }
      ],
      "name": "repayDebtWithReserve",
      "outputs": [],
      "stateMutability": "nonpayable",
      "type": "function"
    },
    {
      "inputs": [
        {
          "internalType": "enum TreasuryFacet.MANAGING",
          "name": "_managing",
          "type": "uint8"
        },
        {
          "internalType": "address",
          "name": "_address",
          "type": "address"
        }
      ],
      "name": "toggle",
      "outputs": [
        {
          "internalType": "bool",
          "name": "",
          "type": "bool"
        }
      ],
      "stateMutability": "nonpayable",
      "type": "function"
    },
    {
      "inputs": [
        {
          "internalType": "address",
          "name": "_token",
          "type": "address"
        },
        {
          "internalType": "uint256",
          "name": "_amount",
          "type": "uint256"
        }
      ],
      "name": "valueOfToken",
      "outputs": [
        {
          "internalType": "uint256",
          "name": "_value",
          "type": "uint256"
        }
      ],
      "stateMutability": "view",
      "type": "function"
    },
    {
      "inputs": [
        {
          "internalType": "uint256",
          "name": "_amount",
          "type": "uint256"
        },
        {
          "internalType": "address",
          "name": "_token",
          "type": "address"
        }
      ],
      "name": "withdraw",
      "outputs": [],
      "stateMutability": "nonpayable",
      "type": "function"
    }
  ],
  "bytecode": "0x608060405234801561001057600080fd5b50614ac2806100206000396000f3fe608060405234801561001057600080fd5b50600436106100ce5760003560e01c80636a20de921161008c578063d1b317e511610066578063d1b317e5146101d3578063d5e8be0d14610203578063d796ffb814610233578063e83afee31461024f576100ce565b80636a20de921461016b578063bc157ac114610187578063cad9311e146101b7576100ce565b8062f714ce146100d35780630b0eee30146100ef5780630c3513a81461010b57806312422d23146101295780632b7ce500146101455780633f59d3a71461014f575b600080fd5b6100ed60048036038101906100e89190613da2565b61027f565b005b61010960048036038101906101049190613de2565b610516565b005b6101136107b8565b6040516101209190613e31565b60405180910390f35b610143600480360381019061013e9190613da2565b610880565b005b61014d610ce6565b005b61016960048036038101906101649190613e4c565b610fda565b005b61018560048036038101906101809190613de2565b61112f565b005b6101a1600480360381019061019c9190613e9f565b611302565b6040516101ae9190613e31565b60405180910390f35b6101d160048036038101906101cc9190613ef2565b6116ee565b005b6101ed60048036038101906101e89190613de2565b611958565b6040516101fa9190613e31565b60405180910390f35b61021d60048036038101906102189190613f44565b611bcd565b60405161022a9190613f9f565b60405180910390f35b61024d60048036038101906102489190613da2565b612d44565b005b61026960048036038101906102649190613f44565b613018565b6040516102769190613f9f565b60405180910390f35b600060070160008273ffffffffffffffffffffffffffffffffffffffff1673ffffffffffffffffffffffffffffffffffffffff16815260200190815260200160002060009054906101000a900460ff1661030e576040517f08c379a000000000000000000000000000000000000000000000000000000000815260040161030590614017565b60405180910390fd5b600115156000600d0160003373ffffffffffffffffffffffffffffffffffffffff1673ffffffffffffffffffffffffffffffffffffffff16815260200190815260200160002060009054906101000a900460ff161515146103a4576040517f08c379a000000000000000000000000000000000000000000000000000000000815260040161039b90614083565b60405180910390fd5b60006103b08284611958565b90506000800160009054906101000a900473ffffffffffffffffffffffffffffffffffffffff1673ffffffffffffffffffffffffffffffffffffffff166379cc679033836040518363ffffffff1660e01b81526004016104119291906140b2565b600060405180830381600087803b15801561042b57600080fd5b505af115801561043f573d6000803e3d6000fd5b5050505061045b8160006005015461364b90919063ffffffff16565b6000600501819055506000600501547f93bb8edd35984706eee1b92541281f7f62d33c01c5b2ec0929a113603bd21d6660405160405180910390a26104c133848473ffffffffffffffffffffffffffffffffffffffff166136619092919063ffffffff16565b8173ffffffffffffffffffffffffffffffffffffffff167fdf273cb619d95419a9cd0ec88123a0538c85064229baa6363788f743fff90deb84836040516105099291906140db565b60405180910390a2505050565b600060100160008373ffffffffffffffffffffffffffffffffffffffff1673ffffffffffffffffffffffffffffffffffffffff16815260200190815260200160002060009054906101000a900460ff16156105ff57600060190160003373ffffffffffffffffffffffffffffffffffffffff1673ffffffffffffffffffffffffffffffffffffffff16815260200190815260200160002060009054906101000a900460ff166105fa576040517f08c379a00000000000000000000000000000000000000000000000000000000081526004016105f190614083565b60405180910390fd5b61068f565b600060160160003373ffffffffffffffffffffffffffffffffffffffff1673ffffffffffffffffffffffffffffffffffffffff16815260200190815260200160002060009054906101000a900460ff1661068e576040517f08c379a000000000000000000000000000000000000000000000000000000000815260040161068590614083565b60405180910390fd5b5b600061069b8383611958565b90506106a56107b8565b8111156106e7576040517f08c379a00000000000000000000000000000000000000000000000000000000081526004016106de90614150565b60405180910390fd5b6106ff8160006005015461364b90919063ffffffff16565b6000600501819055506000600501547f93bb8edd35984706eee1b92541281f7f62d33c01c5b2ec0929a113603bd21d6660405160405180910390a261076533838573ffffffffffffffffffffffffffffffffffffffff166136619092919063ffffffff16565b8273ffffffffffffffffffffffffffffffffffffffff167f2bb2640731848fe9820ba48dbc978c1fc9bbd5f11b948bfab05b7dee3378fd80836040516107ab9190613e31565b60405180910390a2505050565b600061087b6108676000600601546000800160009054906101000a900473ffffffffffffffffffffffffffffffffffffffff1673ffffffffffffffffffffffffffffffffffffffff166318160ddd6040518163ffffffff1660e01b8152600401602060405180830381865afa158015610835573d6000803e3d6000fd5b505050506040513d601f19601f820116820180604052508101906108599190614185565b61364b90919063ffffffff16565b60006005015461364b90919063ffffffff16565b905090565b6000601c0160003373ffffffffffffffffffffffffffffffffffffffff1673ffffffffffffffffffffffffffffffffffffffff16815260200190815260200160002060009054906101000a900460ff1661090f576040517f08c379a000000000000000000000000000000000000000000000000000000000815260040161090690614083565b60405180910390fd5b600060070160008273ffffffffffffffffffffffffffffffffffffffff1673ffffffffffffffffffffffffffffffffffffffff16815260200190815260200160002060009054906101000a900460ff1661099e576040517f08c379a000000000000000000000000000000000000000000000000000000000815260040161099590614017565b60405180910390fd5b60006109aa8284611958565b905060008060030160009054906101000a900473ffffffffffffffffffffffffffffffffffffffff1673ffffffffffffffffffffffffffffffffffffffff166370a08231336040518263ffffffff1660e01b8152600401610a0b91906141b2565b602060405180830381865afa158015610a28573d6000803e3d6000fd5b505050506040513d601f19601f82011682018060405250810190610a4c9190614185565b90506000610aa56000601e0160003373ffffffffffffffffffffffffffffffffffffffff1673ffffffffffffffffffffffffffffffffffffffff168152602001908152602001600020548361364b90919063ffffffff16565b905080831115610aea576040517f08c379a0000000000000000000000000000000000000000000000000000000008152600401610ae190614219565b60405180910390fd5b610b3f836000601e0160003373ffffffffffffffffffffffffffffffffffffffff1673ffffffffffffffffffffffffffffffffffffffff168152602001908152602001600020546136e790919063ffffffff16565b6000601e0160003373ffffffffffffffffffffffffffffffffffffffff1673ffffffffffffffffffffffffffffffffffffffff16815260200190815260200160002081905550610b9d836000600601546136e790919063ffffffff16565b600060060181905550610bbe8360006005015461364b90919063ffffffff16565b6000600501819055506000600501547f93bb8edd35984706eee1b92541281f7f62d33c01c5b2ec0929a113603bd21d6660405160405180910390a28373ffffffffffffffffffffffffffffffffffffffff1663a9059cbb33876040518363ffffffff1660e01b8152600401610c349291906140b2565b6020604051808303816000875af1158015610c53573d6000803e3d6000fd5b505050506040513d601f19601f82011682018060405250810190610c779190614265565b508373ffffffffffffffffffffffffffffffffffffffff163373ffffffffffffffffffffffffffffffffffffffff167f7e1a939bed137a819b5d2979822c67f877689f7a863d5e4cb57cdca97b2977d68786604051610cd79291906140db565b60405180910390a35050505050565b610cee6136fd565b600080600090505b600060020180549050811015610e3257610e1d610e0e60006002018381548110610d2357610d22614292565b5b9060005260206000200160009054906101000a900473ffffffffffffffffffffffffffffffffffffffff1660006002018481548110610d6557610d64614292565b5b9060005260206000200160009054906101000a900473ffffffffffffffffffffffffffffffffffffffff1673ffffffffffffffffffffffffffffffffffffffff166370a08231306040518263ffffffff1660e01b8152600401610dc891906141b2565b602060405180830381865afa158015610de5573d6000803e3d6000fd5b505050506040513d601f19601f82011682018060405250810190610e099190614185565b611958565b836136e790919063ffffffff16565b91508080610e2a906142f0565b915050610cf6565b5060005b6000600f0180549050811015610f7257610f5d610f4e6000600f018381548110610e6357610e62614292565b5b9060005260206000200160009054906101000a900473ffffffffffffffffffffffffffffffffffffffff166000600f018481548110610ea557610ea4614292565b5b9060005260206000200160009054906101000a900473ffffffffffffffffffffffffffffffffffffffff1673ffffffffffffffffffffffffffffffffffffffff166370a08231306040518263ffffffff1660e01b8152600401610f0891906141b2565b602060405180830381865afa158015610f25573d6000803e3d6000fd5b505050506040513d601f19601f82011682018060405250810190610f499190614185565b611958565b836136e790919063ffffffff16565b91508080610f6a906142f0565b915050610e36565b5080600060050181905550807f93bb8edd35984706eee1b92541281f7f62d33c01c5b2ec0929a113603bd21d6660405160405180910390a2807fec691f09f6924b27932253f85caf99bacc30360cc0e50a1cc4d2acc24601446660405160405180910390a250565b610fe26136fd565b600073ffffffffffffffffffffffffffffffffffffffff168373ffffffffffffffffffffffffffffffffffffffff16141561101c57600080fd5b826000800160006101000a81548173ffffffffffffffffffffffffffffffffffffffff021916908373ffffffffffffffffffffffffffffffffffffffff1602179055506001600060070160008473ffffffffffffffffffffffffffffffffffffffff1673ffffffffffffffffffffffffffffffffffffffff16815260200190815260200160002060006101000a81548160ff0219169083151502179055506000600201829080600181540180825580915050600190039060005260206000200160009091909190916101000a81548173ffffffffffffffffffffffffffffffffffffffff021916908373ffffffffffffffffffffffffffffffffffffffff16021790555080600060010181905550505050565b600060200160003373ffffffffffffffffffffffffffffffffffffffff1673ffffffffffffffffffffffffffffffffffffffff16815260200190815260200160002060009054906101000a900460ff166111be576040517f08c379a00000000000000000000000000000000000000000000000000000000081526004016111b590614083565b60405180910390fd5b6111c66107b8565b811115611208576040517f08c379a00000000000000000000000000000000000000000000000000000000081526004016111ff90614150565b60405180910390fd5b6000800160009054906101000a900473ffffffffffffffffffffffffffffffffffffffff1673ffffffffffffffffffffffffffffffffffffffff166340c10f1983836040518363ffffffff1660e01b81526004016112679291906140b2565b600060405180830381600087803b15801561128157600080fd5b505af1158015611295573d6000803e3d6000fd5b505050508173ffffffffffffffffffffffffffffffffffffffff163373ffffffffffffffffffffffffffffffffffffffff167ffa8ccab40e7da8146c2304cd0950334fd30a6ba093abe86261aa13911fed849c836040516112f69190613e31565b60405180910390a35050565b60008060070160008473ffffffffffffffffffffffffffffffffffffffff1673ffffffffffffffffffffffffffffffffffffffff16815260200190815260200160002060009054906101000a900460ff16806113aa5750600060100160008473ffffffffffffffffffffffffffffffffffffffff1673ffffffffffffffffffffffffffffffffffffffff16815260200190815260200160002060009054906101000a900460ff165b6113e9576040517f08c379a00000000000000000000000000000000000000000000000000000000081526004016113e090614017565b60405180910390fd5b6114163330868673ffffffffffffffffffffffffffffffffffffffff16613707909392919063ffffffff16565b600060070160008473ffffffffffffffffffffffffffffffffffffffff1673ffffffffffffffffffffffffffffffffffffffff16815260200190815260200160002060009054906101000a900460ff16156114ff576000600a0160003373ffffffffffffffffffffffffffffffffffffffff1673ffffffffffffffffffffffffffffffffffffffff16815260200190815260200160002060009054906101000a900460ff166114fa576040517f08c379a00000000000000000000000000000000000000000000000000000000081526004016114f190614083565b60405180910390fd5b61158f565b600060130160003373ffffffffffffffffffffffffffffffffffffffff1673ffffffffffffffffffffffffffffffffffffffff16815260200190815260200160002060009054906101000a900460ff1661158e576040517f08c379a000000000000000000000000000000000000000000000000000000000815260040161158590614083565b60405180910390fd5b5b600061159b8486611958565b90506115b0838261364b90919063ffffffff16565b91506000800160009054906101000a900473ffffffffffffffffffffffffffffffffffffffff1673ffffffffffffffffffffffffffffffffffffffff166340c10f1933846040518363ffffffff1660e01b81526004016116119291906140b2565b600060405180830381600087803b15801561162b57600080fd5b505af115801561163f573d6000803e3d6000fd5b5050505061165b816000600501546136e790919063ffffffff16565b6000600501819055506000600501547f93bb8edd35984706eee1b92541281f7f62d33c01c5b2ec0929a113603bd21d6660405160405180910390a28373ffffffffffffffffffffffffffffffffffffffff167f90890809c654f11d6e72a28fa60149770a0d11ec6c92319d6ceb2bb0a4ea1a1586836040516116de9291906140db565b60405180910390a2509392505050565b6000601c0160003373ffffffffffffffffffffffffffffffffffffffff1673ffffffffffffffffffffffffffffffffffffffff16815260200190815260200160002060009054906101000a900460ff1661177d576040517f08c379a000000000000000000000000000000000000000000000000000000000815260040161177490614083565b60405180910390fd5b6000800160009054906101000a900473ffffffffffffffffffffffffffffffffffffffff1673ffffffffffffffffffffffffffffffffffffffff166379cc679033836040518363ffffffff1660e01b81526004016117dc9291906140b2565b600060405180830381600087803b1580156117f657600080fd5b505af115801561180a573d6000803e3d6000fd5b50505050611863816000601e0160003373ffffffffffffffffffffffffffffffffffffffff1673ffffffffffffffffffffffffffffffffffffffff1681526020019081526020016000205461364b90919063ffffffff16565b6000601e0160003373ffffffffffffffffffffffffffffffffffffffff1673ffffffffffffffffffffffffffffffffffffffff168152602001908152602001600020819055506118c18160006006015461364b90919063ffffffff16565b6000600601819055506000800160009054906101000a900473ffffffffffffffffffffffffffffffffffffffff1673ffffffffffffffffffffffffffffffffffffffff163373ffffffffffffffffffffffffffffffffffffffff167fc6d98eecfc9c78ab62c89a82950079b54874749f1f6f24090f7acc758bc2f309838460405161194d9291906140db565b60405180910390a350565b60008060070160008473ffffffffffffffffffffffffffffffffffffffff1673ffffffffffffffffffffffffffffffffffffffff16815260200190815260200160002060009054906101000a900460ff1615611af257611aeb8373ffffffffffffffffffffffffffffffffffffffff1663313ce5676040518163ffffffff1660e01b8152600401602060405180830381865afa1580156119fc573d6000803e3d6000fd5b505050506040513d601f19601f82011682018060405250810190611a209190614185565b600a611a2c919061446c565b611add6000800160009054906101000a900473ffffffffffffffffffffffffffffffffffffffff1673ffffffffffffffffffffffffffffffffffffffff1663313ce5676040518163ffffffff1660e01b8152600401602060405180830381865afa158015611a9e573d6000803e3d6000fd5b505050506040513d601f19601f82011682018060405250810190611ac29190614185565b600a611ace919061446c565b8561379090919063ffffffff16565b6137a690919063ffffffff16565b9050611bc7565b600060100160008473ffffffffffffffffffffffffffffffffffffffff1673ffffffffffffffffffffffffffffffffffffffff16815260200190815260200160002060009054906101000a900460ff1615611bc6573073ffffffffffffffffffffffffffffffffffffffff16634249719f84846040518363ffffffff1660e01b8152600401611b829291906140b2565b602060405180830381865afa158015611b9f573d6000803e3d6000fd5b505050506040513d601f19601f82011682018060405250810190611bc39190614185565b90505b5b92915050565b6000611bd76136fd565b600073ffffffffffffffffffffffffffffffffffffffff168273ffffffffffffffffffffffffffffffffffffffff161415611c1157600080fd5b6000806009811115611c2657611c256144b7565b5b846009811115611c3957611c386144b7565b5b1415611dca57611c526000600b016000600a01856137bc565b15611d1857600080600b0160008573ffffffffffffffffffffffffffffffffffffffff1673ffffffffffffffffffffffffffffffffffffffff16815260200190815260200160002081905550611cac600060090184613926565b611d17576000600901839080600181540180825580915050600190039060005260206000200160009091909190916101000a81548173ffffffffffffffffffffffffffffffffffffffff021916908373ffffffffffffffffffffffffffffffffffffffff1602179055505b5b6000600a0160008473ffffffffffffffffffffffffffffffffffffffff1673ffffffffffffffffffffffffffffffffffffffff16815260200190815260200160002060009054906101000a900460ff16159050806000600a0160008573ffffffffffffffffffffffffffffffffffffffff1673ffffffffffffffffffffffffffffffffffffffff16815260200190815260200160002060006101000a81548160ff021916908315150217905550612cec565b60016009811115611dde57611ddd6144b7565b5b846009811115611df157611df06144b7565b5b1415611f8257611e0a6000600e016000600d01856137bc565b15611ed057600080600e0160008573ffffffffffffffffffffffffffffffffffffffff1673ffffffffffffffffffffffffffffffffffffffff16815260200190815260200160002081905550611e646000600c0184613926565b611ecf576000600c01839080600181540180825580915050600190039060005260206000200160009091909190916101000a81548173ffffffffffffffffffffffffffffffffffffffff021916908373ffffffffffffffffffffffffffffffffffffffff1602179055505b5b6000600d0160008473ffffffffffffffffffffffffffffffffffffffff1673ffffffffffffffffffffffffffffffffffffffff16815260200190815260200160002060009054906101000a900460ff16159050806000600d0160008573ffffffffffffffffffffffffffffffffffffffff1673ffffffffffffffffffffffffffffffffffffffff16815260200190815260200160002060006101000a81548160ff021916908315150217905550612ceb565b60026009811115611f9657611f956144b7565b5b846009811115611fa957611fa86144b7565b5b141561213a57611fc260006008016000600701856137bc565b156120885760008060080160008573ffffffffffffffffffffffffffffffffffffffff1673ffffffffffffffffffffffffffffffffffffffff1681526020019081526020016000208190555061201c600060020184613926565b612087576000600201839080600181540180825580915050600190039060005260206000200160009091909190916101000a81548173ffffffffffffffffffffffffffffffffffffffff021916908373ffffffffffffffffffffffffffffffffffffffff1602179055505b5b600060070160008473ffffffffffffffffffffffffffffffffffffffff1673ffffffffffffffffffffffffffffffffffffffff16815260200190815260200160002060009054906101000a900460ff1615905080600060070160008573ffffffffffffffffffffffffffffffffffffffff1673ffffffffffffffffffffffffffffffffffffffff16815260200190815260200160002060006101000a81548160ff021916908315150217905550612cea565b6003600981111561214e5761214d6144b7565b5b846009811115612161576121606144b7565b5b14156123585761217a60006017016000601601856137bc565b156122a6576000601501839080600181540180825580915050600190039060005260206000200160009091909190916101000a81548173ffffffffffffffffffffffffffffffffffffffff021916908373ffffffffffffffffffffffffffffffffffffffff16021790555060008060170160008573ffffffffffffffffffffffffffffffffffffffff1673ffffffffffffffffffffffffffffffffffffffff1681526020019081526020016000208190555061223a600060150184613926565b6122a5576000601501839080600181540180825580915050600190039060005260206000200160009091909190916101000a81548173ffffffffffffffffffffffffffffffffffffffff021916908373ffffffffffffffffffffffffffffffffffffffff1602179055505b5b600060160160008473ffffffffffffffffffffffffffffffffffffffff1673ffffffffffffffffffffffffffffffffffffffff16815260200190815260200160002060009054906101000a900460ff1615905080600060160160008573ffffffffffffffffffffffffffffffffffffffff1673ffffffffffffffffffffffffffffffffffffffff16815260200190815260200160002060006101000a81548160ff021916908315150217905550612ce9565b6004600981111561236c5761236b6144b7565b5b84600981111561237f5761237e6144b7565b5b14156125765761239860006014016000601301856137bc565b156124c4576000601201839080600181540180825580915050600190039060005260206000200160009091909190916101000a81548173ffffffffffffffffffffffffffffffffffffffff021916908373ffffffffffffffffffffffffffffffffffffffff16021790555060008060140160008573ffffffffffffffffffffffffffffffffffffffff1673ffffffffffffffffffffffffffffffffffffffff16815260200190815260200160002081905550612458600060120184613926565b6124c3576000601201839080600181540180825580915050600190039060005260206000200160009091909190916101000a81548173ffffffffffffffffffffffffffffffffffffffff021916908373ffffffffffffffffffffffffffffffffffffffff1602179055505b5b600060130160008473ffffffffffffffffffffffffffffffffffffffff1673ffffffffffffffffffffffffffffffffffffffff16815260200190815260200160002060009054906101000a900460ff1615905080600060130160008573ffffffffffffffffffffffffffffffffffffffff1673ffffffffffffffffffffffffffffffffffffffff16815260200190815260200160002060006101000a81548160ff021916908315150217905550612ce8565b6005600981111561258a576125896144b7565b5b84600981111561259d5761259c6144b7565b5b141561272e576125b660006011016000601001856137bc565b1561267c5760008060110160008573ffffffffffffffffffffffffffffffffffffffff1673ffffffffffffffffffffffffffffffffffffffff168152602001908152602001600020819055506126106000600f0184613926565b61267b576000600f01839080600181540180825580915050600190039060005260206000200160009091909190916101000a81548173ffffffffffffffffffffffffffffffffffffffff021916908373ffffffffffffffffffffffffffffffffffffffff1602179055505b5b600060100160008473ffffffffffffffffffffffffffffffffffffffff1673ffffffffffffffffffffffffffffffffffffffff16815260200190815260200160002060009054906101000a900460ff1615905080600060100160008573ffffffffffffffffffffffffffffffffffffffff1673ffffffffffffffffffffffffffffffffffffffff16815260200190815260200160002060006101000a81548160ff021916908315150217905550612ce7565b60066009811115612742576127416144b7565b5b846009811115612755576127546144b7565b5b14156128e65761276e6000601a016000601901856137bc565b1561283457600080601a0160008573ffffffffffffffffffffffffffffffffffffffff1673ffffffffffffffffffffffffffffffffffffffff168152602001908152602001600020819055506127c8600060180184613926565b612833576000601801839080600181540180825580915050600190039060005260206000200160009091909190916101000a81548173ffffffffffffffffffffffffffffffffffffffff021916908373ffffffffffffffffffffffffffffffffffffffff1602179055505b5b600060190160008473ffffffffffffffffffffffffffffffffffffffff1673ffffffffffffffffffffffffffffffffffffffff16815260200190815260200160002060009054906101000a900460ff1615905080600060190160008573ffffffffffffffffffffffffffffffffffffffff1673ffffffffffffffffffffffffffffffffffffffff16815260200190815260200160002060006101000a81548160ff021916908315150217905550612ce6565b600760098111156128fa576128f96144b7565b5b84600981111561290d5761290c6144b7565b5b1415612a9e576129266000601d016000601c01856137bc565b156129ec57600080601d0160008573ffffffffffffffffffffffffffffffffffffffff1673ffffffffffffffffffffffffffffffffffffffff168152602001908152602001600020819055506129806000601b0184613926565b6129eb576000601b01839080600181540180825580915050600190039060005260206000200160009091909190916101000a81548173ffffffffffffffffffffffffffffffffffffffff021916908373ffffffffffffffffffffffffffffffffffffffff1602179055505b5b6000601c0160008473ffffffffffffffffffffffffffffffffffffffff1673ffffffffffffffffffffffffffffffffffffffff16815260200190815260200160002060009054906101000a900460ff16159050806000601c0160008573ffffffffffffffffffffffffffffffffffffffff1673ffffffffffffffffffffffffffffffffffffffff16815260200190815260200160002060006101000a81548160ff021916908315150217905550612ce5565b60086009811115612ab257612ab16144b7565b5b846009811115612ac557612ac46144b7565b5b1415612c5657612ade60006021016000602001856137bc565b15612ba45760008060210160008573ffffffffffffffffffffffffffffffffffffffff1673ffffffffffffffffffffffffffffffffffffffff16815260200190815260200160002081905550612b386000601f0184613926565b612ba3576000601f01839080600181540180825580915050600190039060005260206000200160009091909190916101000a81548173ffffffffffffffffffffffffffffffffffffffff021916908373ffffffffffffffffffffffffffffffffffffffff1602179055505b5b600060200160008473ffffffffffffffffffffffffffffffffffffffff1673ffffffffffffffffffffffffffffffffffffffff16815260200190815260200160002060009054906101000a900460ff1615905080600060200160008573ffffffffffffffffffffffffffffffffffffffff1673ffffffffffffffffffffffffffffffffffffffff16815260200190815260200160002060006101000a81548160ff021916908315150217905550612ce4565b600980811115612c6957612c686144b7565b5b846009811115612c7c57612c7b6144b7565b5b1415612cd9576000806004018190555082600060030160006101000a81548173ffffffffffffffffffffffffffffffffffffffff021916908373ffffffffffffffffffffffffffffffffffffffff16021790555060019050612ce3565b6000915050612d3e565b5b5b5b5b5b5b5b5b5b836009811115612cff57612cfe6144b7565b5b7f0dcacb7e392f3d6a216ed2660e3dcfd40b7793d33591db2ba185a6b8e44fc4778483604051612d309291906144e6565b60405180910390a260019150505b92915050565b6000601c0160003373ffffffffffffffffffffffffffffffffffffffff1673ffffffffffffffffffffffffffffffffffffffff16815260200190815260200160002060009054906101000a900460ff16612dd3576040517f08c379a0000000000000000000000000000000000000000000000000000000008152600401612dca90614083565b60405180910390fd5b600060070160008273ffffffffffffffffffffffffffffffffffffffff1673ffffffffffffffffffffffffffffffffffffffff16815260200190815260200160002060009054906101000a900460ff16612e62576040517f08c379a0000000000000000000000000000000000000000000000000000000008152600401612e5990614017565b60405180910390fd5b612e8f3330848473ffffffffffffffffffffffffffffffffffffffff16613707909392919063ffffffff16565b6000612e9b8284611958565b9050612ef2816000601e0160003373ffffffffffffffffffffffffffffffffffffffff1673ffffffffffffffffffffffffffffffffffffffff1681526020019081526020016000205461364b90919063ffffffff16565b6000601e0160003373ffffffffffffffffffffffffffffffffffffffff1673ffffffffffffffffffffffffffffffffffffffff16815260200190815260200160002081905550612f508160006006015461364b90919063ffffffff16565b600060060181905550612f71816000600501546136e790919063ffffffff16565b6000600501819055506000600501547f93bb8edd35984706eee1b92541281f7f62d33c01c5b2ec0929a113603bd21d6660405160405180910390a28173ffffffffffffffffffffffffffffffffffffffff163373ffffffffffffffffffffffffffffffffffffffff167fc6d98eecfc9c78ab62c89a82950079b54874749f1f6f24090f7acc758bc2f309858460405161300b9291906140db565b60405180910390a3505050565b60006130226136fd565b600073ffffffffffffffffffffffffffffffffffffffff168273ffffffffffffffffffffffffffffffffffffffff16141561305c57600080fd5b600060098111156130705761306f6144b7565b5b836009811115613083576130826144b7565b5b14156130ec576130a1600060010154436136e790919063ffffffff16565b6000600b0160008473ffffffffffffffffffffffffffffffffffffffff1673ffffffffffffffffffffffffffffffffffffffff168152602001908152602001600020819055506135f6565b60016009811115613100576130ff6144b7565b5b836009811115613113576131126144b7565b5b141561317c57613131600060010154436136e790919063ffffffff16565b6000600e0160008473ffffffffffffffffffffffffffffffffffffffff1673ffffffffffffffffffffffffffffffffffffffff168152602001908152602001600020819055506135f5565b600260098111156131905761318f6144b7565b5b8360098111156131a3576131a26144b7565b5b141561320c576131c1600060010154436136e790919063ffffffff16565b600060080160008473ffffffffffffffffffffffffffffffffffffffff1673ffffffffffffffffffffffffffffffffffffffff168152602001908152602001600020819055506135f4565b600360098111156132205761321f6144b7565b5b836009811115613233576132326144b7565b5b14156132af57613264613255600260006001015461379090919063ffffffff16565b436136e790919063ffffffff16565b600060170160008473ffffffffffffffffffffffffffffffffffffffff1673ffffffffffffffffffffffffffffffffffffffff168152602001908152602001600020819055506135f3565b600460098111156132c3576132c26144b7565b5b8360098111156132d6576132d56144b7565b5b141561333f576132f4600060010154436136e790919063ffffffff16565b600060140160008473ffffffffffffffffffffffffffffffffffffffff1673ffffffffffffffffffffffffffffffffffffffff168152602001908152602001600020819055506135f2565b60056009811115613353576133526144b7565b5b836009811115613366576133656144b7565b5b14156133cf57613384600060010154436136e790919063ffffffff16565b600060110160008473ffffffffffffffffffffffffffffffffffffffff1673ffffffffffffffffffffffffffffffffffffffff168152602001908152602001600020819055506135f1565b600660098111156133e3576133e26144b7565b5b8360098111156133f6576133f56144b7565b5b141561347257613427613418600260006001015461379090919063ffffffff16565b436136e790919063ffffffff16565b6000601a0160008473ffffffffffffffffffffffffffffffffffffffff1673ffffffffffffffffffffffffffffffffffffffff168152602001908152602001600020819055506135f0565b60076009811115613486576134856144b7565b5b836009811115613499576134986144b7565b5b1415613502576134b7600060010154436136e790919063ffffffff16565b6000601d0160008473ffffffffffffffffffffffffffffffffffffffff1673ffffffffffffffffffffffffffffffffffffffff168152602001908152602001600020819055506135ef565b60086009811115613516576135156144b7565b5b836009811115613529576135286144b7565b5b141561359257613547600060010154436136e790919063ffffffff16565b600060210160008473ffffffffffffffffffffffffffffffffffffffff1673ffffffffffffffffffffffffffffffffffffffff168152602001908152602001600020819055506135ee565b6009808111156135a5576135a46144b7565b5b8360098111156135b8576135b76144b7565b5b14156135e4576135d6600060010154436136e790919063ffffffff16565b6000600401819055506135ed565b60009050613645565b5b5b5b5b5b5b5b5b5b826009811115613609576136086144b7565b5b7f0e4f2c4b5bc209d509bc3d49348c787fefadc66a79351b470599ac0f5be52eaf8360405161363891906141b2565b60405180910390a2600190505b92915050565b60008183613659919061450f565b905092915050565b6136e28363a9059cbb60e01b84846040516024016136809291906140b2565b604051602081830303815290604052907bffffffffffffffffffffffffffffffffffffffffffffffffffffffff19166020820180517bffffffffffffffffffffffffffffffffffffffffffffffffffffffff83818316178352505050506139d4565b505050565b600081836136f59190614543565b905092915050565b613705613a9b565b565b61378a846323b872dd60e01b85858560405160240161372893929190614599565b604051602081830303815290604052907bffffffffffffffffffffffffffffffffffffffffffffffffffffffff19166020820180517bffffffffffffffffffffffffffffffffffffffffffffffffffffffff83818316178352505050506139d4565b50505050565b6000818361379e91906145d0565b905092915050565b600081836137b49190614659565b905092915050565b60008260008373ffffffffffffffffffffffffffffffffffffffff1673ffffffffffffffffffffffffffffffffffffffff16815260200190815260200160002060009054906101000a900460ff1661391a5760008460008473ffffffffffffffffffffffffffffffffffffffff1673ffffffffffffffffffffffffffffffffffffffff168152602001908152602001600020541415613890576040517f08c379a0000000000000000000000000000000000000000000000000000000008152600401613887906146d6565b60405180910390fd5b438460008473ffffffffffffffffffffffffffffffffffffffff1673ffffffffffffffffffffffffffffffffffffffff168152602001908152602001600020541115613911576040517f08c379a000000000000000000000000000000000000000000000000000000000815260040161390890614742565b60405180910390fd5b6001905061391f565b600090505b9392505050565b600080600090505b83805490508110156139c8578273ffffffffffffffffffffffffffffffffffffffff1684828154811061396457613963614292565b5b9060005260206000200160009054906101000a900473ffffffffffffffffffffffffffffffffffffffff1673ffffffffffffffffffffffffffffffffffffffff1614156139b55760019150506139ce565b80806139c0906142f0565b91505061392e565b50600090505b92915050565b6000613a36826040518060400160405280602081526020017f5361666545524332303a206c6f772d6c6576656c2063616c6c206661696c65648152508573ffffffffffffffffffffffffffffffffffffffff16613b369092919063ffffffff16565b9050600081511115613a965780806020019051810190613a569190614265565b613a95576040517f08c379a0000000000000000000000000000000000000000000000000000000008152600401613a8c906147d4565b60405180910390fd5b5b505050565b613aa3613b4e565b60040160009054906101000a900473ffffffffffffffffffffffffffffffffffffffff1673ffffffffffffffffffffffffffffffffffffffff163373ffffffffffffffffffffffffffffffffffffffff1614613b34576040517f08c379a0000000000000000000000000000000000000000000000000000000008152600401613b2b90614866565b60405180910390fd5b565b6060613b458484600085613b7b565b90509392505050565b6000807fc8fcad8db84d3cc18b4c41d551ea0ee66dd599cde068d998e57d5e09332c131c90508091505090565b606082471015613bc0576040517f08c379a0000000000000000000000000000000000000000000000000000000008152600401613bb7906148f8565b60405180910390fd5b613bc985613c8f565b613c08576040517f08c379a0000000000000000000000000000000000000000000000000000000008152600401613bff90614964565b60405180910390fd5b6000808673ffffffffffffffffffffffffffffffffffffffff168587604051613c3191906149fe565b60006040518083038185875af1925050503d8060008114613c6e576040519150601f19603f3d011682016040523d82523d6000602084013e613c73565b606091505b5091509150613c83828286613ca2565b92505050949350505050565b600080823b905060008111915050919050565b60608315613cb257829050613d02565b600083511115613cc55782518084602001fd5b816040517f08c379a0000000000000000000000000000000000000000000000000000000008152600401613cf99190614a6a565b60405180910390fd5b9392505050565b600080fd5b6000819050919050565b613d2181613d0e565b8114613d2c57600080fd5b50565b600081359050613d3e81613d18565b92915050565b600073ffffffffffffffffffffffffffffffffffffffff82169050919050565b6000613d6f82613d44565b9050919050565b613d7f81613d64565b8114613d8a57600080fd5b50565b600081359050613d9c81613d76565b92915050565b60008060408385031215613db957613db8613d09565b5b6000613dc785828601613d2f565b9250506020613dd885828601613d8d565b9150509250929050565b60008060408385031215613df957613df8613d09565b5b6000613e0785828601613d8d565b9250506020613e1885828601613d2f565b9150509250929050565b613e2b81613d0e565b82525050565b6000602082019050613e466000830184613e22565b92915050565b600080600060608486031215613e6557613e64613d09565b5b6000613e7386828701613d8d565b9350506020613e8486828701613d8d565b9250506040613e9586828701613d2f565b9150509250925092565b600080600060608486031215613eb857613eb7613d09565b5b6000613ec686828701613d2f565b9350506020613ed786828701613d8d565b9250506040613ee886828701613d2f565b9150509250925092565b600060208284031215613f0857613f07613d09565b5b6000613f1684828501613d2f565b91505092915050565b600a8110613f2c57600080fd5b50565b600081359050613f3e81613f1f565b92915050565b60008060408385031215613f5b57613f5a613d09565b5b6000613f6985828601613f2f565b9250506020613f7a85828601613d8d565b9150509250929050565b60008115159050919050565b613f9981613f84565b82525050565b6000602082019050613fb46000830184613f90565b92915050565b600082825260208201905092915050565b7f54726561737572793a204e6f7420616363657074656400000000000000000000600082015250565b6000614001601683613fba565b915061400c82613fcb565b602082019050919050565b6000602082019050818103600083015261403081613ff4565b9050919050565b7f54726561737572793a204e6f7420617070726f76656400000000000000000000600082015250565b600061406d601683613fba565b915061407882614037565b602082019050919050565b6000602082019050818103600083015261409c81614060565b9050919050565b6140ac81613d64565b82525050565b60006040820190506140c760008301856140a3565b6140d46020830184613e22565b9392505050565b60006040820190506140f06000830185613e22565b6140fd6020830184613e22565b9392505050565b7f54726561737572793a20496e73756666696369656e7420726573657276657300600082015250565b600061413a601f83613fba565b915061414582614104565b602082019050919050565b600060208201905081810360008301526141698161412d565b9050919050565b60008151905061417f81613d18565b92915050565b60006020828403121561419b5761419a613d09565b5b60006141a984828501614170565b91505092915050565b60006020820190506141c760008301846140a3565b92915050565b7f457863656564732064656274206c696d69740000000000000000000000000000600082015250565b6000614203601283613fba565b915061420e826141cd565b602082019050919050565b60006020820190508181036000830152614232816141f6565b9050919050565b61424281613f84565b811461424d57600080fd5b50565b60008151905061425f81614239565b92915050565b60006020828403121561427b5761427a613d09565b5b600061428984828501614250565b91505092915050565b7f4e487b7100000000000000000000000000000000000000000000000000000000600052603260045260246000fd5b7f4e487b7100000000000000000000000000000000000000000000000000000000600052601160045260246000fd5b60006142fb82613d0e565b91507fffffffffffffffffffffffffffffffffffffffffffffffffffffffffffffffff82141561432e5761432d6142c1565b5b600182019050919050565b60008160011c9050919050565b6000808291508390505b60018511156143905780860481111561436c5761436b6142c1565b5b600185161561437b5780820291505b808102905061438985614339565b9450614350565b94509492505050565b6000826143a95760019050614465565b816143b75760009050614465565b81600181146143cd57600281146143d757614406565b6001915050614465565b60ff8411156143e9576143e86142c1565b5b8360020a915084821115614400576143ff6142c1565b5b50614465565b5060208310610133831016604e8410600b841016171561443b5782820a905083811115614436576144356142c1565b5b614465565b6144488484846001614346565b9250905081840481111561445f5761445e6142c1565b5b81810290505b9392505050565b600061447782613d0e565b915061448283613d0e565b92506144af7fffffffffffffffffffffffffffffffffffffffffffffffffffffffffffffffff8484614399565b905092915050565b7f4e487b7100000000000000000000000000000000000000000000000000000000600052602160045260246000fd5b60006040820190506144fb60008301856140a3565b6145086020830184613f90565b9392505050565b600061451a82613d0e565b915061452583613d0e565b925082821015614538576145376142c1565b5b828203905092915050565b600061454e82613d0e565b915061455983613d0e565b9250827fffffffffffffffffffffffffffffffffffffffffffffffffffffffffffffffff0382111561458e5761458d6142c1565b5b828201905092915050565b60006060820190506145ae60008301866140a3565b6145bb60208301856140a3565b6145c86040830184613e22565b949350505050565b60006145db82613d0e565b91506145e683613d0e565b9250817fffffffffffffffffffffffffffffffffffffffffffffffffffffffffffffffff048311821515161561461f5761461e6142c1565b5b828202905092915050565b7f4e487b7100000000000000000000000000000000000000000000000000000000600052601260045260246000fd5b600061466482613d0e565b915061466f83613d0e565b92508261467f5761467e61462a565b5b828204905092915050565b7f4d75737420717565756500000000000000000000000000000000000000000000600082015250565b60006146c0600a83613fba565b91506146cb8261468a565b602082019050919050565b600060208201905081810360008301526146ef816146b3565b9050919050565b7f5175657565206e6f742065787069726564000000000000000000000000000000600082015250565b600061472c601183613fba565b9150614737826146f6565b602082019050919050565b6000602082019050818103600083015261475b8161471f565b9050919050565b7f5361666545524332303a204552433230206f7065726174696f6e20646964206e60008201527f6f74207375636365656400000000000000000000000000000000000000000000602082015250565b60006147be602a83613fba565b91506147c982614762565b604082019050919050565b600060208201905081810360008301526147ed816147b1565b9050919050565b7f4c69624469616d6f6e643a20696e76616c696420636f6e7472616374206f776e60008201527f6572000000000000000000000000000000000000000000000000000000000000602082015250565b6000614850602283613fba565b915061485b826147f4565b604082019050919050565b6000602082019050818103600083015261487f81614843565b9050919050565b7f416464726573733a20696e73756666696369656e742062616c616e636520666f60008201527f722063616c6c0000000000000000000000000000000000000000000000000000602082015250565b60006148e2602683613fba565b91506148ed82614886565b604082019050919050565b60006020820190508181036000830152614911816148d5565b9050919050565b7f416464726573733a2063616c6c20746f206e6f6e2d636f6e7472616374000000600082015250565b600061494e601d83613fba565b915061495982614918565b602082019050919050565b6000602082019050818103600083015261497d81614941565b9050919050565b600081519050919050565b600081905092915050565b60005b838110156149b857808201518184015260208101905061499d565b838111156149c7576000848401525b50505050565b60006149d882614984565b6149e2818561498f565b93506149f281856020860161499a565b80840191505092915050565b6000614a0a82846149cd565b915081905092915050565b600081519050919050565b6000601f19601f8301169050919050565b6000614a3c82614a15565b614a468185613fba565b9350614a5681856020860161499a565b614a5f81614a20565b840191505092915050565b60006020820190508181036000830152614a848184614a31565b90509291505056fea2646970667358221220f27d274adb7c6f31272c78b10cff781150d6cc24b2cc4711b325c55e95e184c164736f6c634300080a0033",
  "linkReferences": {},
  "deployedLinkReferences": {}
}