{
  "_format": "hh-sol-artifact-1",
  "contractName": "VaultFacet",
  "sourceName": "contracts/facets/Vault/VaultFacet.sol",
  "abi": [
    {
      "anonymous": false,
      "inputs": [
        {
          "indexed": false,
          "internalType": "bytes32",
          "name": "key",
          "type": "bytes32"
        },
        {
          "indexed": false,
          "internalType": "uint256",
          "name": "size",
          "type": "uint256"
        },
        {
          "indexed": false,
          "internalType": "uint256",
          "name": "collateral",
          "type": "uint256"
        },
        {
          "indexed": false,
          "internalType": "uint256",
          "name": "averagePrice",
          "type": "uint256"
        },
        {
          "indexed": false,
          "internalType": "uint256",
          "name": "entryFundingRate",
          "type": "uint256"
        },
        {
          "indexed": false,
          "internalType": "uint256",
          "name": "reserveAmount",
          "type": "uint256"
        },
        {
          "indexed": false,
          "internalType": "int256",
          "name": "realisedPnl",
          "type": "int256"
        }
      ],
      "name": "ClosePosition",
      "type": "event"
    },
    {
      "anonymous": false,
      "inputs": [
        {
          "indexed": false,
          "internalType": "bytes32",
          "name": "key",
          "type": "bytes32"
        },
        {
          "indexed": false,
          "internalType": "address",
          "name": "account",
          "type": "address"
        },
        {
          "indexed": false,
          "internalType": "address",
          "name": "collateralToken",
          "type": "address"
        },
        {
          "indexed": false,
          "internalType": "address",
          "name": "indexToken",
          "type": "address"
        },
        {
          "indexed": false,
          "internalType": "uint256",
          "name": "collateralDelta",
          "type": "uint256"
        },
        {
          "indexed": false,
          "internalType": "uint256",
          "name": "sizeDelta",
          "type": "uint256"
        },
        {
          "indexed": false,
          "internalType": "bool",
          "name": "isLong",
          "type": "bool"
        },
        {
          "indexed": false,
          "internalType": "uint256",
          "name": "price",
          "type": "uint256"
        },
        {
          "indexed": false,
          "internalType": "uint256",
          "name": "fee",
          "type": "uint256"
        }
      ],
      "name": "DecreasePosition",
      "type": "event"
    },
    {
      "anonymous": false,
      "inputs": [
        {
          "indexed": false,
          "internalType": "bytes32",
          "name": "key",
          "type": "bytes32"
        },
        {
          "indexed": false,
          "internalType": "address",
          "name": "account",
          "type": "address"
        },
        {
          "indexed": false,
          "internalType": "address",
          "name": "collateralToken",
          "type": "address"
        },
        {
          "indexed": false,
          "internalType": "address",
          "name": "indexToken",
          "type": "address"
        },
        {
          "indexed": false,
          "internalType": "uint256",
          "name": "collateralDelta",
          "type": "uint256"
        },
        {
          "indexed": false,
          "internalType": "uint256",
          "name": "sizeDelta",
          "type": "uint256"
        },
        {
          "indexed": false,
          "internalType": "bool",
          "name": "isLong",
          "type": "bool"
        },
        {
          "indexed": false,
          "internalType": "uint256",
          "name": "price",
          "type": "uint256"
        },
        {
          "indexed": false,
          "internalType": "uint256",
          "name": "fee",
          "type": "uint256"
        }
      ],
      "name": "IncreasePosition",
      "type": "event"
    },
    {
      "anonymous": false,
      "inputs": [
        {
          "indexed": false,
          "internalType": "bytes32",
          "name": "key",
          "type": "bytes32"
        },
        {
          "indexed": false,
          "internalType": "address",
          "name": "account",
          "type": "address"
        },
        {
          "indexed": false,
          "internalType": "address",
          "name": "collateralToken",
          "type": "address"
        },
        {
          "indexed": false,
          "internalType": "address",
          "name": "indexToken",
          "type": "address"
        },
        {
          "indexed": false,
          "internalType": "bool",
          "name": "isLong",
          "type": "bool"
        },
        {
          "indexed": false,
          "internalType": "uint256",
          "name": "size",
          "type": "uint256"
        },
        {
          "indexed": false,
          "internalType": "uint256",
          "name": "collateral",
          "type": "uint256"
        },
        {
          "indexed": false,
          "internalType": "uint256",
          "name": "reserveAmount",
          "type": "uint256"
        },
        {
          "indexed": false,
          "internalType": "int256",
          "name": "realisedPnl",
          "type": "int256"
        },
        {
          "indexed": false,
          "internalType": "uint256",
          "name": "markPrice",
          "type": "uint256"
        }
      ],
      "name": "LiquidatePosition",
      "type": "event"
    },
    {
      "anonymous": false,
      "inputs": [
        {
          "indexed": false,
          "internalType": "bytes32",
          "name": "key",
          "type": "bytes32"
        },
        {
          "indexed": false,
          "internalType": "uint256",
          "name": "size",
          "type": "uint256"
        },
        {
          "indexed": false,
          "internalType": "uint256",
          "name": "collateral",
          "type": "uint256"
        },
        {
          "indexed": false,
          "internalType": "uint256",
          "name": "averagePrice",
          "type": "uint256"
        },
        {
          "indexed": false,
          "internalType": "uint256",
          "name": "entryFundingRate",
          "type": "uint256"
        },
        {
          "indexed": false,
          "internalType": "uint256",
          "name": "reserveAmount",
          "type": "uint256"
        },
        {
          "indexed": false,
          "internalType": "int256",
          "name": "realisedPnl",
          "type": "int256"
        }
      ],
      "name": "UpdatePosition",
      "type": "event"
    },
    {
      "inputs": [
        {
          "internalType": "address",
          "name": "_token",
          "type": "address"
        }
      ],
      "name": "cumulativeFundingRates",
      "outputs": [
        {
          "internalType": "uint256",
          "name": "",
          "type": "uint256"
        }
      ],
      "stateMutability": "view",
      "type": "function"
    },
    {
      "inputs": [
        {
          "internalType": "address",
          "name": "_account",
          "type": "address"
        },
        {
          "internalType": "address",
          "name": "_collateralToken",
          "type": "address"
        },
        {
          "internalType": "address",
          "name": "_indexToken",
          "type": "address"
        },
        {
          "internalType": "uint256",
          "name": "_collateralDelta",
          "type": "uint256"
        },
        {
          "internalType": "uint256",
          "name": "_sizeDelta",
          "type": "uint256"
        },
        {
          "internalType": "bool",
          "name": "_isLong",
          "type": "bool"
        },
        {
          "internalType": "address",
          "name": "_receiver",
          "type": "address"
        }
      ],
      "name": "decreasePosition",
      "outputs": [
        {
          "internalType": "uint256",
          "name": "",
          "type": "uint256"
        }
      ],
      "stateMutability": "nonpayable",
      "type": "function"
    },
    {
      "inputs": [],
      "name": "fundingInterval",
      "outputs": [
        {
          "internalType": "uint256",
          "name": "",
          "type": "uint256"
        }
      ],
      "stateMutability": "pure",
      "type": "function"
    },
    {
      "inputs": [],
      "name": "fundingRateFactor",
      "outputs": [
        {
          "internalType": "uint256",
          "name": "",
          "type": "uint256"
        }
      ],
      "stateMutability": "pure",
      "type": "function"
    },
    {
      "inputs": [
        {
          "internalType": "address",
          "name": "_indexToken",
          "type": "address"
        },
        {
          "internalType": "uint256",
          "name": "_size",
          "type": "uint256"
        },
        {
          "internalType": "uint256",
          "name": "_averagePrice",
          "type": "uint256"
        },
        {
          "internalType": "bool",
          "name": "_isLong",
          "type": "bool"
        },
        {
          "internalType": "uint256",
          "name": "_lastIncreasedTime",
          "type": "uint256"
        }
      ],
      "name": "getDelta",
      "outputs": [
        {
          "internalType": "bool",
          "name": "",
          "type": "bool"
        },
        {
          "internalType": "uint256",
          "name": "",
          "type": "uint256"
        }
      ],
      "stateMutability": "view",
      "type": "function"
    },
    {
      "inputs": [
        {
          "internalType": "address",
          "name": "_token",
          "type": "address"
        },
        {
          "internalType": "uint256",
          "name": "_size",
          "type": "uint256"
        },
        {
          "internalType": "uint256",
          "name": "_entryFundingRate",
          "type": "uint256"
        }
      ],
      "name": "getFundingFee",
      "outputs": [
        {
          "internalType": "uint256",
          "name": "",
          "type": "uint256"
        }
      ],
      "stateMutability": "view",
      "type": "function"
    },
    {
      "inputs": [
        {
          "internalType": "address",
          "name": "_indexToken",
          "type": "address"
        },
        {
          "internalType": "uint256",
          "name": "_size",
          "type": "uint256"
        },
        {
          "internalType": "uint256",
          "name": "_averagePrice",
          "type": "uint256"
        },
        {
          "internalType": "bool",
          "name": "_isLong",
          "type": "bool"
        },
        {
          "internalType": "uint256",
          "name": "_nextPrice",
          "type": "uint256"
        },
        {
          "internalType": "uint256",
          "name": "_sizeDelta",
          "type": "uint256"
        },
        {
          "internalType": "uint256",
          "name": "_lastIncreasedTime",
          "type": "uint256"
        }
      ],
      "name": "getNextAveragePrice",
      "outputs": [
        {
          "internalType": "uint256",
          "name": "",
          "type": "uint256"
        }
      ],
      "stateMutability": "view",
      "type": "function"
    },
    {
      "inputs": [
        {
          "internalType": "address",
          "name": "_token",
          "type": "address"
        }
      ],
      "name": "getNextFundingRate",
      "outputs": [
        {
          "internalType": "uint256",
          "name": "",
          "type": "uint256"
        }
      ],
      "stateMutability": "view",
      "type": "function"
    },
    {
      "inputs": [
        {
          "internalType": "address",
          "name": "_account",
          "type": "address"
        },
        {
          "internalType": "address",
          "name": "_collateralToken",
          "type": "address"
        },
        {
          "internalType": "address",
          "name": "_indexToken",
          "type": "address"
        },
        {
          "internalType": "bool",
          "name": "_isLong",
          "type": "bool"
        }
      ],
      "name": "getPosition",
      "outputs": [
        {
          "internalType": "uint256",
          "name": "",
          "type": "uint256"
        },
        {
          "internalType": "uint256",
          "name": "",
          "type": "uint256"
        },
        {
          "internalType": "uint256",
          "name": "",
          "type": "uint256"
        },
        {
          "internalType": "uint256",
          "name": "",
          "type": "uint256"
        },
        {
          "internalType": "uint256",
          "name": "",
          "type": "uint256"
        },
        {
          "internalType": "uint256",
          "name": "",
          "type": "uint256"
        },
        {
          "internalType": "bool",
          "name": "",
          "type": "bool"
        },
        {
          "internalType": "uint256",
          "name": "",
          "type": "uint256"
        }
      ],
      "stateMutability": "view",
      "type": "function"
    },
    {
      "inputs": [
        {
          "internalType": "address",
          "name": "_account",
          "type": "address"
        },
        {
          "internalType": "address",
          "name": "_collateralToken",
          "type": "address"
        },
        {
          "internalType": "address",
          "name": "_indexToken",
          "type": "address"
        },
        {
          "internalType": "bool",
          "name": "_isLong",
          "type": "bool"
        }
      ],
      "name": "getPositionDelta",
      "outputs": [
        {
          "internalType": "bool",
          "name": "",
          "type": "bool"
        },
        {
          "internalType": "uint256",
          "name": "",
          "type": "uint256"
        }
      ],
      "stateMutability": "view",
      "type": "function"
    },
    {
      "inputs": [
        {
          "internalType": "uint256",
          "name": "_sizeDelta",
          "type": "uint256"
        }
      ],
      "name": "getPositionFee",
      "outputs": [
        {
          "internalType": "uint256",
          "name": "",
          "type": "uint256"
        }
      ],
      "stateMutability": "pure",
      "type": "function"
    },
    {
      "inputs": [
        {
          "internalType": "address",
          "name": "_account",
          "type": "address"
        },
        {
          "internalType": "address",
          "name": "_collateralToken",
          "type": "address"
        },
        {
          "internalType": "address",
          "name": "_indexToken",
          "type": "address"
        },
        {
          "internalType": "bool",
          "name": "_isLong",
          "type": "bool"
        }
      ],
      "name": "getPositionLeverage",
      "outputs": [
        {
          "internalType": "uint256",
          "name": "",
          "type": "uint256"
        }
      ],
      "stateMutability": "view",
      "type": "function"
    },
    {
      "inputs": [
        {
          "internalType": "address",
          "name": "_token",
          "type": "address"
        }
      ],
      "name": "getUtilisation",
      "outputs": [
        {
          "internalType": "uint256",
          "name": "",
          "type": "uint256"
        }
      ],
      "stateMutability": "view",
      "type": "function"
    },
    {
      "inputs": [
        {
          "internalType": "address",
          "name": "_account",
          "type": "address"
        },
        {
          "internalType": "address",
          "name": "_collateralToken",
          "type": "address"
        },
        {
          "internalType": "address",
          "name": "_indexToken",
          "type": "address"
        },
        {
          "internalType": "uint256",
          "name": "_sizeDelta",
          "type": "uint256"
        },
        {
          "internalType": "bool",
          "name": "_isLong",
          "type": "bool"
        }
      ],
      "name": "increasePosition",
      "outputs": [],
      "stateMutability": "nonpayable",
      "type": "function"
    },
    {
      "inputs": [
        {
          "internalType": "address",
          "name": "_token",
          "type": "address"
        }
      ],
      "name": "lastFundingTimes",
      "outputs": [
        {
          "internalType": "uint256",
          "name": "",
          "type": "uint256"
        }
      ],
      "stateMutability": "view",
      "type": "function"
    },
    {
      "inputs": [
        {
          "internalType": "address",
          "name": "_account",
          "type": "address"
        },
        {
          "internalType": "address",
          "name": "_collateralToken",
          "type": "address"
        },
        {
          "internalType": "address",
          "name": "_indexToken",
          "type": "address"
        },
        {
          "internalType": "bool",
          "name": "_isLong",
          "type": "bool"
        },
        {
          "internalType": "address",
          "name": "_feeReceiver",
          "type": "address"
        }
      ],
      "name": "liquidatePosition",
      "outputs": [],
      "stateMutability": "nonpayable",
      "type": "function"
    },
    {
      "inputs": [],
      "name": "liquidationFeeUsd",
      "outputs": [
        {
          "internalType": "uint256",
          "name": "",
          "type": "uint256"
        }
      ],
      "stateMutability": "pure",
      "type": "function"
    },
    {
      "inputs": [],
      "name": "marginFeeBasisPoints",
      "outputs": [
        {
          "internalType": "uint256",
          "name": "",
          "type": "uint256"
        }
      ],
      "stateMutability": "pure",
      "type": "function"
    },
    {
      "inputs": [
        {
          "internalType": "address",
          "name": "_account",
          "type": "address"
        },
        {
          "internalType": "address",
          "name": "_collateralToken",
          "type": "address"
        },
        {
          "internalType": "address",
          "name": "_indexToken",
          "type": "address"
        },
        {
          "internalType": "bool",
          "name": "_isLong",
          "type": "bool"
        },
        {
          "internalType": "bool",
          "name": "_raise",
          "type": "bool"
        }
      ],
      "name": "validateLiquidation",
      "outputs": [
        {
          "internalType": "uint256",
          "name": "",
          "type": "uint256"
        },
        {
          "internalType": "uint256",
          "name": "",
          "type": "uint256"
        }
      ],
      "stateMutability": "view",
      "type": "function"
    }
  ],
  "bytecode": "0x608060405234801561001057600080fd5b5060008060000160006101000a81548160ff0219169083151502179055506152808061003d6000396000f3fe608060405234801561001057600080fd5b50600436106101215760003560e01c806382a08490116100ad578063cc5b814411610071578063cc5b814414610373578063d54d5a9f146103a3578063d8f897c3146103d4578063db97495f14610404578063de2ea9481461043457610121565b806382a08490146102a75780639849e412146102d7578063a93acac2146102f5578063c4f718bf14610325578063c65bc7b11461034357610121565b806345a6f370116100f457806345a6f370146101c257806348d91abf146101f35780634a3f088d1461020f57806351723e82146102465780635c07eaab1461027657610121565b806304fef1db14610126578063174d26941461015657806317bbf25c14610174578063318bc689146101a4575b600080fd5b610140600480360381019061013b9190613878565b610450565b60405161014d91906138be565b60405180910390f35b61015e61051e565b60405161016b91906138be565b60405180910390f35b61018e60048036038101906101899190613905565b61053f565b60405161019b91906138be565b60405180910390f35b6101ac610551565b6040516101b991906138be565b60405180910390f35b6101dc60048036038101906101d7919061396a565b61055a565b6040516101ea9291906139e0565b60405180910390f35b61020d60048036038101906102089190613a09565b6105ff565b005b6102296004803603810190610224919061396a565b6109d0565b60405161023d989796959493929190613a84565b60405180910390f35b610260600480360381019061025b919061396a565b610ac8565b60405161026d91906138be565b60405180910390f35b610290600480360381019061028b9190613b02565b610bc5565b60405161029e9291906139e0565b60405180910390f35b6102c160048036038101906102bc9190613b7d565b610be5565b6040516102ce91906138be565b60405180910390f35b6102df610c25565b6040516102ec91906138be565b60405180910390f35b61030f600480360381019061030a9190613878565b610c2f565b60405161031c91906138be565b60405180910390f35b61032d610c43565b60405161033a91906138be565b60405180910390f35b61035d60048036038101906103589190613878565b610c4d565b60405161036a91906138be565b60405180910390f35b61038d60048036038101906103889190613c1f565b610c98565b60405161039a91906138be565b60405180910390f35b6103bd60048036038101906103b89190613c72565b610cb0565b6040516103cb929190613ced565b60405180910390f35b6103ee60048036038101906103e99190613878565b610f96565b6040516103fb91906138be565b60405180910390f35b61041e60048036038101906104199190613d16565b610fe1565b60405161042b91906138be565b60405180910390f35b61044e60048036038101906104499190613db8565b6110b8565b005b6000806000600c0160008473ffffffffffffffffffffffffffffffffffffffff1673ffffffffffffffffffffffffffffffffffffffff16815260200190815260200160002054905060008114156104ab576000915050610519565b61051581610507620f42406000600d0160008873ffffffffffffffffffffffffffffffffffffffff1673ffffffffffffffffffffffffffffffffffffffff168152602001908152602001600020546114bc90919063ffffffff16565b6114d290919063ffffffff16565b9150505b919050565b60006c0c9f2c9cd04674edea40000000600561053a9190613e62565b905090565b600061054a826114e8565b9050919050565b6000600a905090565b600080600061056b87878787611557565b905060008060060160008381526020019081526020016000206040518060e001604052908160008201548152602001600182015481526020016002820154815260200160038201548152602001600482015481526020016005820154815260200160068201548152505090506105f08682600001518360400151888560c00151610bc5565b93509350505094509492505050565b610607611590565b61061360008585611601565b61061e600085611688565b600061062c86868685611557565b90506000806006016000838152602001908152602001600020905060008361066f5761066a86600060020160149054906101000a900460ff1661193c565b61068c565b61068b86600060020160149054906101000a900460ff166119c5565b5b90506000826000015414156106a5578082600201819055505b600082600001541180156106b95750600085115b156106e2576106d9868360000154846002015487858a8860060154610fe1565b82600201819055505b60006106fa6000898886600001548760030154611a4e565b9050600061070960008a611b73565b9050600061071960008b84611c9b565b9050610732818660010154611d5090919063ffffffff16565b85600101819055508285600101541015610781576040517f08c379a000000000000000000000000000000000000000000000000000000000815260040161077890613f3f565b60405180910390fd5b610798838660010154611d6690919063ffffffff16565b85600101819055506000600f0160008b73ffffffffffffffffffffffffffffffffffffffff1673ffffffffffffffffffffffffffffffffffffffff168152602001908152602001600020548560030181905550610802888660000154611d5090919063ffffffff16565b8560000181905550428560060181905550600085600001541161085a576040517f08c379a000000000000000000000000000000000000000000000000000000000815260040161085190613fab565b60405180910390fd5b61086c85600001548660010154611d7c565b61087a8b8b8b8a6001610cb0565b5050600061089d60008c8b600060020160149054906101000a900460ff16611e15565b90506108b6818760040154611d5090919063ffffffff16565b86600401819055506108ca60008c83611e48565b6108e860008c6108e3878d611d5090919063ffffffff16565b611fe4565b6108f460008c846120bb565b61090060008c85612192565b5061091860008c61091360008f896122bb565b6122fe565b7f2fe68525253654c21998f35787a8d0f361905ef647c854092430ab65f2f15022878d8d8d868e8e8c8c60405161095799989796959493929190613ff3565b60405180910390a17f25e8a331a7394a9f09862048843323b00bdbada258f524f5ce624a45bf00aabb878760000154886001015489600201548a600301548b600401548c600501546040516109b29796959493929190614099565b60405180910390a16109c2612420565b505050505050505050505050565b60008060008060008060008060006109ea8d8d8d8d611557565b905060008060060160008381526020019081526020016000206040518060e001604052908160008201548152602001600182015481526020016002820154815260200160038201548152602001600482015481526020016005820154815260200160068201548152505090506000808260a0015113610a76578160a00151610a7190614108565b610a7c565b8160a001515b9050816000015182602001518360400151846060015185608001518560008860a0015112158860c001519a509a509a509a509a509a509a509a5050505094995094995094999196509450565b600080610ad786868686611557565b905060008060060160008381526020019081526020016000206040518060e001604052908160008201548152602001600182015481526020016002820154815260200160038201548152602001600482015481526020016005820154815260200160068201548152505090506000816020015111610b8a576040517f08c379a0000000000000000000000000000000000000000000000000000000008152600401610b819061419d565b60405180910390fd5b610bb98160200151610bab61271084600001516114bc90919063ffffffff16565b6114d290919063ffffffff16565b92505050949350505050565b600080610bd76000888888888861243f565b915091509550959350505050565b6000610bef611590565b610bfb60008888611601565b6000610c0c898989898989896125fe565b9050610c16612420565b80915050979650505050505050565b6000617080905090565b6000610c3c600083612ad2565b9050919050565b6000610258905090565b600080600f0160008373ffffffffffffffffffffffffffffffffffffffff1673ffffffffffffffffffffffffffffffffffffffff168152602001908152602001600020549050919050565b6000610ca76000858585612c85565b90509392505050565b6000806000610cc188888888611557565b905060008060060160008381526020019081526020016000206040518060e00160405290816000820154815260200160018201548152602001600282015481526020016003820154815260200160048201548152602001600582015481526020016006820154815250509050600080610d4989846000015185604001518b8760c00151610bc5565b915091506000610d628b85600001518660600151610c98565b9050610d83610d74856000015161053f565b82611d5090919063ffffffff16565b905082158015610d965750818460200151105b15610ded578715610ddc576040517f08c379a0000000000000000000000000000000000000000000000000000000008152600401610dd390614209565b60405180910390fd5b600181965096505050505050610f8c565b60008460200151905083610e1557610e12838660200151611d6690919063ffffffff16565b90505b81811015610e70578815610e5e576040517f08c379a0000000000000000000000000000000000000000000000000000000008152600401610e5590614275565b60405180910390fd5b60018197509750505050505050610f8c565b610e9c6c0c9f2c9cd04674edea400000006005610e8d9190613e62565b83611d5090919063ffffffff16565b811015610ef6578815610ee4576040517f08c379a0000000000000000000000000000000000000000000000000000000008152600401610edb90614307565b60405180910390fd5b60018297509750505050505050610f8c565b610f0f61271086600001516114bc90919063ffffffff16565b610f256207a120836114bc90919063ffffffff16565b1015610f7e578815610f6c576040517f08c379a0000000000000000000000000000000000000000000000000000000008152600401610f6390614373565b60405180910390fd5b60028297509750505050505050610f8c565b600082975097505050505050505b9550959350505050565b60008060100160008373ffffffffffffffffffffffffffffffffffffffff1673ffffffffffffffffffffffffffffffffffffffff168152602001908152602001600020549050919050565b6000806000610ff38a8a8a8a88610bc5565b91509150600061100c868b611d5090919063ffffffff16565b90506000881561104e57836110335761102e8383611d6690919063ffffffff16565b611047565b6110468383611d5090919063ffffffff16565b5b9050611082565b8361106b576110668383611d5090919063ffffffff16565b61107f565b61107e8383611d6690919063ffffffff16565b5b90505b6110a781611099848b6114bc90919063ffffffff16565b6114d290919063ffffffff16565b945050505050979650505050505050565b6110c0611590565b60008060020160146101000a81548160ff0219169083151502179055506110e960008585611601565b6110f4600085611688565b600061110286868686611557565b905060008060060160008381526020019081526020016000206040518060e0016040529081600082015481526020016001820154815260200160028201548152602001600382015481526020016004820154815260200160058201548152602001600682015481525050905060008160000151116111b5576040517f08c379a00000000000000000000000000000000000000000000000000000000081526004016111ac906143df565b60405180910390fd5b6000806111c6898989896000610cb0565b91509150600082141561120e576040517f08c379a000000000000000000000000000000000000000000000000000000000815260040161120590614471565b60405180910390fd5b600282141561125b57611251898989600061124a600a61123c60058b600001516114bc90919063ffffffff16565b6114d290919063ffffffff16565b8b8f6125fe565b50505050506114b5565b6112bb61126a60008a846122bb565b600060110160008b73ffffffffffffffffffffffffffffffffffffffff1673ffffffffffffffffffffffffffffffffffffffff16815260200190815260200160002054611d5090919063ffffffff16565b600060110160008a73ffffffffffffffffffffffffffffffffffffffff1673ffffffffffffffffffffffffffffffffffffffff168152602001908152602001600020819055506113116000898560800151612d37565b61133760008961133286602001518760000151611d6690919063ffffffff16565b6120bb565b60008661135f5761135a88600060020160149054906101000a900460ff166119c5565b61137c565b61137b88600060020160149054906101000a900460ff1661193c565b5b90507f2e1f85a64a2f22cf2f0c42584e7c919ed4abe8d53675cff0f62bf1e95a1c676f858b8b8b8b89600001518a602001518b608001518c60a001518a6040516113cf9a99989796959493929190614491565b60405180910390a160006006016000868152602001908152602001600020600080820160009055600182016000905560028201600090556003820160009055600482016000905560058201600090556006820160009055505061145860008a61145360008d6c0c9f2c9cd04674edea40000000600561144e9190613e62565b6122bb565b6122fe565b6001600060020160146101000a81548160ff0219169083151502179055506114a760008a6114a160008d6c0c9f2c9cd04674edea40000000600561149c9190613e62565b6122bb565b89612e45565b6114af612420565b50505050505b5050505050565b600081836114ca9190613e62565b905092915050565b600081836114e0919061455c565b905092915050565b6000808214156114fb5760009050611552565b600061153961271061152b61151c600a612710611d6690919063ffffffff16565b866114bc90919063ffffffff16565b6114d290919063ffffffff16565b905061154e8184611d6690919063ffffffff16565b9150505b919050565b600084848484604051602001611570949392919061461d565b604051602081830303815290604052805190602001209050949350505050565b6000800160009054906101000a900460ff16156115e2576040517f08c379a00000000000000000000000000000000000000000000000000000000081526004016115d9906146b7565b60405180910390fd5b60016000800160006101000a81548160ff021916908315150217905550565b8073ffffffffffffffffffffffffffffffffffffffff168273ffffffffffffffffffffffffffffffffffffffff161461166f576040517f08c379a000000000000000000000000000000000000000000000000000000000815260040161166690614723565b60405180910390fd5b6116798383612f47565b6116838382612f47565b505050565b60008260100160008373ffffffffffffffffffffffffffffffffffffffff1673ffffffffffffffffffffffffffffffffffffffff168152602001908152602001600020541415611745576116fb6170806116ed617080426114d290919063ffffffff16565b6114bc90919063ffffffff16565b8260100160008373ffffffffffffffffffffffffffffffffffffffff1673ffffffffffffffffffffffffffffffffffffffff16815260200190815260200160002081905550611938565b4261179c6170808460100160008573ffffffffffffffffffffffffffffffffffffffff1673ffffffffffffffffffffffffffffffffffffffff16815260200190815260200160002054611d5090919063ffffffff16565b11156117a757611938565b60006117b38383612ad2565b90506118098184600f0160008573ffffffffffffffffffffffffffffffffffffffff1673ffffffffffffffffffffffffffffffffffffffff16815260200190815260200160002054611d5090919063ffffffff16565b83600f0160008473ffffffffffffffffffffffffffffffffffffffff1673ffffffffffffffffffffffffffffffffffffffff16815260200190815260200160002081905550611877617080611869617080426114d290919063ffffffff16565b6114bc90919063ffffffff16565b8360100160008473ffffffffffffffffffffffffffffffffffffffff1673ffffffffffffffffffffffffffffffffffffffff168152602001908152602001600020819055507fa146fc154e1913322e9817d49f0d5c37466c24326e15de10e739a948be815eab8284600f0160008573ffffffffffffffffffffffffffffffffffffffff1673ffffffffffffffffffffffffffffffffffffffff1681526020019081526020016000205460405161192e929190614743565b60405180910390a1505b5050565b60003073ffffffffffffffffffffffffffffffffffffffff16635ae69163846000856040518463ffffffff1660e01b815260040161197c9392919061476c565b602060405180830381865afa158015611999573d6000803e3d6000fd5b505050506040513d601f19601f820116820180604052508101906119bd91906147b8565b905092915050565b60003073ffffffffffffffffffffffffffffffffffffffff16635ae69163846001856040518463ffffffff1660e01b8152600401611a059392919061476c565b602060405180830381865afa158015611a22573d6000803e3d6000fd5b505050506040513d601f19601f82011682018060405250810190611a4691906147b8565b905092915050565b600080611a5a856114e8565b90506000611a6a88888787612c85565b9050611a7f8183611d5090919063ffffffff16565b91506000611a8e8989856122bb565b9050611ae4818a60110160008b73ffffffffffffffffffffffffffffffffffffffff1673ffffffffffffffffffffffffffffffffffffffff16815260200190815260200160002054611d5090919063ffffffff16565b8960110160008a73ffffffffffffffffffffffffffffffffffffffff1673ffffffffffffffffffffffffffffffffffffffff168152602001908152602001600020819055507f5d0c0019d3d45fadeb74eff9d2c9924d146d000ac6bcf3c28bf0ac3c9baa011a888483604051611b5c939291906147e5565b60405180910390a182935050505095945050505050565b60008083600a0160008473ffffffffffffffffffffffffffffffffffffffff1673ffffffffffffffffffffffffffffffffffffffff16815260200190815260200160002054905060008373ffffffffffffffffffffffffffffffffffffffff166370a08231306040518263ffffffff1660e01b8152600401611bf5919061481c565b602060405180830381865afa158015611c12573d6000803e3d6000fd5b505050506040513d601f19601f82011682018060405250810190611c3691906147b8565b90508085600a0160008673ffffffffffffffffffffffffffffffffffffffff1673ffffffffffffffffffffffffffffffffffffffff16815260200190815260200160002081905550611c918282611d6690919063ffffffff16565b9250505092915050565b600080821415611cae5760009050611d49565b6000611ccb848660020160149054906101000a900460ff1661193c565b905060008560070160008673ffffffffffffffffffffffffffffffffffffffff1673ffffffffffffffffffffffffffffffffffffffff168152602001908152602001600020549050611d4481600a611d23919061496a565b611d3684876114bc90919063ffffffff16565b6114d290919063ffffffff16565b925050505b9392505050565b60008183611d5e91906149b5565b905092915050565b60008183611d749190614a0b565b905092915050565b6000821415611dcd5760008114611dc8576040517f08c379a0000000000000000000000000000000000000000000000000000000008152600401611dbf90614ab1565b60405180910390fd5b611e11565b80821015611e10576040517f08c379a0000000000000000000000000000000000000000000000000000000008152600401611e0790614b43565b60405180910390fd5b5b5050565b600080831415611e285760009050611e40565b611e3d858585611e38888761193c565b612fd9565b90505b949350505050565b611e9c8184600d0160008573ffffffffffffffffffffffffffffffffffffffff1673ffffffffffffffffffffffffffffffffffffffff16815260200190815260200160002054611d5090919063ffffffff16565b83600d0160008473ffffffffffffffffffffffffffffffffffffffff1673ffffffffffffffffffffffffffffffffffffffff1681526020019081526020016000208190555082600c0160008373ffffffffffffffffffffffffffffffffffffffff1673ffffffffffffffffffffffffffffffffffffffff1681526020019081526020016000205483600d0160008473ffffffffffffffffffffffffffffffffffffffff1673ffffffffffffffffffffffffffffffffffffffff168152602001908152602001600020541115611fa6576040517f08c379a0000000000000000000000000000000000000000000000000000000008152600401611f9d90614baf565b60405180910390fd5b7faa5649d82f5462be9d19b0f2b31a59b2259950a6076550bac9f3a1c07db9f66d8282604051611fd7929190614743565b60405180910390a1505050565b6120388184600e0160008573ffffffffffffffffffffffffffffffffffffffff1673ffffffffffffffffffffffffffffffffffffffff16815260200190815260200160002054611d5090919063ffffffff16565b83600e0160008473ffffffffffffffffffffffffffffffffffffffff1673ffffffffffffffffffffffffffffffffffffffff168152602001908152602001600020819055507fd9d4761f75e0d0103b5cbeab941eeb443d7a56a35b5baf2a0787c03f03f4e47482826040516120ae929190614743565b60405180910390a1505050565b61210f8184600e0160008573ffffffffffffffffffffffffffffffffffffffff1673ffffffffffffffffffffffffffffffffffffffff16815260200190815260200160002054611d6690919063ffffffff16565b83600e0160008473ffffffffffffffffffffffffffffffffffffffff1673ffffffffffffffffffffffffffffffffffffffff168152602001908152602001600020819055507f34e07158b9db50df5613e591c44ea2ebc82834eff4a4dc3a46e000e608261d688282604051612185929190614743565b60405180910390a1505050565b60006121e88285600c0160008673ffffffffffffffffffffffffffffffffffffffff1673ffffffffffffffffffffffffffffffffffffffff16815260200190815260200160002054611d5090919063ffffffff16565b84600c0160008573ffffffffffffffffffffffffffffffffffffffff1673ffffffffffffffffffffffffffffffffffffffff16815260200190815260200160002081905550612237848461306f565b7f976177fbe09a15e5e43f848844963a42b41ef919ef17ff21a17a5421de8f47378383604051612268929190614743565b60405180910390a183600c0160008473ffffffffffffffffffffffffffffffffffffffff1673ffffffffffffffffffffffffffffffffffffffff1681526020019081526020016000205490509392505050565b6000808214156122ce57600090506122f7565b6122f48484846122ef878960020160149054906101000a900460ff166119c5565b612fd9565b90505b9392505050565b612389816040518060400160405280601a81526020017f5661756c743a20706f6f6c416d6f756e7420657863656564656400000000000081525085600c0160008673ffffffffffffffffffffffffffffffffffffffff1673ffffffffffffffffffffffffffffffffffffffff168152602001908152602001600020546131769092919063ffffffff16565b83600c0160008473ffffffffffffffffffffffffffffffffffffffff1673ffffffffffffffffffffffffffffffffffffffff168152602001908152602001600020819055506123d883836131cb565b6123e2838361306f565b7f112726233fbeaeed0f5b1dba5cb0b2b81883dee49fb35ff99fd98ed9f6d31eb08282604051612413929190614743565b60405180910390a1505050565b60008060000160006101000a81548160ff021916908315150217905550565b60008060008511612485576040517f08c379a000000000000000000000000000000000000000000000000000000000815260040161247c90614c1b565b60405180910390fd5b6000846124ac576124a7888a60020160149054906101000a900460ff166119c5565b6124c8565b6124c7888a60020160149054906101000a900460ff1661193c565b5b905060008187116124eb576124e68783611d6690919063ffffffff16565b6124ff565b6124fe8288611d6690919063ffffffff16565b5b905060006125288861251a848c6114bc90919063ffffffff16565b6114d290919063ffffffff16565b90506000871561253c578884119050612542565b83891190505b600061255961038489611d5090919063ffffffff16565b42116125a6578c60090160008d73ffffffffffffffffffffffffffffffffffffffff1673ffffffffffffffffffffffffffffffffffffffff168152602001908152602001600020546125a9565b60005b90508180156125de57506125c6818c6114bc90919063ffffffff16565b6125db612710856114bc90919063ffffffff16565b11155b156125e857600092505b8183965096505050505050965096945050505050565b600061260b600088611688565b600061261989898987611557565b905060008060060160008381526020019081526020016000209050600081600001541161267b576040517f08c379a0000000000000000000000000000000000000000000000000000000008152600401612672906143df565b60405180910390fd5b85816000015410156126c2576040517f08c379a00000000000000000000000000000000000000000000000000000000081526004016126b990614c87565b60405180910390fd5b8681600101541015612709576040517f08c379a000000000000000000000000000000000000000000000000000000000815260040161270090614d19565b60405180910390fd5b600081600101549050600061274183600001546127338a86600401546114bc90919063ffffffff16565b6114d290919063ffffffff16565b905061275a818460040154611d6690919063ffffffff16565b836004018190555061276e60008c83612d37565b5060008061278260008e8e8e8e8e8e613294565b915091508884600001541461294c576000600f0160008d73ffffffffffffffffffffffffffffffffffffffff1673ffffffffffffffffffffffffffffffffffffffff1681526020019081526020016000205484600301819055506127f3898560000154611d6690919063ffffffff16565b846000018190555061280d84600001548560010154611d7c565b61281b8d8d8d8b6001610cb0565b505061283f60008d61283a876001015487611d6690919063ffffffff16565b611fe4565b61284b60008d8b6120bb565b6000886128735761286e8c600060020160149054906101000a900460ff166119c5565b612890565b61288f8c600060020160149054906101000a900460ff1661193c565b5b90507f93d75d64d1f84fc6f430a64fc578bdd4c1e090e90ea2d51773e626d19de56d30868f8f8f8f8f8f886128ce8b8d611d6690919063ffffffff16565b6040516128e399989796959493929190613ff3565b60405180910390a17f25e8a331a7394a9f09862048843323b00bdbada258f524f5ce624a45bf00aabb8686600001548760010154886002015489600301548a600401548b6005015460405161293e9796959493929190614099565b60405180910390a150612ab2565b61295860008d85611fe4565b61296460008d8b6120bb565b60008861298c576129878c600060020160149054906101000a900460ff166119c5565b6129a9565b6129a88c600060020160149054906101000a900460ff1661193c565b5b90507f93d75d64d1f84fc6f430a64fc578bdd4c1e090e90ea2d51773e626d19de56d30868f8f8f8f8f8f886129e78b8d611d6690919063ffffffff16565b6040516129fc99989796959493929190613ff3565b60405180910390a17f73af1d417d82c240fdb6d319b34ad884487c6bf2845d98980cc52ad9171cb4558686600001548760010154886002015489600301548a600401548b60050154604051612a579796959493929190614099565b60405180910390a1600060060160008781526020019081526020016000206000808201600090556001820160009055600282016000905560038201600090556004820160009055600582016000905560068201600090555050505b612ac060008d8985856134d1565b95505050505050979650505050505050565b600042612b2b6170808560100160008673ffffffffffffffffffffffffffffffffffffffff1673ffffffffffffffffffffffffffffffffffffffff16815260200190815260200160002054611d5090919063ffffffff16565b1115612b3a5760009050612c7f565b6000612ba4617080612b968660100160008773ffffffffffffffffffffffffffffffffffffffff1673ffffffffffffffffffffffffffffffffffffffff1681526020019081526020016000205442611d6690919063ffffffff16565b6114d290919063ffffffff16565b9050600084600c0160008573ffffffffffffffffffffffffffffffffffffffff1673ffffffffffffffffffffffffffffffffffffffff1681526020019081526020016000205490506000811415612c0057600092505050612c7f565b612c7a81612c6c84612c5e89600d0160008a73ffffffffffffffffffffffffffffffffffffffff1673ffffffffffffffffffffffffffffffffffffffff168152602001908152602001600020546102586114bc90919063ffffffff16565b6114bc90919063ffffffff16565b6114d290919063ffffffff16565b925050505b92915050565b600080831415612c985760009050612d2f565b6000612cee8387600f0160008873ffffffffffffffffffffffffffffffffffffffff1673ffffffffffffffffffffffffffffffffffffffff16815260200190815260200160002054611d6690919063ffffffff16565b90506000811415612d03576000915050612d2f565b612d2b620f4240612d1d83876114bc90919063ffffffff16565b6114d290919063ffffffff16565b9150505b949350505050565b612dc2816040518060400160405280601b81526020017f5661756c743a20696e73756666696369656e742072657365727665000000000081525085600d0160008673ffffffffffffffffffffffffffffffffffffffff1673ffffffffffffffffffffffffffffffffffffffff168152602001908152602001600020546131769092919063ffffffff16565b83600d0160008473ffffffffffffffffffffffffffffffffffffffff1673ffffffffffffffffffffffffffffffffffffffff168152602001908152602001600020819055507f533cb5ed32be6a90284e96b5747a1bfc2d38fdb5768a6b5f67ff7d62144ed67b8282604051612e38929190614743565b60405180910390a1505050565b612ed1828473ffffffffffffffffffffffffffffffffffffffff166370a08231306040518263ffffffff1660e01b8152600401612e82919061481c565b602060405180830381865afa158015612e9f573d6000803e3d6000fd5b505050506040513d601f19601f82011682018060405250810190612ec391906147b8565b611d6690919063ffffffff16565b84600a0160008573ffffffffffffffffffffffffffffffffffffffff1673ffffffffffffffffffffffffffffffffffffffff16815260200190815260200160002081905550612f4181838573ffffffffffffffffffffffffffffffffffffffff166135229092919063ffffffff16565b50505050565b8160050160008273ffffffffffffffffffffffffffffffffffffffff1673ffffffffffffffffffffffffffffffffffffffff16815260200190815260200160002060009054906101000a900460ff16612fd5576040517f08c379a0000000000000000000000000000000000000000000000000000000008152600401612fcc90614d85565b60405180910390fd5b5050565b600080831415612fec5760009050613067565b60008560070160008673ffffffffffffffffffffffffffffffffffffffff1673ffffffffffffffffffffffffffffffffffffffff1681526020019081526020016000205490506130638361305583600a613046919061496a565b876114bc90919063ffffffff16565b6114d290919063ffffffff16565b9150505b949350505050565b60008173ffffffffffffffffffffffffffffffffffffffff166370a08231306040518263ffffffff1660e01b81526004016130aa919061481c565b602060405180830381865afa1580156130c7573d6000803e3d6000fd5b505050506040513d601f19601f820116820180604052508101906130eb91906147b8565b90508083600c0160008473ffffffffffffffffffffffffffffffffffffffff1673ffffffffffffffffffffffffffffffffffffffff168152602001908152602001600020541115613171576040517f08c379a000000000000000000000000000000000000000000000000000000000815260040161316890614df1565b60405180910390fd5b505050565b60008383111582906131be576040517f08c379a00000000000000000000000000000000000000000000000000000000081526004016131b59190614e99565b60405180910390fd5b5082840390509392505050565b81600c0160008273ffffffffffffffffffffffffffffffffffffffff1673ffffffffffffffffffffffffffffffffffffffff1681526020019081526020016000205482600d0160008373ffffffffffffffffffffffffffffffffffffffff1673ffffffffffffffffffffffffffffffffffffffff168152602001908152602001600020541115613290576040517f08c379a000000000000000000000000000000000000000000000000000000000815260040161328790614baf565b60405180910390fd5b5050565b60008060008960060160006132ab8b8b8b89611557565b8152602001908152602001600020905060006132d28b8a8885600001548660030154611a4e565b90506000806000806132f48f8d886000015489600201548d8b6006015461243f565b915091508193506133248660000154613316838d6114bc90919063ffffffff16565b6114d290919063ffffffff16565b9250505060008280156133375750600082115b156133585781905081856005015461334f9190614ebb565b85600501819055505b821580156133665750600082115b156133a357613382828660010154611d6690919063ffffffff16565b856001018190555081856005015461339a9190614f4f565b85600501819055505b60008a11156133e1576133bf8a82611d5090919063ffffffff16565b90506133d88a8660010154611d6690919063ffffffff16565b85600101819055505b888560000154141561341157613404856001015482611d5090919063ffffffff16565b9050600085600101819055505b8381101561345457613430848660010154611d6690919063ffffffff16565b856001018190555060006134458f8e876122bb565b90506134528f8e836122fe565b505b7f3ff41bdde87755b687ae83d0221a232b6be51a803330ed9661c1b5d0105e0d8a6134818e8e8e8c611557565b848460405161349293929190614fe3565b60405180910390a1808482116134a857816134bc565b6134bb8583611d6690919063ffffffff16565b5b96509650505050505097509795505050505050565b600080831115613514576134f086866134eb8989886122bb565b6122fe565b60006134fd8787856122bb565b905061350b87878388612e45565b80915050613519565b600090505b95945050505050565b6135a38363a9059cbb60e01b8484604051602401613541929190614743565b604051602081830303815290604052907bffffffffffffffffffffffffffffffffffffffffffffffffffffffff19166020820180517bffffffffffffffffffffffffffffffffffffffffffffffffffffffff83818316178352505050506135a8565b505050565b600061360a826040518060400160405280602081526020017f5361666545524332303a206c6f772d6c6576656c2063616c6c206661696c65648152508573ffffffffffffffffffffffffffffffffffffffff1661366f9092919063ffffffff16565b905060008151111561366a578080602001905181019061362a919061502f565b613669576040517f08c379a0000000000000000000000000000000000000000000000000000000008152600401613660906150ce565b60405180910390fd5b5b505050565b606061367e8484600085613687565b90509392505050565b6060824710156136cc576040517f08c379a00000000000000000000000000000000000000000000000000000000081526004016136c390615160565b60405180910390fd5b6136d58561379b565b613714576040517f08c379a000000000000000000000000000000000000000000000000000000000815260040161370b906151cc565b60405180910390fd5b6000808673ffffffffffffffffffffffffffffffffffffffff16858760405161373d9190615233565b60006040518083038185875af1925050503d806000811461377a576040519150601f19603f3d011682016040523d82523d6000602084013e61377f565b606091505b509150915061378f8282866137ae565b92505050949350505050565b600080823b905060008111915050919050565b606083156137be5782905061380e565b6000835111156137d15782518084602001fd5b816040517f08c379a00000000000000000000000000000000000000000000000000000000081526004016138059190614e99565b60405180910390fd5b9392505050565b600080fd5b600073ffffffffffffffffffffffffffffffffffffffff82169050919050565b60006138458261381a565b9050919050565b6138558161383a565b811461386057600080fd5b50565b6000813590506138728161384c565b92915050565b60006020828403121561388e5761388d613815565b5b600061389c84828501613863565b91505092915050565b6000819050919050565b6138b8816138a5565b82525050565b60006020820190506138d360008301846138af565b92915050565b6138e2816138a5565b81146138ed57600080fd5b50565b6000813590506138ff816138d9565b92915050565b60006020828403121561391b5761391a613815565b5b6000613929848285016138f0565b91505092915050565b60008115159050919050565b61394781613932565b811461395257600080fd5b50565b6000813590506139648161393e565b92915050565b6000806000806080858703121561398457613983613815565b5b600061399287828801613863565b94505060206139a387828801613863565b93505060406139b487828801613863565b92505060606139c587828801613955565b91505092959194509250565b6139da81613932565b82525050565b60006040820190506139f560008301856139d1565b613a0260208301846138af565b9392505050565b600080600080600060a08688031215613a2557613a24613815565b5b6000613a3388828901613863565b9550506020613a4488828901613863565b9450506040613a5588828901613863565b9350506060613a66888289016138f0565b9250506080613a7788828901613955565b9150509295509295909350565b600061010082019050613a9a600083018b6138af565b613aa7602083018a6138af565b613ab460408301896138af565b613ac160608301886138af565b613ace60808301876138af565b613adb60a08301866138af565b613ae860c08301856139d1565b613af560e08301846138af565b9998505050505050505050565b600080600080600060a08688031215613b1e57613b1d613815565b5b6000613b2c88828901613863565b9550506020613b3d888289016138f0565b9450506040613b4e888289016138f0565b9350506060613b5f88828901613955565b9250506080613b70888289016138f0565b9150509295509295909350565b600080600080600080600060e0888a031215613b9c57613b9b613815565b5b6000613baa8a828b01613863565b9750506020613bbb8a828b01613863565b9650506040613bcc8a828b01613863565b9550506060613bdd8a828b016138f0565b9450506080613bee8a828b016138f0565b93505060a0613bff8a828b01613955565b92505060c0613c108a828b01613863565b91505092959891949750929550565b600080600060608486031215613c3857613c37613815565b5b6000613c4686828701613863565b9350506020613c57868287016138f0565b9250506040613c68868287016138f0565b9150509250925092565b600080600080600060a08688031215613c8e57613c8d613815565b5b6000613c9c88828901613863565b9550506020613cad88828901613863565b9450506040613cbe88828901613863565b9350506060613ccf88828901613955565b9250506080613ce088828901613955565b9150509295509295909350565b6000604082019050613d0260008301856138af565b613d0f60208301846138af565b9392505050565b600080600080600080600060e0888a031215613d3557613d34613815565b5b6000613d438a828b01613863565b9750506020613d548a828b016138f0565b9650506040613d658a828b016138f0565b9550506060613d768a828b01613955565b9450506080613d878a828b016138f0565b93505060a0613d988a828b016138f0565b92505060c0613da98a828b016138f0565b91505092959891949750929550565b600080600080600060a08688031215613dd457613dd3613815565b5b6000613de288828901613863565b9550506020613df388828901613863565b9450506040613e0488828901613863565b9350506060613e1588828901613955565b9250506080613e2688828901613863565b9150509295509295909350565b7f4e487b7100000000000000000000000000000000000000000000000000000000600052601160045260246000fd5b6000613e6d826138a5565b9150613e78836138a5565b9250817fffffffffffffffffffffffffffffffffffffffffffffffffffffffffffffffff0483118215151615613eb157613eb0613e33565b5b828202905092915050565b600082825260208201905092915050565b7f5661756c743a20696e73756666696369656e7420636f6c6c61746572616c206660008201527f6f72206665657300000000000000000000000000000000000000000000000000602082015250565b6000613f29602783613ebc565b9150613f3482613ecd565b604082019050919050565b60006020820190508181036000830152613f5881613f1c565b9050919050565b7f5661756c743a20696e76616c696420706f736974696f6e2e73697a6500000000600082015250565b6000613f95601c83613ebc565b9150613fa082613f5f565b602082019050919050565b60006020820190508181036000830152613fc481613f88565b9050919050565b6000819050919050565b613fde81613fcb565b82525050565b613fed8161383a565b82525050565b600061012082019050614009600083018c613fd5565b614016602083018b613fe4565b614023604083018a613fe4565b6140306060830189613fe4565b61403d60808301886138af565b61404a60a08301876138af565b61405760c08301866139d1565b61406460e08301856138af565b6140726101008301846138af565b9a9950505050505050505050565b6000819050919050565b61409381614080565b82525050565b600060e0820190506140ae600083018a613fd5565b6140bb60208301896138af565b6140c860408301886138af565b6140d560608301876138af565b6140e260808301866138af565b6140ef60a08301856138af565b6140fc60c083018461408a565b98975050505050505050565b600061411382614080565b91507f800000000000000000000000000000000000000000000000000000000000000082141561414657614145613e33565b5b816000039050919050565b7f5661756c743a20696e76616c696420706f736974696f6e000000000000000000600082015250565b6000614187601783613ebc565b915061419282614151565b602082019050919050565b600060208201905081810360008301526141b68161417a565b9050919050565b7f5661756c743a206c6f737365732065786365656420636f6c6c61746572616c00600082015250565b60006141f3601f83613ebc565b91506141fe826141bd565b602082019050919050565b60006020820190508181036000830152614222816141e6565b9050919050565b7f5661756c743a20666565732065786365656420636f6c6c61746572616c000000600082015250565b600061425f601d83613ebc565b915061426a82614229565b602082019050919050565b6000602082019050818103600083015261428e81614252565b9050919050565b7f5661756c743a206c69717569646174696f6e206665657320657863656564206360008201527f6f6c6c61746572616c0000000000000000000000000000000000000000000000602082015250565b60006142f1602983613ebc565b91506142fc82614295565b604082019050919050565b60006020820190508181036000830152614320816142e4565b9050919050565b7f5661756c743a206d61784c657665726167652065786365656465640000000000600082015250565b600061435d601b83613ebc565b915061436882614327565b602082019050919050565b6000602082019050818103600083015261438c81614350565b9050919050565b7f5661756c743a20656d70747920706f736974696f6e0000000000000000000000600082015250565b60006143c9601583613ebc565b91506143d482614393565b602082019050919050565b600060208201905081810360008301526143f8816143bc565b9050919050565b7f5661756c743a20706f736974696f6e2063616e6e6f74206265206c697175696460008201527f6174656400000000000000000000000000000000000000000000000000000000602082015250565b600061445b602483613ebc565b9150614466826143ff565b604082019050919050565b6000602082019050818103600083015261448a8161444e565b9050919050565b6000610140820190506144a7600083018d613fd5565b6144b4602083018c613fe4565b6144c1604083018b613fe4565b6144ce606083018a613fe4565b6144db60808301896139d1565b6144e860a08301886138af565b6144f560c08301876138af565b61450260e08301866138af565b61451061010083018561408a565b61451e6101208301846138af565b9b9a5050505050505050505050565b7f4e487b7100000000000000000000000000000000000000000000000000000000600052601260045260246000fd5b6000614567826138a5565b9150614572836138a5565b9250826145825761458161452d565b5b828204905092915050565b60008160601b9050919050565b60006145a58261458d565b9050919050565b60006145b78261459a565b9050919050565b6145cf6145ca8261383a565b6145ac565b82525050565b60008160f81b9050919050565b60006145ed826145d5565b9050919050565b60006145ff826145e2565b9050919050565b61461761461282613932565b6145f4565b82525050565b600061462982876145be565b60148201915061463982866145be565b60148201915061464982856145be565b6014820191506146598284614606565b60018201915081905095945050505050565b7f436f6e747261637420616c726561647920656e74657265640000000000000000600082015250565b60006146a1601883613ebc565b91506146ac8261466b565b602082019050919050565b600060208201905081810360008301526146d081614694565b9050919050565b7f5661756c743a206d69736d61746368656420746f6b656e730000000000000000600082015250565b600061470d601883613ebc565b9150614718826146d7565b602082019050919050565b6000602082019050818103600083015261473c81614700565b9050919050565b60006040820190506147586000830185613fe4565b61476560208301846138af565b9392505050565b60006060820190506147816000830186613fe4565b61478e60208301856139d1565b61479b60408301846139d1565b949350505050565b6000815190506147b2816138d9565b92915050565b6000602082840312156147ce576147cd613815565b5b60006147dc848285016147a3565b91505092915050565b60006060820190506147fa6000830186613fe4565b61480760208301856138af565b61481460408301846138af565b949350505050565b60006020820190506148316000830184613fe4565b92915050565b60008160011c9050919050565b6000808291508390505b600185111561488e5780860481111561486a57614869613e33565b5b60018516156148795780820291505b808102905061488785614837565b945061484e565b94509492505050565b6000826148a75760019050614963565b816148b55760009050614963565b81600181146148cb57600281146148d557614904565b6001915050614963565b60ff8411156148e7576148e6613e33565b5b8360020a9150848211156148fe576148fd613e33565b5b50614963565b5060208310610133831016604e8410600b84101617156149395782820a90508381111561493457614933613e33565b5b614963565b6149468484846001614844565b9250905081840481111561495d5761495c613e33565b5b81810290505b9392505050565b6000614975826138a5565b9150614980836138a5565b92506149ad7fffffffffffffffffffffffffffffffffffffffffffffffffffffffffffffffff8484614897565b905092915050565b60006149c0826138a5565b91506149cb836138a5565b9250827fffffffffffffffffffffffffffffffffffffffffffffffffffffffffffffffff03821115614a00576149ff613e33565b5b828201905092915050565b6000614a16826138a5565b9150614a21836138a5565b925082821015614a3457614a33613e33565b5b828203905092915050565b7f5661756c743a20636f6c6c61746572616c2073686f756c64206265207769746860008201527f647261776e000000000000000000000000000000000000000000000000000000602082015250565b6000614a9b602583613ebc565b9150614aa682614a3f565b604082019050919050565b60006020820190508181036000830152614aca81614a8e565b9050919050565b7f5661756c743a205f73697a65206d757374206265206d6f7265207468616e205f60008201527f636f6c6c61746572616c00000000000000000000000000000000000000000000602082015250565b6000614b2d602a83613ebc565b9150614b3882614ad1565b604082019050919050565b60006020820190508181036000830152614b5c81614b20565b9050919050565b7f5661756c743a2072657365727665206578636565647320706f6f6c0000000000600082015250565b6000614b99601b83613ebc565b9150614ba482614b63565b602082019050919050565b60006020820190508181036000830152614bc881614b8c565b9050919050565b7f5661756c743a20696e76616c6964205f61766572616765507269636500000000600082015250565b6000614c05601c83613ebc565b9150614c1082614bcf565b602082019050919050565b60006020820190508181036000830152614c3481614bf8565b9050919050565b7f5661756c743a20706f736974696f6e2073697a65206578636565646564000000600082015250565b6000614c71601d83613ebc565b9150614c7c82614c3b565b602082019050919050565b60006020820190508181036000830152614ca081614c64565b9050919050565b7f5661756c743a20706f736974696f6e20636f6c6c61746572616c20657863656560008201527f6465640000000000000000000000000000000000000000000000000000000000602082015250565b6000614d03602383613ebc565b9150614d0e82614ca7565b604082019050919050565b60006020820190508181036000830152614d3281614cf6565b9050919050565b7f5661756c743a20746f6b656e206e6f742077686974656c697374656400000000600082015250565b6000614d6f601c83613ebc565b9150614d7a82614d39565b602082019050919050565b60006020820190508181036000830152614d9e81614d62565b9050919050565b7f5661756c743a20696e76616c696420696e637265617365000000000000000000600082015250565b6000614ddb601783613ebc565b9150614de682614da5565b602082019050919050565b60006020820190508181036000830152614e0a81614dce565b9050919050565b600081519050919050565b60005b83811015614e3a578082015181840152602081019050614e1f565b83811115614e49576000848401525b50505050565b6000601f19601f8301169050919050565b6000614e6b82614e11565b614e758185613ebc565b9350614e85818560208601614e1c565b614e8e81614e4f565b840191505092915050565b60006020820190508181036000830152614eb38184614e60565b905092915050565b6000614ec682614080565b9150614ed183614080565b9250817f7fffffffffffffffffffffffffffffffffffffffffffffffffffffffffffffff03831360008312151615614f0c57614f0b613e33565b5b817f8000000000000000000000000000000000000000000000000000000000000000038312600083121615614f4457614f43613e33565b5b828201905092915050565b6000614f5a82614080565b9150614f6583614080565b9250827f800000000000000000000000000000000000000000000000000000000000000001821260008412151615614fa057614f9f613e33565b5b827f7fffffffffffffffffffffffffffffffffffffffffffffffffffffffffffffff018213600084121615614fd857614fd7613e33565b5b828203905092915050565b6000606082019050614ff86000830186613fd5565b61500560208301856139d1565b61501260408301846138af565b949350505050565b6000815190506150298161393e565b92915050565b60006020828403121561504557615044613815565b5b60006150538482850161501a565b91505092915050565b7f5361666545524332303a204552433230206f7065726174696f6e20646964206e60008201527f6f74207375636365656400000000000000000000000000000000000000000000602082015250565b60006150b8602a83613ebc565b91506150c38261505c565b604082019050919050565b600060208201905081810360008301526150e7816150ab565b9050919050565b7f416464726573733a20696e73756666696369656e742062616c616e636520666f60008201527f722063616c6c0000000000000000000000000000000000000000000000000000602082015250565b600061514a602683613ebc565b9150615155826150ee565b604082019050919050565b600060208201905081810360008301526151798161513d565b9050919050565b7f416464726573733a2063616c6c20746f206e6f6e2d636f6e7472616374000000600082015250565b60006151b6601d83613ebc565b91506151c182615180565b602082019050919050565b600060208201905081810360008301526151e5816151a9565b9050919050565b600081519050919050565b600081905092915050565b600061520d826151ec565b61521781856151f7565b9350615227818560208601614e1c565b80840191505092915050565b600061523f8284615202565b91508190509291505056fea2646970667358221220acc88a3d80d8c4707938e69213fa1f80b63e17a4f66b6bdd39fd2766e1edddd064736f6c634300080a0033",
  "linkReferences": {},
  "deployedLinkReferences": {}
}